:020000040800F2
:1000000000280020311B00087D190008891900080C
:10001000A1190008A7190008AD1900080000000088
:10002000000000000000000000000000B3190008FC
:10003000BF19000800000000CB190008D7190008FC
:10004000791B0008791B0008791B0008E5190008D6
:10005000791B0008091A0008791B0008791B0008A1
:10006000791B0008791B0008791B0008151A000885
:10007000791B0008791B0008791B0008791B000810
:10008000791B0008791B0008291A0008791B000851
:10009000791B0008791B0008791B0008791B0008F0
:1000A000791B0008791B0008791B0008791B0008E0
:1000B000791B0008791B0008000000003D1A0008A9
:1000C000511A00080000000000000000791B000821
:1000D00000000000791B0008791B000800000000E8
:1000E000791B0008651A0008791B00080000000051
:1000F0000000000000000000000000000000000000
:0C01000000000000000000005FF808F1A3
:1001100010B5054C237833B9044B13B10448AFF341
:1001200000800123237010BD140000200000000097
:100130006471000808B5034B1BB103490348AFF3D2
:10014000008008BD00000000180000206471000855
:1001500081F0004102E000BF83F0004330B54FEA78
:1001600041044FEA430594EA050F08BF90EA020FE5
:100170001FBF54EA000C55EA020C7FEA645C7FEA78
:10018000655C00F0E2804FEA5454D4EB5555B8BF9B
:100190006D420CDD2C4480EA020281EA030382EA0C
:1001A000000083EA010180EA020281EA0303362D9E
:1001B00088BF30BD11F0004F4FEA01314FF4801C71
:1001C0004CEA113102D0404261EB410113F0004F83
:1001D0004FEA03334CEA133302D0524263EB43033A
:1001E00094EA050F00F0A780A4F10104D5F1200ED8
:1001F0000DDB02FA0EFC22FA05F2801841F1000133
:1002000003FA0EF2801843FA05F359410EE0A5F106
:1002100020050EF1200E012A03FA0EFC28BF4CF037
:10022000020C43FA05F3C01851EBE37101F00045ED
:1002300007D54FF0000EDCF1000C7EEB00006EEBFA
:100240000101B1F5801F1BD3B1F5001F0CD3490884
:100250005FEA30004FEA3C0C04F101044FEA4452DB
:1002600012F5800F80F09A80BCF1004F08BF5FEA62
:10027000500C50F1000041EB045141EA050130BD42
:100280005FEA4C0C404141EB010111F4801FA4F1E5
:100290000104E9D191F0000F04BF01460020B1FA3A
:1002A00081F308BF2033A3F10B03B3F120020CDA72
:1002B0000C3208DD02F1140CC2F10C0201FA0CF050
:1002C00021FA02F10CE002F11402D8BFC2F1200CB5
:1002D00001FA02F120FA0CFCDCBF41EA0C0190406B
:1002E000E41AA2BF01EB0451294330BD6FEA0404B4
:1002F0001F3C1CDA0C340EDC04F11404C4F120029F
:1003000020FA04F001FA02F340EA030021FA04F3B0
:1003100045EA030130BDC4F10C04C4F1200220FA07
:1003200002F001FA04F340EA0300294630BD21FA45
:1003300004F0294630BD94F0000F83F4801306BF0B
:1003400081F480110134013D4EE77FEA645C18BFFF
:100350007FEA655C29D094EA050F08BF90EA020F96
:1003600005D054EA000C04BF1946104630BD91EA8E
:10037000030F1EBF0021002030BD5FEA545C05D191
:100380004000494128BF41F0004130BD14F58004D0
:100390003CBF01F5801130BD01F0004545F0FE4144
:1003A00041F470014FF0000030BD7FEA645C1ABF79
:1003B000194610467FEA655C1CBF0B46024650EAB0
:1003C000013406BF52EA033591EA030F41F40021DC
:1003D00030BD00BF90F0000F04BF0021704730B562
:1003E0004FF4806404F132044FF000054FF0000137
:1003F00050E700BF90F0000F04BF0021704730B5F8
:100400004FF4806404F1320410F0004548BF4042CC
:100410004FF000013EE700BF42004FEAE2014FEA21
:1004200031014FEA02701FBF12F07F4393F07F4FFC
:1004300081F06051704732F07F4208BF704793F0FF
:100440007F4F04BF41F40021704730B54FF4607412
:1004500001F0004521F000411CE700BF50EA010215
:1004600008BF704730B54FF000050AE050EA0102BE
:1004700008BF704730B511F0004502D5404261EB2E
:1004800041014FF4806404F132045FEA915C3FF46F
:10049000D8AE4FF003025FEADC0C18BF03325FEA0C
:1004A000DC0C18BF033202EBDC02C2F1200300FABD
:1004B00003FC20FA02F001FA03FE40EA0E0021FAE2
:1004C00002F11444BDE600BF4FF0FF3C06E000BF60
:1004D0004FF0010C02E000BF4FF0010C4DF804CDCD
:1004E0004FEA410C7FEA6C5C4FEA430C18BF7FEA8D
:1004F0006C5C1BD001B050EA410C0CBF52EA430CBB
:1005000091EA030F02BF90EA020F0020704710F13A
:10051000000F91EA030F58BF994208BF90422CBFC9
:10052000D8176FEAE37040F0010070474FEA410CC2
:100530007FEA6C5C02D150EA013C07D14FEA430CE0
:100540007FEA6C5CD6D152EA033CD3D05DF8040B51
:10055000704700BF8446104662468C461946634683
:1005600000E000BF01B5FFF7B7FF002848BF10F15A
:10057000000F01BD4DF808EDFFF7F4FF0CBF01209F
:1005800000205DF808FB00BF4DF808EDFFF7EAFF1B
:1005900034BF012000205DF808FB00BF4DF808EDD6
:1005A000FFF7E0FF94BF012000205DF808FB00BFCB
:1005B0004DF808EDFFF7CEFF94BF012000205DF855
:1005C00008FB00BF4DF808EDFFF7C4FF34BF012062
:1005D00000205DF808FB00BF80B584B000AF3B1D74
:1005E00000221A605A609A60184B194A1A60174B19
:1005F00000229A60154B01221A73144B00221A75BF
:10060000124B4FF46022DA61104B00225A600F4BFC
:1006100001221A610D4801F035FB0346002B01D081
:1006200001F0DCF800237B600123BB600623FB6044
:100630003B1D1946054801F087FE0346002B01D0FB
:1006400001F0CCF800BF1037BD4680BD500000203F
:100650000024014080B588B000AF786007F1100336
:1006600000221A605A609A60DA607B681B682D4A23
:10067000934252D12C4B9B692B4A43F400739361F4
:10068000294B9B6903F40073FB60FB68264B9B6955
:10069000254A43F004039361234B9B6903F0040351
:1006A000BB60BB683F233B6103237B6107F1100301
:1006B00019461E4802F068FD1D4B1E4A1A601C4B6D
:1006C00000225A601A4B00229A60194B8022DA608D
:1006D000174B4FF480721A61154B4FF480625A61C8
:1006E000134B00229A61124B4FF40052DA6110480A
:1006F00002F026FA0346002B01D001F06FF87B6868
:100700000B4A1A620A4A7B685362002200211220B7
:1007100002F0C6F9122002F0EFF900BF2037BD4603
:1007200080BD00BF002401400010024000080140CD
:10073000800000200800024080B582B000AF0C4B62
:100740005B690B4A43F001035361094B5B6903F09A
:1007500001037B607B68002200210B2002F0A0F9DE
:100760000B2002F0C9F900BF0837BD4680BD00BFAD
:100770000010024080B584B000AFF860B9607A60C4
:100780007B681946B86800F0A0FC0346002B08D12E
:10079000B34B00221A70B34A137843F0200313704E
:1007A0000FE07B681946B86800F08FFC0346032B06
:1007B00007D1AC4A13786FF345131370012000F092
:1007C0005DFDA84B1B7803F02003DBB2002B67D044
:1007D000A54B1B78DBB2022B1DD0032B36D0012B8F
:1007E0004FD100224FF40041A04802F0F5FEFB6813
:1007F0001A789B4B1B78DBB29A4245D101224FF409
:1008000000419A4802F0E8FE974B02221A70944B7E
:1008100000221A703DE000224FF48071944802F0EB
:10082000DBFEFB6801331A788D4B1B78DBB29A42F2
:100830002CD101224FF480718D4802F0CDFE8A4BFD
:1008400003221A70864B00221A7022E000224FF415
:100850000071874802F0C0FEFB6802331A78804BB3
:100860001B78DBB29A4213D101224FF40071804809
:1008700002F0B2FE7C4B01221A70794B00221A70F2
:1008800007E000F0ABFF04E000BF02E000BF00E0C3
:1008900000BF734B1B78DBB20133DAB2704B1A70B6
:1008A0007B6803331946B86800F00FFC0346002B41
:1008B00008D1704B00221A706A4A137843F0100373
:1008C000137010E07B6803331946B86800F0FDFB35
:1008D0000346032B07D1634A13786FF30413137095
:1008E000022000F0CBFC5F4B1B7803F01003DBB25F
:1008F000002B68D0604B1B78DBB2022B1ED0032B81
:1009000037D0012B50D100224FF48061584802F0BB
:1009100063FEFB6803331A78564B1B78DBB29A42AE
:1009200045D101224FF48061514802F055FE524BEF
:1009300002221A704F4B00221A703DE000224FF441
:1009400000614B4802F048FEFB6804331A78494BBB
:100950001B78DBB29A422CD101224FF4006144484B
:1009600002F03AFE444B03221A70424B00221A70E6
:1009700022E000224FF480513D4802F02DFEFB683A
:1009800005331A783B4B1B78DBB29A4213D1012214
:100990004FF48051364802F01FFE374B01221A7087
:1009A000344B00221A7007E000F018FF04E000BF8B
:1009B00002E000BF00E000BF2E4B1B78DBB201332A
:1009C000DAB22C4B1A707B6806331946B86800F00F
:1009D0007CFB0346002B08D1284B00221A70214AC9
:1009E000137843F00803137010E07B680633194650
:1009F000B86800F06AFB0346032B07D1194A137845
:100A00006FF3C3031370032000F038FC154B1B7801
:100A100003F00803DBB2002B79D0194B1B78DBB253
:100A2000022B2FD0032B48D0012B61D100220421AF
:100A30000E4802F0D1FDFB6806331A780F4B1B7885
:100A4000DBB29A4257D101220421084802F0C4FDCA
:100A50000B4B02221A70094B00221A7050E000BFA3
:100A600042000020C400002000000020000C0140D3
:100A70000008014043000020010000204400002045
:100A80000200002000224FF48051AD4802F0A4FD86
:100A9000FB6807331A78AB4B1B78DBB29A422CD138
:100AA00001224FF48051A64802F096FDA64B032286
:100AB0001A70A44B00221A7022E000224FF4004169
:100AC000A24802F089FDFB6808331A789D4B1B7819
:100AD000DBB29A4213D101224FF400419B4802F04D
:100AE0007BFD994B01221A70964B00221A7007E089
:100AF00000F074FE04E000BF02E000BF00E000BFB1
:100B0000904B1B78DBB20133DAB28E4B1A707B68E4
:100B100009331946B86800F0D8FA0346002B08D10B
:100B20008B4B00221A708B4A137843F00403137026
:100B300010E07B6809331946B86800F0C6FA03462E
:100B4000032B07D1834A13786FF3820313700420B9
:100B500000F094FB7F4B1B7803F00403DBB2002B07
:100B600062D07D4B1B78DBB2022B1CD0032B33D021
:100B7000012B4AD100220821714802F02DFDFB68AB
:100B800009331A78724B1B78DBB29A4240D10122AA
:100B900008216B4802F020FD6F4B02221A706C4B4B
:100BA00000221A7039E000221021654802F014FD7D
:100BB000FB680A331A78664B1B78DBB29A4229D15C
:100BC000012210215E4802F007FD634B03221A70D8
:100BD0005F4B00221A7020E000222021584802F0CA
:100BE000FBFCFB680B331A78594B1B78DBB29A423B
:100BF00012D101222021524802F0EEFC564B012274
:100C00001A70534B00221A7007E000F0E7FD04E071
:100C100000BF02E000BF00E000BF4D4B1B78DBB21D
:100C20000133DAB24A4B1A707B680C331946B86844
:100C300000F04BFA0346002B08D1484B00221A70F3
:100C4000444A137843F00203137010E07B680C33BE
:100C50001946B86800F039FA0346032B07D13D4A1C
:100C600013786FF341031370052000F007FB394B35
:100C70001B7803F00203DBB2002B7BD0384B1B78D0
:100C8000DBB2022B1ED0032B37D0012B50D1002218
:100C90004FF480712A4802F09FFCFB680C331A78ED
:100CA0002E4B1B78DBB29A4245D101224FF4807162
:100CB000234802F091FC2A4B02221A70274B002293
:100CC0001A7050E000224FF400711D4802F084FCBD
:100CD000FB680D331A78214B1B78DBB29A422CD17A
:100CE00001224FF40071164802F076FC1C4B0322DF
:100CF0001A701A4B00221A7035E000224FF48061FE
:100D00000F4802F069FCFB680E331A78134B1B780E
:100D1000DBB29A4226D101224FF48061084802F0EA
:100D20005BFC0F4B01221A700C4B00221A701AE068
:100D300000F054FD17E000BF15E000BF13E000BF56
:100D4000000C014044000020020000200008014087
:100D500045000020C40000200300002046000020C1
:100D60000400002000BF4E4B1B78DBB20133DAB227
:100D70004B4B1A707B680F331946B86800F0A5F921
:100D80000346002B08D1474B00221A70464A1378BD
:100D900043F00103137010E07B680F331946B86805
:100DA00000F093F90346032B07D13F4A13786FF302
:100DB00000031370062000F061FA3B4B1B7803F030
:100DC0000103DBB2002B66D0384B1B78DBB2022B61
:100DD0001ED0032B37D0012B4ED100224FF40051EF
:100DE000334802F0F9FBFB680F331A782D4B1B7860
:100DF000DBB29A4243D101224FF400512C4802F059
:100E0000EBFB2A4B02221A70264B00221A703BE0A1
:100E100000224FF48041264802F0DEFBFB681033CD
:100E20001A78204B1B78DBB29A422AD101224FF468
:100E300080411F4802F0D0FB1C4B03221A70194B53
:100E400000221A7020E0002280211A4802F0C4FB20
:100E5000FB6811331A78134B1B78DBB29A4212D11C
:100E600001228021134802F0B7FB104B01221A70B7
:100E70000C4B00221A7007E000F0B0FC04E000BF49
:100E800002E000BF00E000BF064B1B78DBB201337D
:100E9000DAB2044B1A7000BF1037BD4680BD00BFE8
:100EA0004600002047000020C4000020050000206C
:100EB000000C01400008014080B485B000AF7860AC
:100EC00039600023FB730DE0FB7B9B007A681344C1
:100ED0001968FB7B9B007A6813448AB21A60FB7B1B
:100EE0000133FB73FB7B0D2BEED900BF1437BD46DE
:100EF00080BC704780B485B000AF78600B46FB7053
:100F00000023FB8100237B7310E0FA897B7B9B002D
:100F100079680B441B689A4205D27B7B9B007A68F8
:100F200013441B68FB817B7B01337B737A7BFB78EB
:100F30009A42EAD3FB8918461437BD4680BC7047F5
:100F400080B485B000AF78600B46FB707B681B688F
:100F5000FB600023FB7210E0FB7A9B007A6813446D
:100F60001B68FA689A4205D9FB7A9B007A68134499
:100F70001B68FB60FB7A0133FB72FA7AFB789A42BA
:100F8000EAD3FB6818461437BD4680BC704780B46E
:100F900085B000AF78600B46FB700023FB60002338
:100FA000FB720AE0FB7A9B007A6813441B68FA68BC
:100FB0001344FB60FB7A0133FB72FA7AFB789A42A6
:100FC000F0D3FB78FA68B2FBF3F318461437BD464A
:100FD00080BC70470000000080B582B000AF786030
:100FE0000B46FB70FB7819467868FFF783FF0346D2
:100FF0001A4640F6B6039A422BD8FB781946786811
:10100000FFF79EFF024640F243739A4221D9FB78D4
:1010100019467868FFF7BBFF03461846FFF7DAF971
:101020000FA3D3E90023FFF7CDFA0346002B10D11D
:10103000FB7819467868FFF7AAFF03461846FFF7C2
:10104000C9F909A3D3E90023FFF79EFA0346002B51
:1010500001D0012300E0002318460837BD4680BDBB
:101060009A9999999999A140CDCCCCCCCCCC9C4063
:1010700080B485B000AF78600B46FB700023FB6046
:101080000023FB720AE0FB7A9B007A6813441B681A
:10109000FA681344FB60FB7A0133FB72FA7AFB783F
:1010A0009A42F0D9FB78FA68B2FBF3F3FB60FB6875
:1010B000002B02D0FB68452B01D9012300E000235F
:1010C00018461437BD4680BC704780B483B000AF6B
:1010D000786039607B681A783B681B789A420DD13A
:1010E0007B685A783B685B789A4207D17B689A782C
:1010F0003B689B789A4201D100230EE03B681B7845
:10110000182B09D13B685B783C2B05D13B689B7859
:101110003C2B01D1032300E0022318460C37BD46C7
:1011200080BC704780B58AB000AF07F1140300227D
:101130001A605A609A60DA604A4B9B69494A43F0E8
:1011400010039361474B9B6903F010033B613B69BC
:10115000444B9B69434A43F020039361414B9B6995
:1011600003F02003FB60FB683E4B9B693D4A43F064
:10117000040393613B4B9B6903F00403BB60BB68B2
:10118000384B9B69374A43F008039361354B9B69A1
:1011900003F008037B607B68002249F680713248C7
:1011A00002F01AFA00224FF23F71304802F014FAAE
:1011B0004FF400537B610323BB6107F1140319460D
:1011C0002B4801F0E1FF03237B610323BB6107F19F
:1011D00014031946274801F0D7FF40237B610323FE
:1011E000BB6107F1140319461F4801F0CDFF49F612
:1011F00080737B610123BB610023FB6102233B629F
:1012000007F114031946184801F0BEFF4FF23F736F
:101210007B610123BB610023FB6102233B6207F179
:1012200014031946114801F0AFFF4FF400637B61CE
:101230000323BB6107F1140319460C4801F0A4FF16
:101240000D4B5B687B627B6A43F0E0637B627B6A89
:1012500043F400437B62084A7B6A536000BF28372F
:10126000BD4680BD0010024000080140000C014056
:1012700000100140001401400000014080B582B020
:1012800000AF0346FB71FB79013B052B49D801A256
:1012900052F823F0AD120008C7120008D51200085A
:1012A000EF120008FB1200080913000801224FF496
:1012B00000411E4802F090F901224FF440711C4891
:1012C00002F08AF92DE001224FF4E051184802F0B3
:1012D00083F926E0012241F20401144802F07CF96E
:1012E00001224FF40041124802F076F919E0012280
:1012F00038210E4802F070F913E001224FF4E0614A
:101300000A4802F069F90CE001224FF4C041074895
:1013100002F062F901224FF4C071054802F05CF955
:1013200000BF00BF0837BD4680BD00BF000C0140B4
:101330000008014080B500AF124B134A1A60114BF0
:10134000124A5A600F4B00229A600E4B0022DA605C
:101350000C4B4FF480421A610A4B00225A61094B30
:1013600000229A61074B0022DA61064B00221A62C2
:10137000044802F089F90346002B01D000F02EFA50
:1013800000BF80BDC800002000540040A0860100BE
:1013900080B588B000AF786007F1100300221A60B2
:1013A0005A609A60DA607B681B681E4A934235D1A6
:1013B0001D4B9B691C4A43F0080393611A4B9B69C0
:1013C00003F00803FB60FB68C0233B6112237B61D1
:1013D0000123BB610323FB6107F110031946134886
:1013E00001F0D2FE104BDB690F4A43F40013D361C6
:1013F0000D4BDB6903F40013BB60BB6800220021C6
:101400001F2001F04DFB1F2001F076FB0022002180
:10141000202001F045FB202001F06EFB00BF2037AB
:10142000BD4680BD0054004000100240000C014049
:1014300080B500AF4B4B06221A704A4B03225A70FC
:10144000484B04229A70474B0622DA70454B032220
:101450001A71444B04225A71424B06229A71414B35
:101460000322DA713F4B04221A723E4B06225A7253
:101470003C4B03229A723B4B0422DA72394B062210
:101480001A73384B03225A73364B04229A73354B26
:101490000622DA73334B03221A74324B04225A7435
:1014A000314B02221A70304B20225A702E4B0522EB
:1014B0009A702D4B0222DA702B4B20221A712A4B84
:1014C00006225A71284B02229A71274B2022DA7188
:1014D000254B07221A72244B02225A72224B2022D9
:1014E0009A72214B0822DA721F4B02221A731E4B8A
:1014F00020225A731C4B09229A731B4B0222DA7367
:10150000194B20221A74184B10225A7400F036FB23
:1015100000F034F8FFF706FEFFF70EF9FFF75CF86E
:10152000FFF708FF00F070F9012249F680710F48BB
:1015300002F052F801224FF23F710D4802F04CF8D0
:101540000C4800F0ABF90B4B1B681A68094B1B6881
:1015500042F001021A60084B5B68074A23F010034F
:101560005360FEE7300000206001002000080140C9
:10157000000C0140800100200028004080B594B09C
:1015800000AF07F1280328220021184605F0E2FDEC
:1015900007F1140300221A605A609A60DA601A6137
:1015A0003B1D00221A605A609A60DA600623BB6213
:1015B00001237B630123BB631023FB6300237B6454
:1015C00007F12803184603F0E1FD0346002B01D084
:1015D00000F004F90F237B610023BB610023FB6152
:1015E00000233B624FF4E0637B6207F114030021A8
:1015F000184604F03BF90346002B01D000F0EEF84A
:1016000003237B604FF48073BB604FF44043FB6067
:101610003B1D184604F06CFB0346002B01D000F084
:10162000DDF800BF5037BD4680BD000080B582B0F8
:1016300000AF786001220949786804F0E5FE0122D4
:101640000749786805F0E4F8064A04490648FFF7B8
:1016500091F800BF0837BD4680BD00BF20010020C3
:101660007C010020600100203000002080B586B0A1
:1016700000AF786007F1080300221A605A609A6090
:101680000D23FB75504B1B780133DAB24E4B1A70A9
:10169000FB7D19464D48FFF70FFC4B4B1B78062B83
:1016A0000DD8FB7D19464948FFF796FC0346002BF1
:1016B00016D0474B02221A6000F090F810E0424B1F
:1016C0001B78072B0CD1FB7D19464048FFF7D0FC57
:1016D0000346002B04D03E4B0C221A6000F07EF82B
:1016E000394B1B78013B062B6AD801A252F823F034
:1016F0000D17000813170008191700081F17000816
:10170000251700082B170008311700080123BB60BC
:1017100011E00223BB600EE00323BB600BE0042357
:10172000BB6008E00523BB6005E01023BB6002E05E
:101730000023BB6000BF274B274A1A60254B0022BD
:101740009A60244B01221A73224B00221A75214BF6
:101750004FF46022DA611F4B00225A601D4B0122B8
:101760001A611C4800F08EFA0346002B01D000F0ED
:1017700035F80123FB6006233B6107F10803194696
:10178000144800F0E1FD0346002B04D0104B032267
:101790001A6000F023F87868FEF75CFF0A4B1B78AC
:1017A000062B0ED81A2209490A4800F0D5FB034639
:1017B000002B06D0064B04221A6000F00FF800E060
:1017C00000BF1837BD4680BD48000020240100201E
:1017D0004C000020500000200024014080B500AFE4
:1017E00000220221024801F0F7FE00BF80BD00BFC9
:1017F000000C014080B483B000AF7860396000BF56
:101800000C37BD4680BC704780B582B000AF3B1D31
:1018100000210A461A800A469A7000233B601D4B3D
:101820001D4A1A601B4B4FF0FF325A60194B0022C1
:101830009A60184804F038FC0346002B01D0FFF7EB
:10184000CDFF02233B7120237B710023BB713B1D25
:10185000012219460F4804F0F1FC0346002B01D089
:10186000FFF7BCFF06233B7008237B700123BB708E
:101870002023FB703B4601221946064804F0AAFECD
:101880000346002B01D0FFF7A9FF00BF0837BD4674
:1018900080BD00BF800100200028004080B584B0DA
:1018A00000AF78607B681B68134A934220D103F035
:1018B00061FC124BDB69114A43F00063D3610F4BAB
:1018C000DB6903F00063FB60FB680D4B01221A60CB
:1018D00000220021032001F0E3F8032001F00CF9BD
:1018E00000220021292001F0DBF8292001F004F971
:1018F00000BF1037BD4680BD0028004000100240E8
:101900003C04424280B584B000AF1A4B9B69194A2F
:1019100043F001039361174B9B6903F00103BB6024
:10192000BB68144BDB69134A43F08053D361114BFE
:10193000DB6903F080537B607B68072001F090F83F
:1019400000220021052001F0ABF8052001F0D4F8B9
:10195000094B5B68FB60FB6823F0E063FB60FB689E
:1019600043F00073FB60044AFB68536000BF10370C
:10197000BD4680BD001002400000014080B400AFB1
:1019800000BFBD4680BC704780B500AF0121034851
:1019900001F054FEC82000F053F9F7E7000C0140B5
:1019A00080B400AFFEE780B400AFFEE780B400AFC4
:1019B000FEE780B400AF00BFBD4680BC704780B476
:1019C00000AF00BFBD4680BC704780B400AF00BF11
:1019D000BD4680BC704780B500AF00F015F900BF70
:1019E00080BD000080B500AF054805F051FB054BF8
:1019F0005B68044A23F01003536000BF80BD00BF42
:101A0000800100200028004080B400AF00BFBD4628
:101A100080BC704780B500AF024801F075FA00BF86
:101A200080BD00BF8000002080B500AF024800F0FC
:101A30007DFB00BF80BD00BF5000002080B500AF1F
:101A4000024801F0C3FF00BF80BD00BFC8000020F6
:101A500080B500AF024802F01FF900BF80BD00BF93
:101A6000C800002080B500AF134805F03FF81248C9
:101A700005F03CF8104805F06AF801220F490E48BD
:101A800004F0C2FC01220E490B4804F0C1FE0B4BCE
:101A90001A780C4B1A70094B5A780A4B5A70074B3C
:101AA0009B780233DAB2074B9A700122054902484B
:101AB00004F010FF00BF80BD800100202001002045
:101AC0007C0100205801002080B400AF154B1B683A
:101AD000144A43F001031360124B5A681149124B28
:101AE00013404B600F4B1B680E4A23F0847323F4A2
:101AF000803313600B4B1B680A4A23F48023136066
:101B0000084B5B68074A23F4FE035360054B4FF410
:101B10001F029A60054B4FF000629A6000BFBD46FD
:101B200080BC7047001002400000FFF800ED00E0AC
:101B3000002103E00B4B5B58435004310A480B4B28
:101B400042189A42F6D30A4A02E0002342F8043BC4
:101B5000084B9A42F9D3FFF7B7FF05F0D7FAFFF722
:101B600067FC7047907300080000002014000020FC
:101B70001400002098010020FEE7000080B500AFAF
:101B8000084B1B68074A43F010031360032000F062
:101B900067FF002000F008F8FFF7B4FE00231846A6
:101BA00080BD00BF0020024080B582B000AF7860E9
:101BB000124B1A68124B1B7819464FF47A73B3FB19
:101BC000F1F3B2FBF3F3184600F0AEFF0346002B2F
:101BD00001D001230EE07B680F2B0AD80022796820
:101BE0004FF0FF3000F05CFF064A7B681360002373
:101BF00000E0012318460837BD4680BD08000020DC
:101C0000100000200C00002080B400AF054B1B78B2
:101C10001A46054B1B681344034A136000BFBD46B8
:101C200080BC7047100000209401002080B400AFF9
:101C3000024B1B681846BD4680BC704794010020CB
:101C400080B584B000AF7860FFF7F0FFB8607B68C4
:101C5000FB60FB68B3F1FF3F05D0094B1B781A46C8
:101C6000FB681344FB6000BFFFF7E0FF0246BB6860
:101C7000D31AFA689A42F7D800BF1037BD4680BD24
:101C80001000002080B586B000AF78600023FB759F
:101C900000233B610023BB600023FB607B68002BBB
:101CA00001D1012353E17B681B689F4A934209D00D
:101CB0007B681B689D4A934204D040F2B3119C4854
:101CC000FFF798FD7B685B68002B09D07B685B6839
:101CD000B3F5006F04D04FF4DA719548FFF78AFD31
:101CE0007B689B68002B09D07B689B68B3F5807F7D
:101CF00004D040F2B5118E48FFF77CFD7B681B7B5A
:101D0000002B08D07B681B7B012B04D04FF4DB71C8
:101D10008748FFF76FFD7B68DB69002B22D07B686B
:101D2000DB69B3F5003F1DD07B68DB69B3F5C02FDD
:101D300018D07B68DB69B3F5002F13D07B68DB69B3
:101D4000B3F5202F0ED07B68DB69B3F5402F09D0A7
:101D50007B68DB69B3F5602F04D040F2B71174489B
:101D6000FFF748FD7B689B68002B2AD07B681B69C6
:101D7000002B03D07B681B69102B04D940F2BB11E8
:101D80006B48FFF737FD7B681B7D002B08D07B6815
:101D90001B7D012B04D04FF4DE716548FFF72AFD4F
:101DA0007B681B7D002B0CD07B689B69002B03D0CC
:101DB0007B689B69082B04D940F2BF115C48FFF790
:101DC00019FD7B689B6A002B09D17B680022DA62CF
:101DD0007B68002283F824207868FEF73BFC786853
:101DE00000F0C8FC0346FB757B689B6A03F0100398
:101DF000002B40F0A380FB7D002B40F09F807B6890
:101E00009B6A23F4885323F0020343F002027B68A9
:101E10009A627B685A687B68DB691A437B681B7B24
:101E20005B001343BA681343BB607B689B68B3F5E0
:101E3000807F03D07B689B68012B02D14FF48073B5
:101E400000E000233A6913433B617B681B7D012B53
:101E500019D17B681B7B002B09D17B689B69013BF7
:101E60005A033B69134343F400633B610BE07B6817
:101E70009B6A43F020027B689A627B68DB6A43F0CE
:101E800001027B68DA627B681B685B6823F4694146
:101E90007B681B683A690A435A607B681B689A68CA
:101EA000244B13407A681268B9680B4393607B68CF
:101EB0009B68B3F5807F03D07B689B68012B04D1BE
:101EC0007B681B69013B1B05FB607B681B68DB6A49
:101ED00023F470017B681B68FA680A43DA627B6846
:101EE0001B689A68144B1340BA689A420BD17B68FE
:101EF0000022DA627B689B6A23F0030343F001024D
:101F00007B689A6222E07B689B6A23F0120343F0AD
:101F100010027B689A627B68DB6A43F001027B688F
:101F2000DA620123FB7511E0002401400028014022
:101F30007C710008FDF7E1FFFE0E1FFF7B689B6AC6
:101F400043F010027B689A620123FB75FB7D184603
:101F50001837BD4680BD00BF80B586B000AFF860C1
:101F6000B9607A600023FB75FB681B68694A93427D
:101F700004D040F214616848FFF73CFCFB681B6822
:101F8000644A934204D0FB681B68644A934206D1BA
:101F9000604B5B6803F47023002B40F0B380FB6858
:101FA00093F82430012B01D10223AEE0FB6801221B
:101FB00083F82420F86800F08BFB0346FB75FB7D5B
:101FC000002B40F09A80FB689B6A23F4706323F037
:101FD000010343F48072FB689A62FB681B684F4AF6
:101FE000934205D14B4B5B6803F47023002B15D152
:101FF000FB689B6A23F48012FB689A62FB681B688B
:102000005B6803F48063002B26D0FB689B6A23F493
:10201000405343F48052FB689A621DE0FB689B6A60
:1020200043F48012FB689A62FB681B68394A93424A
:1020300004D0FB681B68394A93420DD1354B5B686D
:1020400003F48063002B07D0FB689B6A23F44053A2
:1020500043F48052FB689A62FB689B6A03F48053E6
:10206000002B06D0FB68DB6A23F00602FB68DA620D
:1020700002E0FB680022DA62FB68002283F8242079
:10208000FB681B6A264A9A62FB681B6A254ADA6269
:10209000FB681B6A244A1A63FB681B686FF0020224
:1020A0001A60FB681B689A68FB681B6842F48072C0
:1020B0009A60FB68186AFB681B684C331946BA685B
:1020C0007B6800F03DFEFB681B689B6803F460239F
:1020D000B3F5602F08D1FB681B689A68FB681B6822
:1020E00042F4A0029A600FE0FB681B689A68FB68E4
:1020F0001B6842F480129A6006E0FB68002283F8B5
:10210000242001E00123FB75FB7D18461837BD46EE
:1021100080BD00BF002401407C7100080028014000
:10212000E9270008652800088128000880B582B0EA
:1021300000AF78607B681B68724A934209D07B6865
:102140001B68714A934204D040F2F1616F48FFF777
:1021500051FB7B681B7B002B08D07B681B7B012B12
:1021600004D040F2F2616948FFF744FB7B681B69C9
:10217000002B03D07B681B69102B04D940F2F3615C
:102180006248FFF737FB7B681B685B6803F020033E
:10219000202B40D17B681B681B6803F00203022BD5
:1021A00039D17B689B6A03F01003002B05D17B6853
:1021B0009B6A43F400727B689A627B681B689B6829
:1021C00003F46023B3F5602F1DD17B681B7B002BCC
:1021D00019D17B681B685A687B681B6822F0200253
:1021E0005A607B689B6A23F480727B689A627B6882
:1021F0009B6A03F48053002B05D17B689B6A43F0F4
:1022000001027B689A627868FFF730FA7B681B6886
:102210006FF012021A607B681B685B6803F0800332
:10222000802B4FD17B681B681B6803F00403042BD1
:1022300048D17B689B6A03F01003002B05D17B68B3
:102240009B6A43F400527B689A627B681B689B68B8
:1022500003F4E043B3F5E04F12D07B681B685B6882
:1022600003F48063002B25D17B681B689B6803F413
:102270006023B3F5602F1DD17B681B7B002B19D128
:102280007B681B685A687B681B6822F080025A6072
:102290007B689B6A23F480527B689A627B689B6AA6
:1022A00003F48073002B05D17B689B6A43F0010225
:1022B0007B689A62786800F0FDFA7B681B686FF0B3
:1022C0000C021A607B681B685B6803F04003402BBC
:1022D00014D17B681B681B6803F00103012B0DD12F
:1022E0007B689B6A43F480327B689A62786800F06E
:1022F00018F87B681B686FF001021A6000BF08378E
:10230000BD4680BD00240140002801407C710008CA
:1023100080B483B000AF786000BF0C37BD4680BC8E
:10232000704780B483B000AF786000BF0C37BD4603
:1023300080BC704780B483B000AF786000BF0C37BA
:10234000BD4680BC7047000080B584B000AF7860A7
:1023500039600023FB730023BB607B681B68884ADD
:10236000934209D07B681B68864A934204D040F2AE
:10237000CE718548FFF73EFA3B681B68002B48D0BA
:102380003B681B68012B44D03B681B68022B40D084
:102390003B681B68032B3CD03B681B68042B38D080
:1023A0003B681B68052B34D03B681B68062B30D07C
:1023B0003B681B68072B2CD03B681B68082B28D078
:1023C0003B681B68092B24D03B681B680A2B20D074
:1023D0003B681B680B2B1CD03B681B680C2B18D070
:1023E0003B681B680D2B14D03B681B680E2B10D06C
:1023F0003B681B680F2B0CD03B681B68102B08D068
:102400003B681B68112B04D040F2CF715E48FFF788
:10241000F1F93B685B68012B40D03B685B68022B9D
:102420003CD03B685B68032B38D03B685B68042B6F
:1024300034D03B685B68052B30D03B685B68062B6B
:102440002CD03B685B68072B28D03B685B68082B67
:1024500024D03B685B68092B20D03B685B680A2B63
:102460001CD03B685B680B2B18D03B685B680C2B5F
:1024700014D03B685B680D2B10D03B685B680E2B5B
:102480000CD03B685B680F2B08D03B685B68102B57
:1024900004D04FF4FA613C48FFF7ACF93B689B6805
:1024A000002B20D03B689B68012B1CD03B689B68AD
:1024B000022B18D03B689B68032B14D03B689B68A9
:1024C000042B10D03B689B68052B0CD03B689B68A5
:1024D000062B08D03B689B68072B04D040F2D171D3
:1024E0002948FFF787F97B6893F82430012B01D145
:1024F0000223E2E07B68012283F824203B685B68CA
:10250000062B1CD87B681B68596B3B685A681346BE
:102510009B001344053B1F2202FA03F3DB431940DF
:102520003B6818683B685A6813469B001344053B98
:1025300000FA03F27B681B680A435A6342E03B6877
:102540005B680C2B22D87B681B68196B3B685A6848
:1025500013469B001344233B1F2202FA03F3DB4381
:1025600019403B6818683B685A6813469B0013443F
:10257000233B00FA03F27B681B680A431A6321E0DD
:1025800000240140002801407C7100087B681B6822
:10259000D96A3B685A6813469B001344413B1F228B
:1025A00002FA03F3DB4319403B6818683B685A683A
:1025B00013469B001344413B00FA03F27B681B68FF
:1025C0000A43DA623B681B68092B1CD97B681B68CD
:1025D000D9683B681A6813465B0013441E3B072208
:1025E00002FA03F3DB4319403B6898683B681A68BA
:1025F00013465B0013441E3B00FA03F27B681B6822
:102600000A43DA6019E07B681B6819693B681A683D
:1026100013465B001344072202FA03F3DB4319401D
:102620003B6898683B681A6813465B00134400FADD
:1026300003F27B681B680A431A613B681B68102B16
:1026400003D03B681B68112B32D17B681B681D4A85
:10265000934225D17B681B689B6803F40003002B21
:1026600026D17B681B689A687B681B6842F400026D
:102670009A603B681B68102B1AD1134B1B68134AD6
:10268000A2FB03239A0C13469B0013445B00BB6020
:1026900002E0BB68013BBB60BB68002BF9D107E0DF
:1026A0007B689B6A43F020027B689A620123FB737C
:1026B0007B68002283F82420FB7B18461037BD4638
:1026C00080BD00BF002401400800002083DE1B43C2
:1026D00080B584B000AF78600023FB600023BB604E
:1026E0007B681B689B6803F00103012B39D07B6872
:1026F0001B689A687B681B6842F001029A601B4B5A
:102700001B681B4AA2FB03239B0CBB6002E0BB6857
:10271000013BBB60BB68002BF9D1FFF787FAF8607B
:1027200018E0FFF783FA0246FB68D31A022B11D98F
:102730007B689B6A43F010027B689A627B68DB6A65
:1027400043F001027B68DA627B68002283F8242070
:10275000012307E07B681B689B6803F00103012BE2
:10276000DFD1002318461037BD4680BD0800002089
:1027700083DE1B4380B584B000AF78600023FB602C
:102780007B681B689B6803F00103012B27D17B68E2
:102790001B689A687B681B6822F001029A60FFF749
:1027A00045FAF86014E0FFF741FA0246FB68D31AD5
:1027B000022B0DD97B689B6A43F010027B689A62FA
:1027C0007B68DB6A43F001027B68DA62012307E081
:1027D0007B681B689B6803F00103012BE3D0002397
:1027E00018461037BD4680BD80B584B000AF786014
:1027F0007B685B6AFB60FB689B6A03F05003002BFD
:1028000027D1FB689B6A43F40072FB689A62FB68FD
:102810001B689B6803F46023B3F5602F15D1FB6838
:102820001B7B002B11D1FB689B6A23F48072FB6831
:102830009A62FB689B6A03F48053002B05D1FB6806
:102840009B6A43F00102FB689A62F868FEF70EFF8C
:1028500004E0FB681B6A1B6B7868984700BF103761
:10286000BD4680BD80B584B000AF78607B685B6A90
:10287000FB60F868FFF74CFD00BF1037BD4680BD18
:1028800080B584B000AF78607B685B6AFB60FB68F2
:102890009B6A43F04002FB689A62FB68DB6A43F084
:1028A0000402FB68DA62F868FFF744FD00BF1037E6
:1028B000BD4680BD80B483B000AF786000BF0C37E8
:1028C000BD4680BC7047000080B485B000AF786022
:1028D0007B6803F00703FB600C4BDB68BB60BA68E6
:1028E0004FF6FF031340BB60FB681A02BB6813433B
:1028F00043F0BF6343F40033BB60044ABB68D3605A
:1029000000BF1437BD4680BC704700BF00ED00E03B
:1029100080B400AF044BDB681B0A03F007031846C2
:10292000BD4680BC704700BF00ED00E080B483B0BE
:1029300000AF0346FB7197F90730002B0BDBFB79E7
:1029400003F01F02064997F907305B09012000FADE
:1029500002F241F8232000BF0C37BD4680BC70470F
:1029600000E100E080B483B000AF03463960FB7142
:1029700097F90730002B0ADB3B68DAB20C4997F96C
:1029800007301201D2B20B4483F800230AE03B68FF
:10299000DAB20849FB7903F00F03043B1201D2B20B
:1029A0000B441A7600BF0C37BD4680BC704700BF91
:1029B00000E100E000ED00E080B489B000AFF86015
:1029C000B9607A60FB6803F00703FB61FB69C3F140
:1029D0000703042B28BF0423BB61FB690433062BC8
:1029E00002D9FB69033B00E000237B614FF0FF321B
:1029F000BB6902FA03F3DA43BB681A407B699A4069
:102A00004FF0FF317B6901FA03F3D9437B680B4038
:102A1000134318462437BD4680BC704780B582B04A
:102A200000AF78607B68013BB3F1807F01D3012365
:102A30000FE00A4A7B68013B53600F214FF0FF30E3
:102A4000FFF790FF054B00229A60044B07221A60A3
:102A5000002318460837BD4680BD00BF10E000E0E7
:102A600080B582B000AF78607B68072B0FD07B68A1
:102A7000062B0CD07B68052B09D07B68042B06D075
:102A80007B68032B03D092210448FEF7B3FE7868DD
:102A9000FFF71AFF00BF0837BD4680BDB4710008BC
:102AA00080B586B000AF0346B9607A60FB7300233F
:102AB0007B617B680F2B03D9AA210E48FEF79AFE93
:102AC000BB680F2B03D9AB210A48FEF793FEFFF733
:102AD0001FFF78617A68B9687869FFF76DFF024671
:102AE00097F90F3011461846FFF73CFF00BF183723
:102AF000BD4680BDB471000880B582B000AF03460A
:102B0000FB7197F90730002B03DABE210548FEF769
:102B100071FE97F907301846FFF708FF00BF083726
:102B2000BD4680BDB471000880B582B000AF78604A
:102B30007868FFF773FF034618460837BD4680BD27
:102B400080B584B000AF78600023FB607B68002B09
:102B500001D10123DAE07B681B686E4A934221D0E1
:102B60007B681B686C4A93421CD07B681B686B4A6D
:102B7000934217D07B681B68694A934212D07B68E6
:102B80001B68684A93420DD07B681B68664A934273
:102B900008D07B681B68654A934203D09A21644839
:102BA000FEF728FE7B685B68002B0CD07B685B68B7
:102BB000102B08D07B685B68B3F5804F03D09B2156
:102BC0005B48FEF717FE7B689B68402B07D07B684D
:102BD0009B68002B03D09C215548FEF70BFE7B68B9
:102BE000DB68802B07D07B68DB68002B03D09D213E
:102BF0004F48FEF7FFFD7B681B69002B0DD07B68FB
:102C00001B69B3F5807F08D07B681B69B3F5007F33
:102C100003D09E214648FEF7EDFD7B685B69002BE3
:102C20000DD07B685B69B3F5806F08D07B685B690A
:102C3000B3F5006F03D09F213D48FEF7DBFD7B68B5
:102C40009B69002B07D07B689B69202B03D0A021B8
:102C50003748FEF7CFFD7B68DB69002B12D07B681D
:102C6000DB69B3F5805F0DD07B68DB69B3F5005F8E
:102C700008D07B68DB69B3F5405F03D0A1212C4805
:102C8000FEF7B8FD7B681B681A462A4B13442A4A94
:102C9000A2FB03231B099A007B681A647B68274AFE
:102CA000DA637B68022283F821207B681B681B683B
:102CB000FB60FB6823F47F5323F03003FB607B68E9
:102CC0005A687B689B681A437B68DB681A437B6899
:102CD0001B691A437B685B691A437B689B691A43CB
:102CE0007B68DB691343FA681343FB607B681B68EE
:102CF000FA681A607B6800229A637B68012283F875
:102D000021207B68002283F82020002318461037FA
:102D1000BD4680BD080002401C0002403000024059
:102D200044000240580002406C0002408000024013
:102D3000F0710008F8FFFDBFCDCCCCCC0000024004
:102D400080B586B000AFF860B9607A603B60002360
:102D5000FB753B68002B03D03B68B3F5803F04D381
:102D600040F26F112C48FEF745FDFB6893F82030C8
:102D7000012B01D102234AE0FB68012283F82020C5
:102D8000FB6893F82130012B3AD1FB68022283F8CB
:102D90002120FB6800229A63FB681B681A68FB68A5
:102DA0001B6822F001021A603B687A68B968F8680B
:102DB00000F0BCF9FB68DB6A002B08D0FB681B68DD
:102DC0001A68FB681B6842F00E021A600FE0FB688D
:102DD0001B681A68FB681B6822F004021A60FB6813
:102DE0001B681A68FB681B6842F00A021A60FB68DD
:102DF0001B681A68FB681B6842F001021A6005E054
:102E0000FB68002283F820200223FB75FB7D184617
:102E10001837BD4680BD00BFF071000880B584B092
:102E200000AF78600023FB737B6893F82130022B9E
:102E300005D07B6804229A630123FB7351E07B6811
:102E40001B681A687B681B6822F00E021A607B6898
:102E50001B681A687B681B6822F001021A607B6895
:102E60001B68224A934229D07B681B68204A934200
:102E700022D07B681B681F4A93421AD07B681B686C
:102E80001D4A934212D07B681B681C4A93420AD0A9
:102E90007B681B681A4A934202D14FF480130EE0FC
:102EA0004FF080730BE04FF4803308E04FF4805311
:102EB00005E04FF4807302E0102300E00123114A83
:102EC00053607B68012283F821207B68002283F80D
:102ED00020207B685B6B002B03D07B685B6B786882
:102EE0009847FB7B18461037BD4680BD080002405E
:102EF0001C000240300002404400024058000240E2
:102F00006C0002400000024080B584B000AF7860E1
:102F10007B68DB6B1B68FB607B681B681B68BB60A6
:102F20007B681B6C04229A40FB681340002B4FD037
:102F3000BB6803F00403002B4AD07B681B681B6846
:102F400003F02003002B07D17B681B681A687B689D
:102F50001B6822F004021A607B681B68664A934271
:102F600029D07B681B68654A934222D07B681B6826
:102F7000634A93421AD07B681B68624A934212D01C
:102F80007B681B68604A93420AD07B681B685F4A73
:102F9000934202D14FF480030EE04FF080630BE0C8
:102FA0004FF4802308E04FF4804305E04FF4806342
:102FB00002E0402300E00423554A53607B68DB6A4B
:102FC000002B00F094807B68DB6A786898478EE07D
:102FD0007B681B6C02229A40FB681340002B56D082
:102FE000BB6803F00203002B51D07B681B681B6891
:102FF00003F02003002B0BD17B681B681A687B68E9
:103000001B6822F00A021A607B68012283F82120E3
:103010007B681B68384A934229D07B681B68374A13
:10302000934222D07B681B68354A93421AD07B6852
:103030001B68344A934212D07B681B68324A934221
:103040000AD07B681B68314A934202D14FF40013C7
:103050000EE04FF000730BE04FF4003308E04FF444
:10306000005305E04FF4007302E0202300E0022348
:10307000274A53607B68002283F820207B689B6A84
:10308000002B34D07B689B6A786898472FE07B6878
:103090001B6C08229A40FB681340002B28D0BB68A9
:1030A00003F00803002B23D07B681B681A687B6839
:1030B0001B6822F00E021A607B681A6C7B68DB6B5F
:1030C000012101FA02F25A607B6801229A637B684F
:1030D000012283F821207B68002283F820207B686E
:1030E0001B6B002B04D07B681B6B7868984700BF74
:1030F00000BF1037BD4680BD080002401C000240E2
:103100003000024044000240580002406C0002407F
:103110000000024080B483B000AF78607B6893F811
:10312000213018460C37BD4680BC704780B485B04E
:1031300000AFF860B9607A603B60FB681A6CFB68AE
:10314000DB6B012101FA02F25A60FB681B683A68E6
:103150005A60FB685B68102B08D1FB681B687A68B3
:103160009A60FB681B68BA68DA6007E0FB681B6856
:10317000BA689A60FB681B687A68DA6000BF143727
:10318000BD4680BC7047000080B58AB000AF786053
:10319000396000237B6200233B627B689C4A934238
:1031A0000FD07B689B4A93420BD07B689A4A93422C
:1031B00007D07B68994A934203D0BD219848FEF717
:1031C00019FB3B681B689BB2002B05D03B681B6852
:1031D0001B0C1B04002B03D0BE219148FEF70AFBF9
:1031E0003B685B68002B00F0DF813B685B68012B6C
:1031F00000F0DA813B685B68112B00F0D5813B68F9
:103200005B68022B00F0D0813B685B68122B00F0FA
:10321000CB813B685B68834A934200F0C5813B6881
:103220005B68814A934200F0BF813B685B687F4ADC
:10323000934200F0B9813B685B687D4A934200F09D
:10324000B3813B685B687B4A934200F0AD813B6889
:103250005B68794A934200F0A7813B685B68032B67
:1032600000F0A281BF216E48FEF7C4FA9CE1012262
:103270007B6A02FA03F3FB613B681B68FA6913403F
:10328000BB61BA69FB699A4240F08B817B68604AF6
:1032900093420FD07B685F4A93420BD07B685E4AB3
:1032A000934207D07B685D4A934203D0CD215C48AE
:1032B000FEF7A0FA3B685B68122B65D0122B0ED884
:1032C000022B4CD0022B04D8002B72D0012B1DD026
:1032D00099E0032B00F09480112B2BD093E0524AFD
:1032E000934266D0504A934206D84E4A934260D0E9
:1032F0004F4A93425DD086E04C4A934259D04E4AA1
:10330000934256D04B4A934253D07CE03B68DB68F3
:10331000022B0BD03B68DB68012B07D03B68DB68D6
:10332000032B03D0D5213E48FEF764FA3B68DB68E7
:103330003B6268E03B68DB68022B0BD03B68DB68D4
:10334000012B07D03B68DB68032B03D0DC2134481A
:10335000FEF750FA3B68DB6804333B6253E03B689E
:10336000DB68022B0BD03B68DB68012B07D03B6886
:10337000DB68032B03D0E3212948FEF73BFA3B68C7
:10338000DB6808333B623EE03B68DB68022B0BD016
:103390003B68DB68012B07D03B68DB68032B03D05D
:1033A000EA211F48FEF726FA3B68DB680C333B62D4
:1033B00029E03B689B68002B0BD03B689B68012B86
:1033C00007D03B689B68022B03D0F7211448FEF717
:1033D00011FA3B689B68002B02D104233B6212E088
:1033E0003B689B68012B05D108233B627B68FA6927
:1033F0001A6108E008233B627B68FA695A6102E0BF
:1034000000233B6200BFBB69FF2B17D87B6817E026
:1034100000080140000C0140001001400014014070
:103420002872000800001110000021100000311067
:103430000000121000002210000032107B680433DC
:103440007B61BB69FF2B02D87B6A9B0002E07B6A31
:10345000083B9B003B617B691A680F213B6901FABD
:1034600003F3DB431A40396A3B6901FA03F31A4359
:103470007B691A603B685B6803F08053002B00F0A7
:1034800090804F4B9B694E4A43F0010393614C4B34
:103490009B6903F00103BB60BB684A4A7B6A9B08D7
:1034A000023352F82330FB607B6A03F003039B0076
:1034B0000F2202FA03F3DB43FA681340FB607B68D8
:1034C000414A93420DD07B68404A934207D07B68C3
:1034D0003F4A934201D1022304E0032302E0012387
:1034E00000E000237A6A02F0030292009340FA6837
:1034F0001343FB6033497B6A9B080233FA6841F847
:1035000023203B685B6803F48033002B06D0314BEB
:103510001A683049BB6913430B6006E02D4B1A68EB
:10352000BB69DB432B4913400B603B685B6803F4CA
:103530000033002B06D0274B5A682649BB6913433A
:103540004B6006E0234B5A68BB69DB4321491340BB
:103550004B603B685B6803F48013002B06D01D4B67
:103560009A681C49BB6913438B6006E0194B9A6843
:10357000BB69DB43174913408B603B685B6803F40E
:103580000013002B06D0134BDA681249BB691343B2
:10359000CB6006E00F4BDA68BB69DB430D49134093
:1035A000CB607B6A01337B623B681A687B6A22FAD4
:1035B00003F3002B7FF45BAE00BF2837BD4680BD10
:1035C000001002400000014000080140000C0140D2
:1035D000001001400004014080B582B000AF786067
:1035E0000B467B8013467B707B88002B04D07B8846
:1035F0001B0C1B04002B04D04FF4EA710E48FEF79D
:10360000F9F87B78002B07D07B78012B04D040F2AF
:10361000D5110948FEF7EEF87B78002B03D07A88A5
:103620007B681A6103E07B881A047B681A6100BF1B
:103630000837BD4680BD00BF2872000880B582B043
:1036400000AF78600B467B807B88002B04D07B88A2
:103650001B0C1B04002B04D04FF4F5710948FEF736
:10366000C9F87B68DA687B881340002B03D07A881E
:103670007B685A6102E07A887B681A6100BF08376C
:10368000BD4680BD2872000880B584B000AF786068
:103690007B68002B01D1012393E17B681B68954A6D
:1036A000934204D040F2CD119348FEF7A3F87B6813
:1036B0005B68002B04D07B685B68904A934204D916
:1036C0004FF4E7718C48FEF795F87B689B68002BF8
:1036D00009D07B689B68B3F5804F04D040F2CF11CE
:1036E0008548FEF787F87B68DB6823F47F7323F057
:1036F0000303002B04D04FF4E8717F48FEF77AF8FB
:103700007B681B69B3F5804F09D07B681B69B3F5F3
:10371000404F04D040F2D1117748FEF76BF87B6838
:103720005B69002B08D07B685B69012B04D04FF4E8
:10373000E9717148FEF75EF87B689B6923F0FE0330
:10374000002B04D040F2D3116B48FEF753F87B688E
:10375000DB69002B08D07B68DB69402B04D04FF479
:10376000EA716548FEF746F87B681B6A002B08D0B3
:103770007B681B6A802B04D040F2D5115E48FEF7AF
:1037800039F87B6893F83D30DBB2002B06D17B68BB
:10379000002283F83C207868FDF7FAFD7B6824223C
:1037A00083F83D207B681B681A687B681B6822F0E1
:1037B00001021A6002F056FAF8607B685B68504AB2
:1037C000934207D8FB684F4A934294BF01230023DA
:1037D000DBB206E0FB684C4A934294BF012300230E
:1037E000DBB2002B01D00123EBE0FB68474AA2FBD0
:1037F00003239B0CBB607B681B685B6823F03F0165
:103800007B681B68BA680A435A607B681B681B6A3E
:1038100023F03F017B685B68394A934202D8BB685A
:10382000013309E0BB684FF4967202FB03F3384A98
:10383000A2FB03239B0901337A6812680B431362CE
:103840007B681B68DB6923F44F4222F0FF027B6830
:103850005B682B498B420DD8FB68591E7B685B68FF
:103860005B00B1FBF3F30133C3F30B03042B38BF4D
:1038700004235FE07B689B68002B11D1FB68581E16
:103880007B6859680B465B000B44B0FBF3F30133D4
:10389000C3F30B03002B0CBF01230023DBB212E0A8
:1038A000FB68581E7B6859680B469B000B449900C7
:1038B0000B44B0FBF3F30133C3F30B03002B0CBF3A
:1038C00001230023DBB2002B01D0012332E07B680F
:1038D0009B68002B1ED1FB68581E7B6859680B46FD
:1038E0005B000B44B0FBF3F30133C3F30B0343F46E
:1038F00000431FE00054004064720008801A060074
:10390000A08601007F841E00FF083D0083DE1B436C
:10391000D34D6210FB68581E7B6859680B469B00AC
:103920000B4499000B44B0FBF3F30133C3F30B03D7
:1039300043F44043796809681343CB617B681B6893
:103940001B6823F0C0017B68DA697B681B6A1A4335
:103950007B681B680A431A607B681B689B6823F4BA
:10396000034323F0FF037A6811697A68D268114330
:103970007A6812680B4393607B681B68DB6823F0EE
:10398000FF017B685A697B689B691A437B681B68E7
:103990000A43DA607B681B681A687B681B6842F020
:1039A00001021A607B6800221A647B68202283F877
:1039B0003D207B6800221A637B68002283F83E204A
:1039C000002318461037BD4680BD00BF80B588B0C3
:1039D00000AF78600023BB617B681B685B687B611C
:1039E0007B68DB6A3B617B6893F83E30FB737B68E6
:1039F00093F83D30BB73FB7B102B03D0FB7B402B3C
:103A000040F0B6807B681B689B69BB617B681B6864
:103A10005B69FB61FB6903F00103002B0DD13B697E
:103A2000B3F52A0F03D03B69B3F12A4F01D101232B
:103A300000E00023012B00F02781FB6903F0010364
:103A4000002B0CD07B695B0A03F00103002B06D02E
:103A5000786801F074FB786800F003FD87E0FB698B
:103A6000DB0803F00103002B09D07B695B0A03F03C
:103A70000103002B03D0786800F078FD77E0FB6944
:103A80005B0803F00103002B09D07B695B0A03F09C
:103A90000103002B03D0786800F091FD67E0BB695B
:103AA0009B0803F00103002B30D07B681B685B6828
:103AB00003F40063B3F5006F00F0E880FB69DB09F5
:103AC00003F00103002B0FD07B699B0A03F0010375
:103AD000002B09D0FB699B0803F00103002B03D1E5
:103AE000786800F0E4F942E0FB699B0803F0010309
:103AF000002B00F0CB807B695B0A03F00103002BF5
:103B000000F0C480786800F0CAFABFE07B681B68E8
:103B10005B6803F40063B3F5006F00F0B780FB69E6
:103B20009B0903F00103002B0FD07B699B0A03F074
:103B30000103002B09D0FB699B0803F00103002B54
:103B400003D1786800F021FB11E0FB699B0803F0CA
:103B50000103002B00F09A807B695B0A03F00103EC
:103B6000002B00F09380786800F091FB8EE08DE0F0
:103B70007B681B6C002B04D07B681B685B69FB6156
:103B800007E07B681B689B69BB617B681B685B699E
:103B9000FB61FB695B0803F00103002B12D07B691A
:103BA0005B0A03F00103002B0CD07B681B6C002B1D
:103BB00003D07B681B689B69BB61B969786800F0BA
:103BC00055FF66E0FB691B0903F00103002B09D0D8
:103BD0007B695B0A03F00103002B03D0786800F0D7
:103BE00089FF56E0BB7B212B02D0BB7B292B25D143
:103BF000FB69DB0903F00103002B0FD07B699B0AF3
:103C000003F00103002B09D0FB699B0803F00103BB
:103C1000002B03D1786800F06DFE39E0FB699B084A
:103C200003F00103002B33D07B695B0A03F001032F
:103C3000002B2DD0786800F09AFE29E0FB699B09E3
:103C400003F00103002B0FD07B699B0A03F00103F3
:103C5000002B09D0FB699B0803F00103002B03D163
:103C6000786800F0A4FE14E0FB699B0803F00103F0
:103C7000002B0ED07B695B0A03F00103002B08D0F8
:103C8000786800F0D2FE04E000BF02E000BF00E070
:103C900000BF2037BD4680BD80B58AB000AF7860D8
:103CA0007B681B685B693B627B681B685B68FB61C8
:103CB00000237B623B6A1B0A03F00103002B16D032
:103CC000FB691B0A03F00103002B10D07B6A43F051
:103CD00001037B627B681B686FF480725A617B68AA
:103CE0001B681A687B681B6842F400421A603B6AD2
:103CF0005B0A03F00103002B0ED0FB691B0A03F0E3
:103D00000103002B08D07B6A43F002037B627B68CF
:103D10001B686FF400725A613B6A9B0A03F001034F
:103D2000002B41D0FB691B0A03F00103002B3BD0A1
:103D30007B6893F83E30FB767B685B8D9BB27B6142
:103D40007B6893F83D30FB747B681B6BFB60FB7EEC
:103D5000202B12D17B69002B0FD1FB7C212B08D0AB
:103D6000FB7C292B05D0FB7C282B06D1FB68212B63
:103D700003D1786800F0EEFF16E07B681B686FF4F3
:103D800080625A617B6A43F004037B627B6893F82C
:103D90003E30DBB2102B07D17B681B681A687B684A
:103DA0001B6842F400721A603B6ADB0A03F00103ED
:103DB000002B0ED0FB691B0A03F00103002B08D077
:103DC0007B6A43F008037B627B681B686FF40062C8
:103DD0005A617B6A002B08D07B681A6C7B6A1A4395
:103DE0007B681A64786801F025F800BF2837BD4663
:103DF00080BD80B483B000AF786000BF0C37BD4693
:103E000080BC704780B483B000AF786000BF0C37CF
:103E1000BD4680BC704780B483B000AF786000BFFF
:103E20000C37BD4680BC704780B483B000AF78606B
:103E300000BF0C37BD4680BC704780B483B000AF74
:103E400078600B46FB7013463B8000BF0C37BD46C5
:103E500080BC704780B483B000AF786000BF0C377F
:103E6000BD4680BC704780B483B000AF786000BFAF
:103E70000C37BD4680BC704780B483B000AF78601B
:103E800000BF0C37BD4680BC704780B483B000AF24
:103E9000786000BF0C37BD4680BC704780B483B0EB
:103EA00000AF786000BF0C37BD4680BC704780B55E
:103EB00084B000AF78607B6893F83D30FB737B681B
:103EC00093F83E30BB737B68DB6ABB607B681B8DFD
:103ED000002B50D1FB7B212B4DD1BB68082B1DD073
:103EE000BB68202B1AD0BB6813F5803F16D07B68C7
:103EF0001B685A687B681B6822F4E0625A607B6822
:103F000011221A637B68002283F83E207B682022FE
:103F100083F83D207868FFF76CFFBCE07B681B6886
:103F20005A687B681B6822F4E0625A607B681B68F1
:103F30001A687B681B6842F400721A607B68002272
:103F40001A637B68202283F83D207B6893F83E301B
:103F5000DBB2402B07D17B68002283F83E207868D3
:103F6000FFF781FF97E07B68002283F83E207868A6
:103F7000FFF73FFF8FE0FB7B212B07D0BB7B402B64
:103F800040F08980FB7B222B40F085807B685B8D35
:103F90009BB2002B08D17B681B685A687B681B6842
:103FA00022F480625A6076E07B6893F83E30DBB2A0
:103FB000402B5DD17B681B6D002B1DD17B68DB6CBA
:103FC000012B0BD17B689B6CDAB27B681B681A6192
:103FD0007B681B6D9A1C7B681A655CE07B689B6C38
:103FE0009BB21B12DAB27B681B681A617B681B6D7F
:103FF0005A1C7B681A654EE07B681B6D012B0BD148
:104000007B689B6CDAB27B681B681A617B681B6DEE
:104010005A1C7B681A653EE07B681B6D022B3AD107
:104020007B6893F83D30DBB2222B08D17B681B689C
:104030001A687B681B6842F480721A602BE07B6808
:1040400093F83D30DBB2212B25D17B685B6A1A786F
:104050007B681B681A617B685B6A5A1C7B685A62C2
:104060007B685B8D9BB2013B9AB27B685A8512E0FC
:104070007B685B6A1A787B681B681A617B685B6A7D
:104080005A1C7B685A627B685B8D9BB2013B9AB27B
:104090007B685A85FFE700BF1037BD4680BD80B5FD
:1040A00084B000AF78607B68DB6AFB607B6893F864
:1040B0003D30DBB2212B64D17B685B8D9BB2002B42
:1040C00012D07B685B6A1A787B681B681A617B6810
:1040D0005B6A5A1C7B685A627B685B8D9BB2013BB2
:1040E0009AB27B685A854CE0FB68082B1DD0FB68B0
:1040F000202B1AD0FB6813F5803F16D07B681B6815
:104100005A687B681B6822F4E0625A607B6811225F
:104110001A637B68002283F83E207B68202283F8A4
:104120003D207868FFF765FE2BE07B681B685A68C6
:104130007B681B6822F4E0625A607B681B681A681F
:104140007B681B6842F400721A607B6800221A6365
:104150007B68202283F83D207B6893F83E30DBB2F9
:10416000402B07D17B68002283F83E207868FFF758
:104170007AFE06E07B68002283F83E207868FFF72D
:1041800038FE00BF1037BD4680BD80B584B000AF9B
:1041900078607B6893F83D30DBB2222B73D17B686B
:1041A0005B8D9BB2FB60FB68032B20D97B681B688F
:1041B0001A697B685B6AD2B21A707B685B6A5A1CA8
:1041C0007B685A627B685B8D9BB2013B9AB27B68CD
:1041D0005A857B685B8D9BB2032B54D17B681B682F
:1041E0005A687B681B6822F480625A604BE07B68E7
:1041F000DB6A022B47D0FB68012B02D0FB68002B47
:1042000041D17B681B681A687B681B6822F4806256
:104210001A607B681B685A687B681B6822F4E0623E
:104220005A607B681B681A697B685B6AD2B21A7035
:104230007B685B6A5A1C7B685A627B685B8D9BB2A9
:10424000013B9AB27B685A857B68202283F83D2027
:104250007B6893F83E30DBB2402B0AD17B680022AA
:1042600083F83E207B6800221A637868FFF704FE1B
:1042700009E07B68002283F83E207B6812221A63E3
:104280007868FFF7BFFD00BF1037BD4680BD80B521
:1042900084B000AF78607B68DB6AFB607B685B8D15
:1042A0009BB2042B1BD17B681B685A687B681B6818
:1042B00022F480625A607B681B681A697B685B6ABB
:1042C000D2B21A707B685B6A5A1C7B685A627B6840
:1042D0005B8D9BB2013B9AB27B685A85BDE07B68DF
:1042E0005B8D9BB2032B29D17B681B685A687B6866
:1042F0001B6822F480625A60FB68042B0AD0FB68BA
:10430000022B07D07B681B681A687B681B6822F445
:1043100080621A607B681B681A697B685B6AD2B22C
:104320001A707B685B6A5A1C7B685A627B685B8D7B
:104330009BB2013B9AB27B685A858EE07B685B8DAD
:104340009BB2022B76D1FB68012B02D0FB68102BAD
:1043500008D17B681B681A687B681B6822F480623E
:104360001A6019E0FB68042B02D0FB68022B08D10D
:104370007B681B681A687B681B6842F480621A605D
:104380000AE0FB68102B07D07B681B681A687B6803
:104390001B6842F400721A607B681B681A697B68AC
:1043A0005B6AD2B21A707B685B6A5A1C7B685A627D
:1043B0007B685B8D9BB2013B9AB27B685A857B68B8
:1043C0001B681A697B685B6AD2B21A707B685B6A89
:1043D0005A1C7B685A627B685B8D9BB2013B9AB228
:1043E0007B685A857B681B685A687B681B6822F467
:1043F00040725A607B68202283F83D207B6893F8E6
:104400003E30DBB2402B0AD17B68002283F83E208D
:104410007B6800221A637868FFF72EFD1DE07B6839
:10442000002283F83E207B6812221A637868FFF727
:10443000E9FC12E07B681B681A697B685B6AD2B290
:104440001A707B685B6A5A1C7B685A627B685B8D5A
:104450009BB2013B9AB27B685A8500BF1037BD46BC
:1044600080BD80B483B000AF78607B6893F83E3045
:10447000DBB2402B17D17B681B6D002B09D17B6809
:104480005B6CDBB21A467B681B6802F0FE021A61A5
:1044900067E07B685B6CDBB243F00103DAB27B68F8
:1044A0001B681A615DE07B681B69B3F5804F33D1EF
:1044B0007B6893F83D30DBB2212B09D17B685B6CC4
:1044C000DBB21A467B681B6802F0FE021A6108E044
:1044D0007B685B6CDBB243F00103DAB27B681B687C
:1044E0001A617B685B6B002B03D17B689B6B002B95
:1044F00037D07B685B6B9B6A002B04D17B689B6B1E
:104500009B6A002B2DD07B681B685A687B681B68F0
:1045100042F400625A6024E07B681B6D002B0ED1D0
:104520007B685B6C9BB2DB11DBB203F00603DBB292
:1045300063F00F03DAB27B681B681A6111E07B68D5
:104540001B6D012B0DD17B685B6C9BB2DB11DBB269
:1045500003F00603DBB263F00E03DAB27B681B687C
:104560001A6100BF0C37BD4680BC704780B483B071
:1045700000AF78607B685B6CDAB27B681B681A619D
:104580007B685B6B002B03D17B689B6B002B11D08E
:104590007B685B6B9B6A002B04D17B689B6B9B6A7F
:1045A000002B07D07B681B685A687B681B6842F445
:1045B00000625A6000BF0C37BD4680BC704780B4B3
:1045C00091B000AF78607B6893F83E3087F83F3059
:1045D0007B68DB6ABB637B681B6B7B637B6893F8E0
:1045E0003D30DBB2222B40F074817B681B6D002BC9
:1045F0000FD197F83F30402B0BD100233B637B68F2
:104600001B685B693B637B681B689B693B633B6B17
:104610006BE17B681B6D002B1DD17B681B69B3F5BB
:10462000404F18D10023FB627B681B685B69FB620B
:104630007B681B689B69FB62FB6A7B681B681A6866
:104640007B681B6842F480721A607B681B6D5A1C81
:104650007B681A6549E17B685B8D9BB2002B13D1A7
:104660000023BB627B681B685B69BB627B681B685D
:104670009B69BB62BB6A7B681B681A687B681B68A6
:1046800042F400721A6020E17B685B8D9BB2012BC3
:1046900040F08A80BB6B13F5803F37D17B681B6885
:1046A0001A687B681B6822F480621A607B681B684A
:1046B0005B6803F40063B3F5006F13D17B681B687C
:1046C0001A687B681B6822F480621A6000237B6290
:1046D0007B681B685B697B627B681B689B697B628C
:1046E0007B6AF2E000233B627B681B685B693B628C
:1046F0007B681B689B693B623B6A7B681B681A6826
:104700007B681B6842F400721A60DEE0BB6B082B0A
:104710002ED0BB6B202B2BD07B6B122B02D1BB6B13
:10472000012B25D1BB6B042B0ED0BB6B022B0BD006
:10473000BB6B102B08D07B681B681A687B681B68F2
:1047400022F480621A6007E07B681B681A687B6845
:104750001B6842F480621A600023FB617B681B685F
:104760005B69FB617B681B689B69FB61FB69ACE073
:104770007B681B681A687B681B6822F480621A6079
:104780000023BB617B681B685B69BB617B681B683E
:104790009B69BB61BB697B681B681A687B681B6887
:1047A00042F400721A6090E07B685B8D9BB2022B32
:1047B00058D1BB6B042B21D0BB6B022B1ED0BB6B23
:1047C000102B1BD07B681B681A687B681B6842F43F
:1047D00000621A6000237B617B681B685B697B61F8
:1047E0007B681B689B697B617B697B681B681A68B7
:1047F0007B681B6822F480621A6012E07B681B6889
:104800001A687B681B6842F480621A6000233B616F
:104810007B681B685B693B617B681B689B693B61CC
:104820003B697B681B685B6803F40063B3F5006F4A
:104830004BD1BB6B13F5803F0BD0BB6B012B08D06A
:10484000BB6B082B05D0BB6B102B02D0BB6B202B96
:104850003BD17B681B685A687B681B6842F48052B6
:104860005A6032E07B681B681A687B681B6842F4F8
:1048700080621A607B681B685B6803F40063B3F5B1
:10488000006F17D1BB6B13F5803F0BD0BB6B012BB7
:1048900008D0BB6B082B05D0BB6B102B02D0BB6BB9
:1048A000202B07D17B681B685A687B681B6842F421
:1048B00080525A600023FB607B681B685B69FB6069
:1048C0007B681B689B69FB60FB687B6800221A653C
:1048D0000BE00023BB607B681B685B69BB607B6887
:1048E0001B689B69BB60BB68FFE700BF4437BD46E0
:1048F00080BC704780B584B000AF78607B6893F867
:104900003D30FB737B685B8D9BB2002B2BD07B68AB
:104910005B6A1A787B681B681A617B685B6A5A1C41
:104920007B685A627B685B8D9BB2013B9AB27B6865
:104930005A857B685B8D9BB2002B14D1FB7B292BA6
:1049400011D17B681B685A687B681B6822F48062FF
:104950005A607B6821221A637B68282283F83D20F5
:104960007868FFF758FA00BF1037BD4680BD80B4A5
:1049700083B000AF78607B685B8D9BB2002B11D059
:104980007B685B6A1A787B681B681A617B685B6A64
:104990005A1C7B685A627B685B8D9BB2013B9AB262
:1049A0007B685A8500BF0C37BD4680BC704780B518
:1049B00084B000AF78607B6893F83D30FB737B6810
:1049C0005B8D9BB2002B2CD07B681B681A697B68BF
:1049D0005B6AD2B21A707B685B6A5A1C7B685A6247
:1049E0007B685B8D9BB2013B9AB27B685A857B6882
:1049F0005B8D9BB2002B14D1FB7B2A2B11D17B68E2
:104A00001B685A687B681B6822F480625A607B6866
:104A100022221A637B68282283F83D207868FFF7FA
:104A200003FA00BF1037BD4680BD80B483B000AF2D
:104A300078607B685B8D9BB2002B12D07B681B6813
:104A40001A697B685B6AD2B21A707B685B6A5A1C0F
:104A50007B685A627B685B8D9BB2013B9AB27B6834
:104A60005A8500BF0C37BD4680BC704780B584B006
:104A700000AF786039600023FB737B6893F83D30AA
:104A8000DBB203F02803282B27D17B681B685A6808
:104A90007B681B6822F480625A603B689B0803F0C5
:104AA0000103002B01D10123FB733B68DB0903F0F9
:104AB0000103002B03D17B68DB68BB8102E07B68CC
:104AC0009B69BB817B68002283F83C20BA89FB7B11
:104AD00019467868FFF7B1F908E07B681B686FF04A
:104AE00002025A617B68002283F83C2000BF103725
:104AF000BD4680BD80B584B000AF78607B6893F818
:104B00003D30FB737B681B685A687B681B6822F426
:104B1000E0625A600023BB607B681B685B69BB6016
:104B20007B681B681A687B681B6842F001021A6088
:104B3000BB687B681B681A687B681B6822F480620C
:104B40001A607B681B685B6803F40063B3F5006F51
:104B500072D1FB7B222B02D0FB7B2A2B35D17B68C9
:104B60009B6B1B685B689AB27B685A857B685B8D20
:104B70009BB2002B05D07B681B6C43F004027B6862
:104B80001A647B681B685A687B681B6822F40062A1
:104B90005A607B689B6B1846FEF7BCFA0346012BF4
:104BA00049D07B689B6B694A5A637B689B6B18464C
:104BB000FEF734F90346002B3DD07B689B6B5B6BA3
:104BC0007A68926B1046984735E07B685B6B1B6890
:104BD0005B689AB27B685A857B685B8D9BB2002BC1
:104BE00005D07B681B6C43F004027B681A647B6809
:104BF0001B685A687B681B6822F400625A607B68F5
:104C00005B6B1846FEF786FA0346012B14D07B68CF
:104C10005B6B4E4A5A637B685B6B1846FEF7FEF887
:104C20000346002B08D07B685B6B5B6B7A68526B2A
:104C30001046984700E000BF7B685B8D9BB2002B5D
:104C40003ED07B681B685B6903F00403042B12D120
:104C50007B681B681A697B685B6AD2B21A707B68D2
:104C60005B6A5A1C7B685A627B685B8D9BB2013B16
:104C70009AB27B685A857B681B685B6903F04003C6
:104C8000402B12D17B681B681A697B685B6AD2B2C1
:104C90001A707B685B6A5A1C7B685A627B685B8D02
:104CA0009BB2013B9AB27B685A857B685B8D9BB255
:104CB000002B05D07B681B6C43F004027B681A64F0
:104CC0007B681B6C002B03D0786800F0B3F839E0E8
:104CD000FB7B2A2B09D17B6800221A637B68282280
:104CE00083F83D207868FFF79FF87B6893F83D30A4
:104CF000DBB2282B11D17B68154ADA627B6800226F
:104D00001A637B68202283F83D207B68002283F8A9
:104D10003E207868FFF79EF814E07B681B6B222B1F
:104D200002D0FB7B222B0DD17B6800221A637B68AB
:104D3000202283F83D207B68002283F83E2078689B
:104D4000FFF772F800BF1037BD4680BD6150000804
:104D50000000FFFF80B584B000AF78607B6893F8F7
:104D60003D30FB737B68DB6ABB60BB68082B02D0FD
:104D7000BB68202B29D1FB7B282B26D17B682C4AB2
:104D8000DA627B681B685A687B681B6822F4E06201
:104D90005A607B681B686FF480625A617B681B688D
:104DA0001A687B681B6822F480621A607B680022A4
:104DB0001A637B68202283F83D207B68002283F8F9
:104DC0003E207868FFF746F82EE0FB7B212B26D1AA
:104DD0007B68174ADA627B6821221A637B6820228B
:104DE00083F83D207B68002283F83E207B681B68A7
:104DF0005A687B681B6822F4E0625A607B681B6813
:104E00006FF480625A617B681B681A687B681B6854
:104E100022F480621A607868FEF7FDFF04E07B6888
:104E20001B686FF480625A6100BF1037BD4680BDB9
:104E30000000FFFF80B584B000AF78607B6893F816
:104E40003D30FB737B6893F83E30DBB2102B0AD108
:104E5000FB7B222B07D17B681B681A687B681B6869
:104E600022F400621A60FB7B03F02803282B07D191
:104E70007B6800221A637B68282283F83D2015E0B6
:104E80007B681B685B6803F40063B3F5006F06D0B2
:104E9000FB7B602B03D07B68202283F83D207B685E
:104EA00000221A637B68002283F83E207B681B681F
:104EB0005B6803F40063B3F5006F61D17B681B6826
:104EC0005A687B681B6822F400625A607B685B6BDF
:104ED00093F82130012B20D07B685B6B5E4A5A63CC
:104EE0007B685B6B1846FDF799FF0346002B00F0CB
:104EF00089807B681B681A687B681B6822F0010246
:104F00001A607B68202283F83D207B685B6B5B6BBB
:104F10007A68526B1046984774E07B689B6B4E4AE8
:104F20005A637B689B6B1846FDF778FF0346002B9E
:104F300068D07B681B685B6903F04003402B0BD192
:104F40007B681B681A697B685B6AD2B21A707B68DF
:104F50005B6A5A1C7B685A627B681B681A687B68AC
:104F60001B6822F001021A607B68202283F83D2032
:104F70007B689B6B5B6B7A68926B1046984741E04D
:104F80007B6893F83D30DBB2602B25D17B68202213
:104F900083F83D207B6800221A647B681B685B698C
:104FA00003F04003402B0BD17B681B681A697B68B8
:104FB0005B6AD2B21A707B685B6A5A1C7B685A6261
:104FC0007B681B681A687B681B6822F001021A6004
:104FD0007868FEF763FF15E07B681B685B6903F088
:104FE0004003402B0BD17B681B681A697B685B6AA6
:104FF000D2B21A707B685B6A5A1C7B685A62786806
:10500000FEF743FF7B6893F83D30FB737B681B6CB6
:1050100003F00403042B1BD1FB7B282B18D17B68E6
:105020001B685A687B681B6822F4E0625A607B68E0
:105030000A4ADA627B6800221A637B68202283F8BE
:105040003D207B68002283F83E207868FEF702FF4F
:1050500000BF1037BD4680BD615000080000FFFF53
:1050600080B584B000AF78607B685B6AFB60FB68EA
:1050700093F83D30FB72FB685B6B00229A62FB6821
:105080009B6B00229A62FB681B681A68FB681B68AE
:1050900022F480621A60FB6800225A85FB685B6B11
:1050A00000225A63FB689B6B00225A63FB681B68F3
:1050B0001A68FB681B6822F001021A60FB6893F80B
:1050C0003D30DBB2602B0ED1FB68202283F83D20FF
:1050D000FB68002283F83E20FB6800221A64F8680F
:1050E000FEF7DCFE27E0FB7A03F02803282B17D11C
:1050F000FB681B681A68FB681B6842F001021A60B3
:10510000FB681B681A68FB681B6842F480621A60BF
:10511000FB6800221A63FB68282283F83D2007E021
:10512000FB68202283F83D20FB68002283F83E20A4
:10513000F868FEF7AAFE00BF1037BD4680BD80B4F8
:1051400083B000AF78607B68DB6AB3F52A0F03D1C8
:105150007B680122DA6207E07B68DB6AB3F12A4FE1
:1051600002D17B680822DA6200BF0C37BD4680BCE2
:105170007047000080B400AF034B01221A6000BFEB
:10518000BD4680BC704700BF20000E4280B586B08F
:1051900000AF78607B68002B01D101235CE37B6862
:1051A0001B68002B1CD07B681B6803F00103002BDD
:1051B00016D17B681B6803F00203002B10D17B68BB
:1051C0001B6803F00803002B0AD17B681B6803F0FF
:1051D0000403002B04D140F26711A548FCF70AFB39
:1051E0007B681B6803F00103002B00F09A807B684A
:1051F0005B68002B0ED07B685B68B3F5803F09D0FD
:105200007B685B68B3F5A02F04D040F26D1198481D
:10521000FCF7F0FA974B5B6803F00C03042B0CD0FF
:10522000944B5B6803F00C03082B12D1914B5B6825
:1052300003F48033B3F5803F0BD18E4B1B6803F42E
:105240000033002B6CD07B685B68002B68D1012396
:1052500002E37B685B68B3F5803F06D1854B1B6832
:10526000844A43F4803313602EE07B685B68002B34
:105270000CD1804B1B687F4A23F4803313607D4B35
:105280001B687C4A23F4802313601DE07B685B6805
:10529000B3F5A02F0CD1774B1B68764A43F48023DB
:1052A0001360744B1B68734A43F4803313600BE044
:1052B000704B1B686F4A23F4803313606D4B1B687F
:1052C0006C4A23F4802313607B685B68002B13D047
:1052D000FCF7ACFC386108E0FCF7A8FC02463B692F
:1052E000D31A642B01D90323B6E2624B1B6803F483
:1052F0000033002BF0D014E0FCF798FC386108E094
:10530000FCF794FC02463B69D31A642B01D90323B2
:10531000A2E2584B1B6803F40033002BF0D100E0ED
:1053200000BF7B681B6803F00203002B79D07B6809
:105330001B69002B08D07B681B69012B04D040F24D
:10534000A1114B48FCF756FA7B685B691F2B04D907
:105350004FF4D1714648FCF74DFA464B5B6803F0B9
:105360000C03002B0BD0434B5B6803F00C03082BA2
:105370001CD1404B5B6803F48033002B16D13D4BAE
:105380001B6803F00203002B05D07B681B69012B0F
:1053900001D0012360E2374B1B6823F0F8027B68E1
:1053A0005B69DB00334913430B603AE07B681B69A0
:1053B000002B20D0304B01221A60FCF737FC3861FB
:1053C00008E0FCF733FC02463B69D31A022B01D9F3
:1053D000032341E2274B1B6803F00203002BF0D0AC
:1053E000244B1B6823F0F8027B685B69DB002149D2
:1053F00013430B6015E0204B00221A60FCF716FCEB
:10540000386108E0FCF712FC02463B69D31A022B14
:1054100001D9032320E2174B1B6803F00203002B82
:10542000F0D17B681B6803F00803002B48D07B6831
:105430009B69002B08D07B689B69012B04D04FF43B
:10544000F1710B48FCF7D6F97B689B69002B21D0E2
:105450000A4B01221A60FCF7E9FB386110E0FCF707
:10546000E5FB02463B69D31A022B09D90323F3E17A
:105470009C72000800100240000042428004424238
:10548000674B5B6A03F00203002BE8D0012000F0B9
:1054900011FC15E0634B00221A60FCF7C7FB386172
:1054A00008E0FCF7C3FB02463B69D31A022B01D983
:1054B0000323D1E15A4B5B6A03F00203002BF0D1C6
:1054C0007B681B6803F00403002B00F0C0800023FE
:1054D000FB757B68DB68002B0CD07B68DB68012BDD
:1054E00008D07B68DB68052B04D040F211214E48C0
:1054F000FCF780F94A4BDB6903F08053002B0DD198
:10550000474BDB69464A43F08053D361444BDB6928
:1055100003F08053BB60BB680123FB75434B1B68E2
:1055200003F48073002B18D1404B1B683F4A43F4AF
:1055300080731360FCF77AFB386108E0FCF776FBB8
:1055400002463B69D31A642B01D9032384E1374B0C
:105550001B6803F48073002BF0D07B68DB68012BA1
:1055600006D12F4B1B6A2E4A43F0010313622DE034
:105570007B68DB68002B0CD1294B1B6A284A23F07F
:1055800001031362264B1B6A254A23F004031362AE
:105590001CE07B68DB68052B0CD1214B1B6A204A81
:1055A00043F0040313621E4B1B6A1D4A43F00103C0
:1055B00013620BE01A4B1B6A194A23F001031362B2
:1055C000174B1B6A164A23F0040313627B68DB68DF
:1055D000002B15D0FCF72AFB38610AE0FCF726FB0C
:1055E00002463B69D31A41F28832934201D9032320
:1055F00032E10B4B1B6A03F00203002BEED01DE0DF
:10560000FCF714FB386113E0FCF710FB02463B6922
:10561000D31A41F2883293420AD903231CE100BF16
:1056200000100240800442429C720008007000405A
:105630008B4B1B6A03F00203002BE5D1FB7D012B92
:1056400005D1874BDB69864A23F08053D3617B68A1
:10565000DB69002B0CD07B68DB69012B08D07B68F1
:10566000DB69022B04D040F2AF217E48FCF7C2F880
:105670007B68DB69002B00F0EE80794B5B6803F000
:105680000C03082B00F0CE807B68DB69022B40F016
:10569000B2807B681B6A002B09D07B681B6AB3F55C
:1056A000803F04D04FF42E716E48FCF7A3F87B685E
:1056B0005B6A002B4AD07B685B6AB3F5802F45D0CC
:1056C0007B685B6AB3F5002F40D07B685B6AB3F5FB
:1056D000402F3BD07B685B6AB3F5801F36D07B6878
:1056E0005B6AB3F5A01F31D07B685B6AB3F5C01F5E
:1056F0002CD07B685B6AB3F5E01F27D07B685B6AC0
:10570000B3F5001F22D07B685B6AB3F5101F1DD074
:105710007B685B6AB3F5201F18D07B685B6AB3F5C2
:10572000301F13D07B685B6AB3F5401F0ED07B68D7
:105730005B6AB3F5501F09D07B685B6AB3F5601FE5
:1057400004D040F2B9214748FCF754F8464B0022F8
:105750001A60FCF76BFA386108E0FCF767FA02465A
:105760003B69D31A022B01D9032375E03C4B1B681C
:1057700003F00073002BF0D17B681B6AB3F5803F08
:1057800016D17B689B68002B09D07B689B68B3F5BA
:10579000003F04D040F2CF213248FCF72BF8304BC9
:1057A0005B6823F400327B689B682D4913434B6090
:1057B0002B4B5B6823F474127B68196A7B685B6A05
:1057C0000B43274913434B60274B01221A60FCF718
:1057D0002DFA386108E0FCF729FA02463B69D31A32
:1057E000022B01D9032337E01D4B1B6803F0007324
:1057F000002BF0D02FE01C4B00221A60FCF716FAA9
:10580000386108E0FCF712FA02463B69D31A022B12
:1058100001D9032320E0124B1B6803F00073002B17
:10582000F0D118E07B68DB69012B01D1012313E083
:105830000B4B5B68FB60FB6803F480327B681B6A80
:105840009A4206D1FB6803F470127B685B6A9A4245
:1058500001D0012300E0002318461837BD4680BD63
:10586000001002409C7200086000424280B584B083
:1058700000AF786039607B68002B01D1012376E1AD
:105880007B681B6803F00103002B16D17B681B6843
:1058900003F00203002B10D17B681B6803F00403A4
:1058A000002B0AD17B681B6803F00803002B04D18E
:1058B0004FF44E717448FBF79DFF3B68002B0AD0F4
:1058C0003B68012B07D03B68022B04D040F23931F2
:1058D0006D48FBF78FFF6D4B1B6803F007033A68B9
:1058E0009A4210D9694B1B6823F0070267493B684D
:1058F00013430B60654B1B6803F007033A689A4239
:1059000001D0012333E17B681B6803F00203002B05
:1059100049D07B681B6803F00403002B05D05C4B67
:105920005B685B4A43F4E06353607B681B6803F089
:105930000803002B05D0564B5B68554A43F460536F
:1059400053607B689B68002B24D07B689B68802B0E
:1059500020D07B689B68902B1CD07B689B68A02B19
:1059600018D07B689B68B02B14D07B689B68C02BD9
:1059700010D07B689B68D02B0CD07B689B68E02B99
:1059800008D07B689B68F02B04D040F25F313E4822
:10599000FBF730FF3E4B5B6823F0F0027B689B68AF
:1059A0003B4913434B607B681B6803F00103002BEA
:1059B00051D07B685B68002B0CD07B685B68012B47
:1059C00008D07B685B68022B04D040F266312E4819
:1059D000FBF710FF7B685B68012B07D12C4B1B6822
:1059E00003F40033002B15D10123C0E07B685B6812
:1059F000022B07D1264B1B6803F00073002B09D143
:105A00000123B4E0224B1B6803F00203002B01D1F9
:105A10000123ACE01E4B5B6823F003027B685B68EC
:105A20001B4913434B60FCF701F9F8600AE0FCF7EF
:105A3000FDF80246FB68D31A41F28832934201D93D
:105A4000032394E0124B5B6803F00C027B685B68F5
:105A50009B009A42EBD10D4B1B6803F007033A6899
:105A60009A4217D2094B1B6823F0070207493B688B
:105A700013430B60054B1B6803F007033A689A4217
:105A800008D0012373E000BF9C7200080020024090
:105A9000001002407B681B6803F00403002B25D034
:105AA0007B68DB68002B18D07B68DB68B3F5806F00
:105AB00013D07B68DB68B3F5A06F0ED07B68DB6822
:105AC000B3F5C06F09D07B68DB68B3F5E06F04D035
:105AD0004FF469712848FBF78DFE284B5B6823F46F
