:020000040800F2
:10000000002800204D1800088D16000891160008E1
:10001000091700080B1700080D1700080000000062
:100020000000000000000000000000000F170008A2
:10003000111700080000000013170008151700082A
:100040009518000895180008951800081917000859
:10005000951800083517000895180008951800082D
:100060009518000895180008951800083917000819
:1000700095180008951800089518000895180008AC
:100080009518000845170008511700089518000832
:10009000951800089518000895180008951800088C
:1000A000951800089518000895180008951800087C
:1000B0009518000895180008000000005D1700085A
:1000C00069170008000000000000000095180008F3
:1000D00000000000951800089518000800000000B6
:1000E0009518000875170008951800080000000012
:1000F0000000000000000000000000000000000000
:0C01000000000000000000005FF808F1A3
:1001100010B5054C237833B9044B13B10448AFF341
:1001200000800123237010BD480200200000000061
:100130001C55000808B5034B1BB103490348AFF336
:10014000008008BD000000004C0200201C55000883
:10015000034613F8012B002AFBD1181A0138704707
:1001600081F0004102E000BF83F0004330B54FEA68
:1001700041044FEA430594EA050F08BF90EA020FD5
:100180001FBF54EA000C55EA020C7FEA645C7FEA68
:10019000655C00F0E2804FEA5454D4EB5555B8BF8B
:1001A0006D420CDD2C4480EA020281EA030382EAFC
:1001B000000083EA010180EA020281EA0303362D8E
:1001C00088BF30BD11F0004F4FEA01314FF4801C61
:1001D0004CEA113102D0404261EB410113F0004F73
:1001E0004FEA03334CEA133302D0524263EB43032A
:1001F00094EA050F00F0A780A4F10104D5F1200EC8
:100200000DDB02FA0EFC22FA05F2801841F1000122
:1002100003FA0EF2801843FA05F359410EE0A5F1F6
:1002200020050EF1200E012A03FA0EFC28BF4CF027
:10023000020C43FA05F3C01851EBE37101F00045DD
:1002400007D54FF0000EDCF1000C7EEB00006EEBEA
:100250000101B1F5801F1BD3B1F5001F0CD3490874
:100260005FEA30004FEA3C0C04F101044FEA4452CB
:1002700012F5800F80F09A80BCF1004F08BF5FEA52
:10028000500C50F1000041EB045141EA050130BD32
:100290005FEA4C0C404141EB010111F4801FA4F1D5
:1002A0000104E9D191F0000F04BF01460020B1FA2A
:1002B00081F308BF2033A3F10B03B3F120020CDA62
:1002C0000C3208DD02F1140CC2F10C0201FA0CF040
:1002D00021FA02F10CE002F11402D8BFC2F1200CA5
:1002E00001FA02F120FA0CFCDCBF41EA0C0190405B
:1002F000E41AA2BF01EB0451294330BD6FEA0404A4
:100300001F3C1CDA0C340EDC04F11404C4F120028E
:1003100020FA04F001FA02F340EA030021FA04F3A0
:1003200045EA030130BDC4F10C04C4F1200220FAF7
:1003300002F001FA04F340EA0300294630BD21FA35
:1003400004F0294630BD94F0000F83F4801306BFFB
:1003500081F480110134013D4EE77FEA645C18BFEF
:100360007FEA655C29D094EA050F08BF90EA020F86
:1003700005D054EA000C04BF1946104630BD91EA7E
:10038000030F1EBF0021002030BD5FEA545C05D181
:100390004000494128BF41F0004130BD14F58004C0
:1003A0003CBF01F5801130BD01F0004545F0FE4134
:1003B00041F470014FF0000030BD7FEA645C1ABF69
:1003C000194610467FEA655C1CBF0B46024650EAA0
:1003D000013406BF52EA033591EA030F41F40021CC
:1003E00030BD00BF90F0000F04BF0021704730B552
:1003F0004FF4806404F132044FF000054FF0000127
:1004000050E700BF90F0000F04BF0021704730B5E7
:100410004FF4806404F1320410F0004548BF4042BC
:100420004FF000013EE700BF42004FEAE2014FEA11
:1004300031014FEA02701FBF12F07F4393F07F4FEC
:1004400081F06051704732F07F4208BF704793F0EF
:100450007F4F04BF41F40021704730B54FF4607402
:1004600001F0004521F000411CE700BF50EA010205
:1004700008BF704730B54FF000050AE050EA0102AE
:1004800008BF704730B511F0004502D5404261EB1E
:1004900041014FF4806404F132045FEA915C3FF45F
:1004A000D8AE4FF003025FEADC0C18BF03325FEAFC
:1004B000DC0C18BF033202EBDC02C2F1200300FAAD
:1004C00003FC20FA02F001FA03FE40EA0E0021FAD2
:1004D00002F11444BDE600BF4FF0FF3C06E000BF50
:1004E0004FF0010C02E000BF4FF0010C4DF804CDBD
:1004F0004FEA410C7FEA6C5C4FEA430C18BF7FEA7D
:100500006C5C1BD001B050EA410C0CBF52EA430CAA
:1005100091EA030F02BF90EA020F0020704710F12A
:10052000000F91EA030F58BF994208BF90422CBFB9
:10053000D8176FEAE37040F0010070474FEA410CB2
:100540007FEA6C5C02D150EA013C07D14FEA430CD0
:100550007FEA6C5CD6D152EA033CD3D05DF8040B41
:10056000704700BF8446104662468C461946634673
:1005700000E000BF01B5FFF7B7FF002848BF10F14A
:10058000000F01BD4DF808EDFFF7F4FF0CBF01208F
:1005900000205DF808FB00BF4DF808EDFFF7EAFF0B
:1005A00034BF012000205DF808FB00BF4DF808EDC6
:1005B000FFF7E0FF94BF012000205DF808FB00BFBB
:1005C0004DF808EDFFF7CEFF94BF012000205DF845
:1005D00008FB00BF4DF808EDFFF7C4FF34BF012052
:1005E00000205DF808FB00BF1148124B30B5002415
:1005F000012503604FF4602385B0CDE901440394E5
:10060000846005730475C3614460056101F002FCF8
:1006100008B100F089FD062301A90548CDE901458F
:10062000039301F067FA08B100F07EFD05B030BD1C
:10063000700200200024014030B5054687B010222A
:10064000002102A804F080F92A68214B9A423DD18A
:1006500003F56C439A6902A942F400729A619A699F
:100660001C4802F400720092009A9A691A4C42F0F7
:1006700004029A619B693F2203F004030193019BEA
:100680000323CDE9022301F0F1FE80204FF48072B4
:100690000023C4E903024FF480621049A360C4E957
:1006A0000013C4E905234FF400532046E36101F031
:1006B0001BFD08B100F038FD00222C62122011460B
:1006C000656201F0A3FC122001F0E4FC07B030BD2C
:1006D0000024014000080140A00200200800024060
:1006E0000E4B07B55A690B2042F001025A610022F5
:1006F0005B69114603F001030193019B01F086FC45
:100700000B2001F0C7FC00221120114601F07EFCF5
:10071000112003B05DF804EB01F0BCBC00100240F6
:10072000031F343053F8042F92B283421A60F9D178
:10073000704700231A4610B5DCB2A14201D810461A
:1007400010BD50F823400133A24238BFA2B2F3E7F4
:10075000002310B50268DCB2A14201D8104610BDDA
:1007600050F823400133A24228BF2246F3E700237A
:100770001A4610B50133DCB2A14202D8B2FBF1F047
:1007800010BD50F823402244F4E7000000000000B0
:10079000012AF8B50546144617D0FFF7E8FFFFF722
:1007A00021FE1FA3D3E9002304460D46FFF712FFE5
:1007B00088BB1DA3D3E9002320462946FFF7ECFEA2
:1007C000041C18BF01242046F8BDFFF7B2FF40F615
:1007D000B6039842F7D82846FFF7BAFF40F24373B2
:1007E0009842F0D92846FFF7C2FFFFF7FBFD0CA3A4
:1007F000D3E9002306460F46FFF7ECFE0028E2D1BE
:1008000009A3D3E9002330463946FFF7C5FE002887
:1008100008BF0024D7E70124D5E700BFAFF300806D
:100820009A9999999999A140CDCCCCCCCCCC9C40AB
:100830000122002310B58A4207D9B3FBF1F0013839
:10084000442894BF0020012010BD50F822400132FE
:100850002344D2B2EFE710B50B7802789A4207D161
:1008600044784A78944203D180788A7890420AD0BA
:10087000182B0AD14B783C2B07D18B783C2B14BF1B
:100880000220032010BD0020FCE70220FAE7000050
:100890002DE9F84F0F460446D11C38469046FFF725
:1008A000DAFFCE4D002840F05D81CD4B187001235A
:1008B0002B7095F800B0BBF1010F2BD1DFF844A3EA
:1008C000C74E9AF800905FFA89F9B9F1020F00F06B
:1008D0005281B9F1030F00F06181B9F1010F40F0CD
:1008E000718100224FF40041BE4801F01BFF3378B4
:1008F00022789A420AD14A464FF40041B94801F0A1
:1009000011FF02238AF8003000233370337801335B
:10091000DBB2337008F106013846FFF79CFF002870
:1009200040F05381B04B187001236B7095F801B003
:10093000BBF1010F2BD1DFF8D0A2AB4E9AF800909B
:100940005FFA89F9B9F1020F00F06681B9F1030F7E
:1009500000F07581B9F1010F40F0858100224FF45C
:100960008061A24801F0DEFE3378E2789A420AD133
:100970004A464FF480619D4801F0D4FE02238AF874
:1009800000300023337033780133DBB2337008F169
:1009900009013846FFF75FFF002840F06781012317
:1009A000934AAB70107095F802B0BBF1010F29D1DA
:1009B000DFF858A28E4E9AF800905FFA89F9B9F1E3
:1009C000020F00F05B81B9F1030F00F06A81B9F109
:1009D000010F40F07A8100220421824801F0A2FE3A
:1009E0003378A2799A4209D14A4604217D4801F020
:1009F00099FE02238AF800300023337033780133E4
:100A0000DBB2337008F10C013846FFF724FF0028F1
:100A100040F05E81774B18700123EB7095F803B0BE
:100A2000BBF1010F29D1DFF8E8A1724E9AF80090CE
:100A30005FFA89F9B9F1020F00F05381B9F1030FA0
:100A400000F06081B9F1010F40F06E8100220821B1
:100A5000644801F067FE3378627A9A4209D14A46C7
:100A60000821604801F05EFE02238AF8003000236E
:100A7000337033780133DBB2337008F10F0138463D
:100A8000FFF7E9FE002840F052815B4B187001230C
:100A90002B7195F804B0BBF1010F2BD1DFF874A1D5
:100AA000554E9AF800905FFA89F9B9F1020F00F0FB
:100AB0004781B9F1030F00F05681B9F1010F40F001
:100AC000668100224FF48071464801F02BFE337896
:100AD000227B9A420AD14A464FF48071414801F084
:100AE00021FE02238AF8003000233370337801336B
:100AF000DBB2337008F112013846FFF7ACFE002874
:100B000040F048813D4B187001236B7195F80580CA
:100B1000B8F1010F24D13A4F384D3E78F6B2022E8B
:100B200000F04181032E00F05181012E40F06081E0
:100B300000224FF400512B4801F0F4FD2B78E27BAA
:100B40009A4209D132464FF40051264801F0EAFD9D
:100B500002233B7000232B702B780133DBB22B7008
:100B6000BDE8F88F03287FF4A4AE002301202B708A
:100B700000F0D0F99DE600224FF480711B4801F08F
:100B8000D1FD337862789A427FF4C0AE5A464FF472
:100B90008071164801F0C6FD0323B3E600224FF42E
:100BA0000071124801F0BEFD3378A2789A427FF4BA
:100BB000ADAE5A464FF400710C4801F0B3FD8AF80F
:100BC00000B0A1E600F0B0FAA0E603287FF4AEAED4
:100BD000002302206B7000F09DF9A7E6E4020020DC
:100BE00000000020000C014001000020000801402E
:100BF0000200002003000020040000200500002067
:100C00000B00002006000020070000200800002044
:100C1000090000200A00002000224FF400617648FD
:100C200001F080FD337822799A427FF4ACAE5A46C7
:100C30004FF40061704801F075FD03239FE6002228
:100C40004FF480516C4801F06DFD337862799A421F
:100C50007FF499AE5A464FF48051674801F062FD27
:100C60008AF800B08DE600F05FFA8CE603287FF486
:100C70009AAE0023AB7000F04DF994E600224FF4D9
:100C800080515E4801F04EFD3378E2799A427FF45C
:100C9000B5AE5A464FF48051584801F043FD032346
:100CA000A8E600224FF40041534801F03BFD3378A1
:100CB000227A9A427FF4A2AE5A464FF400414E483F
:100CC00001F030FD8AF800B096E600F02DFA95E6C6
:100CD00003287FF4A3AE00230420EB7000F01AF980
:100CE0009CE600221021454801F01CFD3378A27AD1
:100CF0009A427FF4BEAE5A461021404801F012FDE0
:100D00000323B2E6002220213C4801F00BFD33789A
:100D1000E27A9A427FF4ADAE5A462021374801F07C
:100D200001FD8AF800B0A2E600F0FEF9A1E6032872
:100D30007FF4AFAE002305202B7100F0EBF8A8E69E
:100D400000224FF400712D4801F0ECFC3378627BF7
:100D50009A427FF4CBAE5A464FF40071274801F017
:100D6000E1FC0323BEE600224FF48061234801F03A
:100D7000D9FC3378A27B9A427FF4B8AE5A464FF43E
:100D800080611E4801F0CEFC8AF800B0ACE600F0AD
:100D9000CBF9ABE603287FF4B9AE002306206B71D4
:100DA00000F0B8F8B2E600224FF48041134801F099
:100DB000B9FC2B78227C9A427FF4CEAE42464FF4A7
:100DC00080410E4801F0AEFC0323C2E600228021E0
:100DD000094801F0A7FC2B78627C9A427FF4BCAEF4
:100DE00042468021044801F09DFC87F80080B1E66E
:100DF00000F09AF9B0E600BF00080140000C014085
:100E000010222DE9F04389B00DEB0200002103F020
:100E10009BFD3A4B3A4E9A693A4D42F010029A6164
:100E20009A69304602F010020092009A9A6949F6D7
:100E3000807142F020029A619A69032402F0200234
:100E40000192019A9A694FF0010942F004029A61F5
:100E50009A694FF0000802F004020292029A9A691D
:100E6000022742F008029A619B69002203F00803FE
:100E70000393039B01F056FC002228464FF23F717A
:100E800001F050FC4FF4005304A91F48CDE904348D
:100E900001F0ECFA04A91D48CDE9044401F0E6FA9A
:100EA000402304A93046CDE9043401F0DFFA49F6C5
:100EB000807304A93046CDE90439CDE9068701F0F5
:100EC000D5FA4FF23F7304A92846CDE90439CDE99C
:100ED000068701F0CBFA4FF4006304A92846CDE958
:100EE000043401F0C3FA0A4A536843F0E06343F460
:100EF0000043536009B0BDE8F08300BF001002401A
:100F000000080140000C01400010014000140140A5
:100F100000000140013808B5052832D8DFE800F0AC
:100F2000030E121C232701224FF40041154801F043
:100F3000F9FB01224FF44071134810E001224FF4F5
:100F4000E051F9E7012241F204010E4801F0EAFB09
:100F500001224FF40041EFE7012238210948BDE8A2
:100F6000084001F0DFBB01224FF4E061F6E7012207
:100F70004FF4C041034801F0D5FB01224FF4C0718A
:100F8000DAE708BD000C01400008014008B50C4834
:100F90000C4A0D4BC0E9002300234422C0E9023271
:100FA0004FF48042C0E90633C0E90423036201F034
:100FB0005FFC18B1BDE8084000F0B6B808BD00BF3E
:100FC000EC02002000540040A086010030B5054628
:100FD00087B01022002102A803F0B6FC2A68244B37
:100FE0009A4242D1234CC022A369012143F0080355
:100FF000A361A369204803F008030093009B122318
:10100000CDE902230323CDE9041302A901F02EFA4E
:10101000E369802243F40013E361E369174803F4B2
:1010200000130193019B0023154CC4E900032046E3
:10103000A360C4E90323C4E90533E36101F054F874
:1010400008B100F071F800221F201146AC63656200
:1010500000F0DCFF1F2001F01DF8002220201146C7
:1010600000F0D4FF202001F015F807B030BD00BF1C
:101070000054004000100240000C0140800002407B
:1010800040030020164B1A68164B1A60164B1A685C
:10109000164B1A60164B1A68164B1A60164B1A68D4
:1010A000164B1A60164B1A68164B1A60164B1A68C4
:1010B000164B1A60EFF30582154B1A60EFF311829D
:1010C000144B1A60EFF31082134B1A60EFF3138284
:1010D000124B1A60EFF30582114B1A60704700BF84
:1010E00028ED00E0D40300202CED00E024040020D3
:1010F00030ED00E0300400203CED00E02C04002046
:1011000034ED00E02004002038ED00E088030020EA
:10111000180400200C04002028040020D003002024
:101120009003002000BF704700220221014801F017
:10113000F9BA00BF000C014010B594B02422002180
:101140000BA803F001FC1422102400210DEB020077
:1011500003F0FAFB2246002101A803F0F5FB062369
:101160000A9301230AA8CDE90D330F9402F0EAFA9D
:1011700008B1FFF7D9FF0F230021CDE905314FF466
:10118000E06305A8CDE90711099302F023FD08B13A
:10119000FFF7CAFF4FF480730322CDE901234FF418
:1011A000404301A8039302F029FE08B1FFF7BCFFFA
:1011B00014B010BD08B5FFF765FF03210422062017
:1011C000274B284C59709A7019715A71D9711A723B
:1011D0009972DA7259739A7319745A741870D870B4
:1011E000987158721873D87300F07AFBFFF7A4FF58
:1011F000FFF706FEFFF774FAFFF7F6F9FFF7C6FEF2
:1012000000F0B4F9012249F68071174801F08AFA1A
:1012100001224FF23F71154801F084FA1448FFF79C
:10122000D5FE144B124D1A68134E136843F0010398
:101230001360124A536823F0100353604FF0FF33DA
:1012400019220849284601F013FC20B11423336009
:10125000FFF76AFFF2E7204600F0ECF8EEE700BF88
:101260000C0000202400002000080140000C014078
:10127000EC02002034040020200000200028004060
:1012800010B5044601220E4903F01CF801220D4955
:10129000204603F079F90C4A09490C48FFF7F8FA9F
:1012A0001A220B490B4800F003FD20B101220A4B22
:1012B0001A60FFF739FF0022084B1A7010BD00BFFB
:1012C0008C0300201C040020DB0300200C00002005
:1012D0009403002070020020200000201E00002047
:1012E0007FB500233B4ECDE90133039333780546A8
:1012F00001330D2138483370FFF712FA3378062B8B
:101300001CD8364A134413F8012C012A0AD10D21A6
:101310003148FFF73DFA38B10222314B1A60FFF72E
:1013200003FF01E0002AF2D03378013B062B42D8BC
:10133000DFE803F00F434547494B4D00072BF3D13E
:101340000D212548FFF774FA0028EDD0244B0C221C
:10135000E4E7012323480193234B012403604FF466
:1013600060220023047383600375C26143600461DB
:1013700000F050FD08B1FFF7D7FE062301A9194878
:101380000294039300F0B6FB20B10322144B1A60C1
:10139000FFF7CAFE2846FFF74FF93378062B0AD825
:1013A0001A220D490F4800F083FC20B104220C4B97
:1013B0001A60FFF7B9FE04B070BD0223CAE7032329
:1013C000C8E70423C6E70523C4E71023C2E70023C8
:1013D000C0E700BF1E00002094030020E4020020AC
:1013E0002000002070020020002401407047F0B56A
:1013F0000024E3B2C25C12B9FF231846F0BD0026F8
:10140000F2B28F5C9D18EDB22FB1425D0136BA4247
:10141000F6D00134EDE7002AFBD0EEE700230928DF
:1014200003D840EA0310C0B270470A380133C0B293
:10143000F5E70000002310B5044690B0CDE907336E
:10144000CDE90933CDE90B338DF81B300E938DF8C0
:101450003C300D939DF81B30032B15D90EA93E4847
:10146000FFF7C5FF8DF81B009DF81B30DBB20C2B7E
:1014700069D019D8042B1FD0082B62D0002B68D15B
:1014800001238DF81B305AE09DF81B209DF81B307E
:1014900010A9A25C0B4403F8082C9DF81B30013303
:1014A000DBB28DF81B30D5E7142B4ED0182B4ED065
:1014B000102B4ED10523E4E70CAB05930DAB049341
:1014C0000BAB03930AAB029309AB019308AB0EAAD3
:1014D00022490093204607AB03F03EFAC0B28DF8D4
:1014E0001B009DF81C00FFF799FF1D491D4C08705B
:1014F0009DF82000FFF792FF48709DF82400FFF749
:101500008DFF88709DF82800FFF788FFA0709DF878
:101510002C00FFF783FF60709DF83400FFF77EFF1B
:10152000E0709DF83000FFF779FF012220700E482F
:1015300002F032FE012221460B4802F083FF10B078
:1015400010BD03239DE704239BE7062399E70723A8
:1015500097E7192395E700BF4C000020605500086D
:10156000DB030020F00300203404002013B54FF00B
:10157000FF3300241348144AADF800408DF80240B0
:101580000194C0E90023846003F01EF908B1FFF75D
:10159000CBFD012269460B48ADF800408DF80240B2
:1015A00002F0FAFD08B1FFF7BFFD084B02A941F8B0
:1015B000043D0122034802F045FF08B1FFF7B4FDE6
:1015C00002B010BD340400200028004003010120B7
:1015D00007B5144B02689A4221D102F0ADF8124BC4
:1015E0000320DA6942F00062DA610122DB6903F06C
:1015F00000630193019B0D4B1A600022114600F01D
:1016000005FD032000F046FD00222920114600F0D0
:10161000FDFC292003B05DF804EB00F03BBD03B0F6
:101620005DF804FB00280040001002403C044242E8
:10163000144B07B59A69072042F001029A619A6932
:1016400002F001020092009ADA6942F08052DA61F7
:10165000DB6903F080530193019B00F0B9FC002289
:101660000520114600F0D2FC052000F013FD064ACB
:10167000536823F0E06343F00073536003B05DF8F8
:1016800004FB00BF00100240000001407047000052
:1016900000B58DB0FFF7F6FC144B1B680193144B9B
:1016A0001B680293134B1B680393134B1B68049333
:1016B000124B1B680593124B1B680693EFF30583CF
:1016C0000793EFF311830893EFF310830993EFF37C
:1016D00013830A93EFF305830A4C0B9320460121F1
:1016E00001F03AF8C82000F01FF9F7E728ED00E014
:1016F0002CED00E030ED00E03CED00E034ED00E0EA
:1017000038ED00E0000C0140FEE7FEE7FEE7704721
:101710007047704700F0F6B808B5044803F0CDF8FC
:10172000034A536823F01003536008BD34040020BB
:101730000028004070470000014800F0FFBD00BFD6
:10174000A0020020014800F0F9BD00BF40030020C6
:10175000014800F029B900BF70020020014801F0E3
:1017600029BB00BFEC020020014801F04BBF00BFC5
:10177000EC02002038B5114C114D204602F0F0FF6C
:10178000204602F0EDFF204603F002F82946012230
:10179000204602F097FD01220A49204602F0F4FE9D
:1017A00009492B7820460B706B7801224B70AB787F
:1017B00002338B70BDE8384002F01EBF34040020B5
:1017C0008C0300201C040020C803002008B50A4B2D
:1017D0000246196809B9094919606946186802443E
:1017E0008A4206D903F086F80C2303604FF0FF30DD
:1017F00008BD1A60FCE700BF64020020500400200E
:101800000F4B1A6842F001021A6059680D4A0A40EB
:101810005A601A6822F0847222F480321A601A68C0
:1018200022F480221A605A6822F4FE025A604FF4B1
:101830001F029A604FF00062034B9A60704700BF2E
:10184000001002400000FFF800ED00E0002103E07E
:101850000B4B5B58435004310A480B4B42189A42D9
:10186000F6D30A4A02E0002342F8043B084B9A42AE
:10187000F9D3FFF7C5FF03F043F8FFF79BFC704770
:10188000EC58000800000020480200204802002018
:1018900050040020FEE7000038B50E4B05461878CE
:1018A0004FF47A73B3FBF0F30B4A1068B0FBF3F01C
:1018B00000F004FC044658B90F2D09D80246294609
:1018C0004FF0FF3000F0A2FB2046044B1D6038BDF6
:1018D0000120FCE7700000206C0000207400002054
:1018E000074A08B51368032043F01003136000F0A3
:1018F0006FFB0020FFF7D0FFFFF79AFE002008BD26
:1019000000200240034A044B11681B780B4413600B
:10191000704700BF4804002070000020014B186889
:10192000704700BF4804002038B50446FFF7F6FFB3
:101930000546631C1EBF044B1B78E418FFF7EEFF3F
:10194000401BA042FAD338BD70000020436A10B596
:101950009A6A12F0500F1BD19A6A42F400729A628E
:101960001A68926802F46022B2F5602F0CD11A7BDB
:1019700052B99A6A22F480729A629A6AD2045EBF5D
:101980009A6A42F001029A621846FFF7A9FC10BD5C
:101990001B6ABDE810401B6B1847704708B5406ACA
:1019A000FFF7FBFF08BD70470368494A10B5934233
:1019B000044608D002F58062934204D040F2F161FF
:1019C0004448FFF713FD237B012B04D940F2F26159
:1019D0004048FFF70BFD2369013B0F2B04D940F270
:1019E000F3613C48FFF702FD23685A68900627D54B
:1019F0001A68910724D5A26AD2065EBFA26A42F491
:101A00000072A2629A6802F46022B2F5602F10D1CF
:101A1000227B72B95A6822F020025A60A36A23F42A
:101A20008073A362A36ADB045EBFA36A43F0010371
:101A3000A3622046FFF754FC6FF0120223681A607D
:101A400023685A68100630D51A6851072DD5A26A46
:101A5000D2065EBFA26A42F40052A2629A6802F401
:101A6000E042B2F5E04F0AD05A68500516D49A68A1
:101A700002F46022B2F5602F10D1227B72B95A684D
:101A800022F080025A60A36A23F48053A362A36AFF
:101A9000D9055EBFA36A43F00103A362204600F0AC
:101AA00095FA6FF00C0223681A6023685A68520690
:101AB0000DD51B68DB070AD5A36A204643F48033A3
:101AC000A362FFF770FF6FF0010223681A6010BD78
:101AD00000240140905500087047406A08B5836AA9
:101AE00043F040038362C36A43F00403C362FFF719
:101AF000F3FF08BD002373B54D4A01930368044604
:101B000093420D4608D002F58062934204D040F221
:101B1000CE714848FFF76AFC2B68112B04D940F2BC
:101B2000CF714448FFF762FC6B68013B0F2B04D96F
:101B30004FF4FA613F48FFF759FCAB68072B04D913
:101B400040F2D1713B48FFF751FC94F82430012B4F
:101B50006CD00123686884F824300628226800EBE2
:101B60008003296822D81F26506B053B9E4020EA3F
:101B7000060001FA03F3034353630929AB6801EB41
:101B800041004FF0070529D9D6681E38854026EA5E
:101B9000050583402B43D360A1F11003012B25D908
:101BA0000020002384F8243002B070BD0C284FF0D0
:101BB0001F0009D8166B233B984026EA000001FA63
:101BC00003F303431363D8E7D66A413B984026EA00
:101BD000000001FA03F30343D362CEE716698540A0
:101BE00026EA050583402B431361D5E7104B9A4243
:101BF00016D193681B02D3D49368102943F40003D1
:101C00009360CDD10C4B0D4A1B68B3FBF2F20A2353
:101C100053430193019B002BC2D0019B013BF8E78A
:101C2000A36A012043F02003A362BAE70220BBE7C6
:101C300000240140905500086C00002040420F0035
:101C4000002373B50193036804469A68D20702D54E
:101C5000002002B070BD9A6842F001029A60124BF7
:101C6000124A1B68B3FBF2F30193019BC3B9FFF760
:101C700055FE064623689D6815F00105E8D1FFF77B
:101C80004DFE801B0228F5D9A36A84F8245043F046
:101C90001003A362E36A012043F00103E362D8E783
:101CA000019B013BE0E700BF6C00002040420F00B9
:101CB000F8B51746404D02680446AA420E4604D0C5
:101CC00040F214613D48FFF791FB2368AB4202D01C
:101CD0003B4A934204D1384B5B6813F4702F67D1B1
:101CE00094F82430012B65D00123204684F8243059
:101CF000FFF7A6FF0546002856D1A36A216823F402
:101D0000706323F0010343F48073A3622C4B994268
:101D100004D1294A536813F4702F3FD1A36A23F4E6
:101D20008013A3624B685B0548BFA36A206A42BF69
:101D300023F4405343F48053A362A36A324613F45E
:101D4000805318BFE36A01F14C0118BF23F006036A
:101D5000E362002384F824301A4B83621A4BC36277
:101D60001A4B03636FF0020341F84C3C51F8443CBA
:101D700043F4807341F8443C3B4600F045FA236845
:101D80009A6802F46022B2F5602F9A680CBF42F4A0
:101D9000A00242F480129A602846F8BDA36A43F478
:101DA0008013A3625368BEE7002384F82430F3E76E
:101DB0000125F1E70225EFE70024014090550008D6
:101DC000002801404D1900089D190008DB1A000881
:101DD00038B5036804469A68D20701D4002038BD9C
:101DE0009A6822F001029A60FFF798FD0546236881
:101DF0009B68DB07F2D5FFF791FD401B0228F6D95F
:101E0000A36A012043F01003A362E36A43F00103D5
:101E1000E362E4E770B50446002800F0C880036878
:101E2000664A934208D002F58062934204D040F2A1
:101E3000B3116348FFF7DAFA636833F4006304D040
:101E40004FF4DA715E48FFF7D1FAA36833F4807378
:101E500004D040F2B5115A48FFF7C8FA237B012B92
:101E600004D94FF4DB715648FFF7C0FAE36933F445
:101E700020220CD023F40022B2F5C02F07D0B3F5F6
:101E8000402F04D040F2B7114D48FFF7AFFAA368D6
:101E9000DBB12369013B0F2B04D940F2BB11484849
:101EA000FFF7A4FA237D012B04D94FF4DE714448D7
:101EB000FFF79CFA237D43B1A369013B072B04D9AB
:101EC00040F2BF113E48FFF791FAA36A2BB9E362D3
:101ED00084F824302046FEF7AFFB2046FFF778FF5A
:101EE000A36A13F0100FA36A63D1002861D1E169DE
:101EF00023F48853626823F0020343F002030A4389
:101F0000A168A362237BB1F5807F42EA430237D008
:101F1000012914BF06464FF48076257D012D06D198
:101F200083BBA369013B46EA433545F40066236859
:101F3000B1F5807F5D6825F4694545EA06055D6079
:101F40009E68204D05EA060545EA02059D6001D020
:101F5000012920D1216901390905DD6A25F47005BF
:101F60002943D9629968184B0B409A4215D1002336
:101F7000E362A36A23F0030343F00103A36270BD8D
:101F80000E46CAE7A36A43F02003A362E36A43F064
:101F90000103E362CBE70021DFE7A36A23F012032A
:101FA00043F01003A362E36A43F00103E3620120FC
:101FB000E5E743F01003A362F9E700BF0024014006
:101FC00090550008FDF7E1FFFE0E1FFF704700006F
:101FD000C31E042B10B5044603D992210948FFF70C
:101FE00005FA094A2402D36804F4E06423F4E063A8
:101FF0001B041B0C43F0BF6343F400331C43D46049
:1020000010BD00BFC855000800ED00E00F2A70B5F4
:1020100005460C46164603D9AA211B48FFF7E6F9E8
:102020000F2C03D9AB211848FFF7E0F9174BDA68FA
:10203000C2F30222C2F10703111D042B28BF04239F
:1020400006294FF0FF3198BF002201FA03F388BF41
:10205000033A24EA0303934001FA02F226EA020655
:10206000002D43EA0603A8BF05F160454FEA0313BC
:10207000B8BF074ADBB2ABBF05F5614505F00F05F8
:1020800085F80033535570BDC855000800ED00E0D9
:1020900014ED00E0002803DABE210648FFF7A6B9D8
:1020A0000123420900F01F0003FA00F0024B43F83D
:1020B00022007047C855000800E100E00138B0F187
:1020C000807F0AD2F021064B064A586082F823101E
:1020D0000020072298601A6070470120704700BFF7
:1020E00010E000E000ED00E010B50446002800F02C
:1020F00081800368404A934215D01432934212D033
:10210000143293420FD0143293420CD014329342C3
:1021100009D01432934206D01432934203D09A214C
:102120003648FFF763F9636833F0100206D0B3F561
:10213000804F03D09B213148FFF758F9A36833F053
:10214000400303D09C212D48FFF750F9E36833F09A
:10215000800303D09D212948FFF748F9236933F410
:10216000807206D0B3F5007F03D09E212348FFF78D
:102170003DF9636933F4806206D0B3F5006F03D094
:102180009F211E48FFF732F9A36933F0200303D0E3
:10219000A0211A48FFF72AF9E36933F4405303D02A
:1021A000A1211648FFF722F914222168144B0B4491
:1021B000B3FBF2F39B002364124B0A68E363D4E998
:1021C00001300343E06822F47F520343206922F088
:1021D0003002034360690343A0690343E06903439A
:1021E00013430B6000200123A06384F8213084F89E
:1021F000200010BD0120FCE7080002400356000843
:10220000F8FFFDBF000002402DE9F0411746984657
:102210005A1E4FF6FE739A4204460E4604D940F207
:102220006F112148FFF7E2F894F82030012B38D0E5
:10223000012394F8215084F820309D424FF0020091
:102240004FF000032AD12168A36384F821000868B5
:10225000D4E90F3220F00100954008605D606368AA
:10226000C1F80480102BE36A22680BBF8F608E6078
:10227000CE60CF6053B10B6843F00E0300200B60BB
:10228000136843F001031360BDE8F0810B6823F08D
:1022900004030B600B6843F00A03EFE784F8203077
:1022A000F2E70220F0E700BF0356000890F8213063
:1022B00010B5022B03D004238363012010BD0368F3
:1022C0001A6822F00E021A601A6822F001021A60DF
:1022D000184A93421FD0143293421ED014329342B4
:1022E0001DD0143293421DD0143293421DD01432AB
:1022F00093420CBF4FF480134FF080730E4A0024BA
:102300005360012380F82130436B80F820407BB17B
:1023100098472046D2E70123F0E71023EEE74FF479
:102320008073EBE74FF48053E8E74FF48033E5E741
:102330001846C3E7080002400000024070B40425BC
:10234000C66B026C3468036895402542196832D028
:102350004D0730D51A6896065EBF1A6822F004024F
:102360001A603E4A934219D01432934218D0143264
:10237000934217D01432934217D01432934217D09D
:10238000143293420CBF4FF480034FF08063344A01
:102390005360C36A002B5ED070BC18470423F6E775
:1023A0004023F4E74FF48063F1E74FF48043EEE716
:1023B0004FF48023EBE702259540254235D08D0769
:1023C00033D51A68940606D41A6822F00A021A60F5
:1023D000012280F82120214A934219D014329342DD
:1023E00018D01432934217D01432934217D01432BB
:1023F000934217D0143293420CBF4FF400134FF0A6
:102400000073174A5360002380F82030836AC1E7C5
:102410000223F6E72023F4E74FF40073F1E74FF4CB
:102420000053EEE74FF40033EBE7082595402542D3
:1024300011D009070FD5196821F00E011960012389
:1024400003FA02F27260836380F82130002380F87F
:102450002030036B9EE770BC704700BF080002404D
:102460000000024090F82100704700002DE9F04F75
:10247000A24A85B0904204468B4601920FD002F5E5
:10248000806290420BD002F58062904207D002F544
:102490008062904203D0BD219948FEF7A7FFDBF888
:1024A000002091B211B1120C12041AB1BE2194484D
:1024B000FEF79CFFDBF80420032A17D9A2F11101D3
:1024C000012913D98F4822F4001181420ED000F562
:1024D000801082420AD0A0F57020814206D08A493D
:1024E0008A4203D0BF218648FEF780FF0025A84618
:1024F000DFF82CA2854EDBF8007037FA08F302D122
:1025000005B0BDE8F08F012202FA08F907EA0907D1
:10251000B94540F08680019B9C420DD07C498C429D
:102520000AD07C4B9C4207D001F500618C4203D05D
:10253000CD217348FEF75AFFDBF80410122900F092
:10254000C78000F28280022900F0B5806CD8002993
:1025500000F08880012900F0A280FF2F82BF08F1DF
:10256000804CACF1080C4FEA8C024FF00F0C9DBF71
:10257000204621684FEA880261680CFA02FE21EACF
:102580000E0105FA02F288BF201D0A430260DBF843
:102590000400C30045D5DAF8182028F0030142F002
:1025A0000102CAF81820DAF8182001F1804102F07F
:1025B0000102039201F5803108F0030E019B039A9A
:1025C0004FEA8E0E8A680CFA0EFC9C4222EA0C0C32
:1025D00000F08F804E4A944200F08D804D4B9C421B
:1025E00014BF0322022202FA0EF242EA0C028A60AF
:1025F0003268C1034CBF3A43BA4332607268830306
:102600004CBF3A43BA437260B268C1024CBF3A430E
:10261000BA43B260F26883024CBF174322EA07074D
:10262000F76008F1010866E703295ED0112994D10B
:10263000DBF80C20013A022A03D9DC213048FEF7EE
:10264000D5FEDBF80C50043587E73348814209D0CA
:102650001BD8A0F58010814204D000F58030814263
:102660007FF47BAFDBF80810022903D9F721244857
:10267000FEF7BCFEDBF80810C9B301290CBFC4F893
:102680001090C4F81490082567E724488142E9D0E7
:1026900000F580308142E5D0A0F58010DFE7DBF85F
:1026A0000C20013A022A03D9D5211548FEF79EFED7
:1026B000DBF80C5051E7DBF80C20013A022A03D971
:1026C000E3210F48FEF792FEDBF80C50083544E793
:1026D000DBF80C20013A022A03D9EA210848FEF768
:1026E00085FEDBF80C500C3537E7002535E704256F
:1026F00033E7002277E7012275E700BF00080140B9
:102700003B56000800001110000022100004014098
:10271000000C0140001001400000211000003110A9
:102720000010024070B5054616460C4621B94FF41C
:10273000EA710848FEF75AFE012E06D940F2D5117B
:102740000448FEF753FE2C6170BD002EFBD124041B
:10275000F9E700BF3B56000838B505460C4621B9DD
:102760004FF4F5710448FEF741FEEB68234214BFB5
:102770006C612C6138BD00BF3B5600080168002227
:102780004B6913F4806310D06FF480634B61202396
:10279000026380F83D3080F83E20036C80F83C20D6
:1027A00043F004030364012070471846704770B576
:1027B00004460D4616462068436913F0400301D0D5
:1027C000002010E04269D2060ED56FF0100242617F
:1027D0002022236384F83D2084F83E30226C0120BF
:1027E000226484F83C3070BDFFF798F8801BA84243
:1027F00001D8002DDFD100232022236384F83D205F
:1028000084F83E30226C42F02002E8E72DE9F843DC
:10281000044690461F46089E4FEA11498DB2216832
:10282000B9F1010F0CBF4B698B6935EA03030CBF8B
:1028300001230023984501D0002016E07B1CEFD037
:10284000FFF76CF8801BB84201D8002FE7D10023B6
:1028500020220120236384F83D2084F83E30226C3E
:1028600084F83C3042F020022264BDE8F883000086
:1028700070B5044608B9012070BD0268754B9A42D4
:1028800004D040F2CD117448FEF7B0FD6368734A7E
:10289000013B934204D94FF4E7716F48FEF7A6FD60
:1028A000A36833F4804304D040F2CF116A48FEF7A6
:1028B0009DFDE36823F47F7323F0030323B14FF4FA
:1028C000E8716548FEF792FD236923F40043B3F5F0
:1028D000804F04D040F2D1115F48FEF787FD636955
:1028E000012B04D94FF4E9715B48FEF77FFDA36922
:1028F00033F0FE0304D040F2D3115748FEF776FDC3
:10290000E36933F0400304D04FF4EA715248FEF714
:102910006DFD236A33F0800304D040F2D5114E4898
:10292000FEF764FD94F83D3003F0FF0223B984F80C
:102930003C202046FEF74AFB2423226884F83D30E1
:10294000136823F00103136001F038FA6368444A06
:1029500093424DD8434A90428DD943492268B0FBF7
:10296000F1F1556825F03F050D435560156A25F0D6
:102970003F05013129431162D169394D21F44F419D
:10298000AB4221F0FF0100F1FF3049D85B00B0FB02
:10299000F3F0431CC3F30B03042B38BF04230B4396
:1029A000D3611168D4E9073021F0C00103430B4320
:1029B00013609168D4E9030321F40341034321F038
:1029C000FF010B439360D168D4E9053021F0FF018A
:1029D00003430B43D3601368002043F001031360EB
:1029E0002023206484F83D30206384F83E0043E7D0
:1029F0001E4A90427FF63FAF1B4E4FF49671B0FBDC
:102A0000F6F622687143556825F03F0535434FF4CB
:102A10007A765560156AB1FBF6F125F03F05A8E717
:102A2000A56855B903EB4303B0FBF3F0431CC3F3B4
:102A30000B036BB143F40043B1E719256B43B0FBC3
:102A4000F3F0431CC3F30B0313B143F44043A6E775
:102A50000123A4E700540040745600087F1A0600C2
:102A6000A08601007F841E0040420F00FF083D0049
:102A70002DE9FF4104461E460D469046FEF74EFFE7
:102A800094F83D300746202B40F0A78025B901255A
:102A9000284604B0BDE8F081B8F1000FF7D094F8F3
:102AA0003C30012B00F09980012384F83C302368EE
:102AB0001A68D2074FF022025EBF186840F001008A
:102AC0001860186820F40060186084F83D20202207
:102AD00084F83E2000222264A4F82A80618D656279
:102AE00021853F492046E162196841F480611960FF
:102AF000009733463B49FFF789FE05460028C6D1BB
:102B0000236802905A6902929B690293029B238D6B
:102B1000C3B923685A69D20641D500220392596984
:102B20000391196841F0010119600399196821F4B2
:102B300080611960202384F83C2084F83D3084F8BB
:102B40003E20A5E73A4631462046FFF730FE23688F
:102B500020B11A6822F480621A6098E71A69636AE1
:102B60001A70628D616A013A92B24B1C62852268CA
:102B70006362238D5069013B9BB240072385C6D514
:102B8000002BC4D013694B70636A01336362238DD9
:102B9000013B2385638D013B9BB26385B7E72046EC
:102BA000FFF7ECFD98B9FEF7B9FEC01B864201D3D2
:102BB000002EAED100232022236384F83D2084F828
:102BC0003E30226C84F83C3042F0200222642268BD
:102BD000136823F48063136059E7022558E700BFA8
:102BE0000000FFFF02000100704770477047704708
:102BF000704770477047704770470023406A70B550
:102C0000026890F83D101468466B856B24F480646C
:102C1000B362AB62146043851468736324F00104EB
:102C20006B63146090F83D40C9B2602C08D120223B
:102C300080F83D2080F83E300364FFF7DDFF70BD73
:102C400001F0280128290DD1146844F00104146012
:102C5000146844F480641460036380F83D10FFF747
:102C6000CAFFECE7202280F83D2080F83E30F6E7EE
:102C700090F83D2090F83E1010B510290446D2B2CD
:102C8000036805D1222A02BF196821F40061196086
:102C900002F0280128293AD10022226384F83D104D
:102CA0005A6812F4006259D05A68606B22F40062CC
:102CB0005A6090F82130012B3C4B35D04363FFF72D
:102CC000F5FA50B12268606B136823F001031360BA
:102CD000202384F83D30436B984794F83D30226CB4
:102CE000DBB2520712D5282B10D122682046536838
:102CF00023F4E06353602E4B2022E362002323631E
:102D000084F83D2084F83E30FFF772FF10BD59680B
:102D1000090504D4602A1CBF202284F83D2000222B
:102D2000226384F83E20BBE7A06B4363FFF7BEFA43
:102D30000028D2D023685A69520605D51A69636AF9
:102D40001A70636A013363622268A06B136823F010
:102D500001031360202384F83D30BCE794F83D1054
:102D6000602915D1202184F83D1022645A6950064B
:102D700005D51A69636A1A70636A0133636222684F
:102D80002046136823F001031360FFF735FFA4E723
:102D90005A69510605D51A69636A1A70636A013364
:102DA00063622046FFF727FF97E700BFFB2B000871
:102DB0000000FFFF036830B55A68C56A90F83E10FE
:102DC0000446C9B290F83D0010298DB0C0B202D0BF
:102DD000402940F0B9829969586910F0010F07D174
:102DE000B5F52A0F02D0B5F12A4F52D10DB030BD42
:102DF00095054ED5E26AB2F52A0F0CD10122E262A6
:102E000094F83E20402A11D1226D52B9626C02F032
:102E1000FE021A61EAE7E26AB2F12A4FF0D1082213
:102E2000EDE7626C42F00102D2B2F2E72269B2F53C
:102E3000804F1BD194F83D20212A626C12D102F000
:102E4000FE021A61626B12B9A16B0029CED0926AA0
:102E50001AB9A26B926A002AC8D05A6842F400627A
:102E60005A60C3E742F00102D2B2EAE7226D32B9FA
:102E7000626CD21102F0060242F0F002C9E7226D44
:102E8000012AB3D1626CD21102F0060242F0F102C3
:102E9000BFE7050703D5950501D5626CE4E7850713
:102EA00040F1E680950540F1E38094F83E10E26A37
:102EB000256B94F83D00C9B2222840F0D180206DE6
:102EC00040B9402906D100905A6900929B6900934D
:102ED000009B8BE7216D81B92069B0F5404F0CD183
:102EE00001915A6901929A690192019A1A6842F411
:102EF00080721A60236D013328E0618D89B251B967
:102F000002915A6902929A690292029A1A6842F4EC
:102F100000721A6019E0618D89B201294AD112F557
:102F2000803F1CD11A6822F480621A605A6812F439
:102F300000620DD01A6822F480621A6000220392A7
:102F40005A6903929B690393039B002323654DE712
:102F500004925A6904929A690492049AD6E7082A5C
:102F60001CD0202A1AD0122D0DD1012A16D11A6890
:102F700022F480621A60002205925A6905929B69C8
:102F80000593059BE1E7102AF1D8904921FA02F256
:102F9000D207ECD51A6842F48062EBE71A6822F493
:102FA00080621A60002206925A6906929A69069215
:102FB000069AABE7618D89B2022933D1102A05D870
:102FC0008249D140C94311F0010120D0196841F470
:102FD000006119600021079159690791996907916A
:102FE0000799196821F48061196059680D05ACD5FD
:102FF00012F5803F06D0511E1F29A6D8744ACA4038
:10300000D007A2D55A6842F480525A609DE71868EA
:1030100040F4806018600891596908919969089195
:103020000899E2E7196841F4806119605968090557
:103030000ED512F5803F07D0013A1F2A08D86449FF
:1030400021FA02F2D20703D55A6842F480525A603C
:10305000002209925A6909929B690993099B74E7B6
:1030600000220A925A690A929B690A930A9BBDE65A
:1030700011F0040F596800F0AD800D053FF5B6AEB4
:10308000C0F38001000669D5550567D5002968D1D0
:1030900094F83D20258D94F83E10D2B2C9B2E06A72
:1030A000C5B9212A18D1082878D0202876D010F563
:1030B000803F73D05A6822F4E0625A601123236380
:1030C000002384F83E302023204684F83D30FFF76B
:1030D0008BFD8BE6212A05D040297FF487AE222A7A
:1030E0007FF484AE628D92B21AB95A6822F480627B
:1030F000B6E694F83E20402A26D1226D62B9E26CF1
:10310000012AA26C04D1D2B21A61236D02331DE7E9
:10311000C2F307221A61EDE6226D012A02D1A26CE8
:10312000D2B2F7E7226D022A7FF460AE94F83D2018
:10313000222A04D11A6842F480721A6056E694F882
:103140003D20212A7FF452AE626A12F8011B1961F8
:103150006262638D013B9BB2638547E600293FF4C1
:1031600045AE90057FF542AEE16A94F83D20212AF4
:103170007FF43CAE628D92B2002AE5D108290DD0D1
:1031800020290BD011F5803F08D0596821F4E06167
:1031900059601123236384F83E2094E75A6820463F
:1031A00022F4E0625A601A6842F400721A60002346
:1031B0002022236384F83D2094F83E2084F83E309A
:1031C000402A84D1FFF715FD10E600BF140001006E
:1031D0008180008009053FF509AE4506C0F38001F6
:1031E00048D5500546D5002947D194F83D20222ADC
:1031F0007FF4FCAD628D92B2032A14D91A69636A16
:103200001A70636A01336362638D013B9BB263850D
:10321000638D9BB2032B7FF4E9AD2268536823F4DE
:1032200080635360E2E5E06A02283FF4DFAD012AE3
:103230003FF6DCAD1A6822F480621A605A6822F404
:10324000E0625A601A69636A1A70636A01336362E2
:10325000638D013B9BB26385202384F83D3094F855
:103260003E3084F83E10402B68D121632046FFF7A2
:10327000C1FCBBE500293FF4B9AD92057FF5B6ADC1
:10328000E26A608D616A80B2042809D15A6822F42A
:1032900080625A601B690B70636A0133636258E78E
:1032A000608D80B203280CD15868042A20F4806015
:1032B0005860EFD0022AEDD01A6822F480621A60BA
:1032C000E8E7608D80B20228E4D1012A01D0102AFB
:1032D00028D11A6822F480621A601B690B70626A36
:1032E000531C6362638D013B9BB2638523681B693A
:1032F0005370636A226801336362638D013B9BB242
:103300006385536823F440735360202384F83D3071
:1033100094F83E30402B4FF0000384F83E300DD13E
:103320002363A3E7042A01D0022A03D11A6842F4D6
:103330008062D1E71A6842F40072CDE7122320467A
:103340002363FFF752FC51E5216C21B30025596935
:1033500011F0020F29D012F4007F26D0226C02B1A6
:103360009D6994F83D2002F02802282A16D15A6857
:103370006FEA950122F480625A602B064FF0000339
:1033800001F0010154BFA289228B84F83C30204611
:10339000FFF72DFC2AE59D695969D9E76FF0020214
:1033A0005A61002384F83C3020E5CD0640F1B1801D
:1033B000950540F1AE8094F83D505A68EDB222F484
:1033C000E0625A6000220B925A690B921A6842F02E
:1033D00001021A600B9A1A6822F480621A605A6815
:1033E000110520D505F0F702222A4AD1A06B026808
:1033F000526892B26285628D92B21AB1226C42F02A
:10340000040222645A6822F400625A60FFF72AF824
:10341000012808D0A06B794B4363FEF747FF10B13A
:10342000A06B436B9847638D9BB213B323685A69B3
:10343000520709D51A69636A1A70636A01336362B5
:10344000638D013B9BB2638523685A69500609D599
:103450001A69636A1A70636A01336362638D013BA0
:103460009BB26385638D9BB21BB1236C43F0040355
:103470002364236C13B320460DB0BDE83040FFF742
:10348000F7BB606B0268526892B26285628D92B23D
:103490001AB1226C42F0040222645A6822F40062DB
:1034A0005A60FEF7DFFF0128BDD0606B534B4363CA
:1034B000FEF7FCFE0028B6D0606BB2E72A2D06D1DD
:1034C00023632823204684F83D30FDF72BFE94F833
:1034D0003D30282B0CD14A4B2022E36200232046AA
:1034E000236384F83D2084F83E30FFF781FB7DE4C0
:1034F000236B222B02D0222D7FF478AC00232022D4
:10350000236384F83D2084F83E302046FDF70AFE10
:103510006CE400F0F7002128C1F3800535D10906DD
:1035200027D5510525D53DBB94F83D10628DC9B214
:1035300092B2002A3FF45AAC626A12F8015B1D6134
:103540006262628D013A92B26285628D92B2002A05
:103550007FF44CAC29297FF449AC5A6822F480628C
:103560005A602823206384F83D302046FFF73EFB55
:103570003CE4002D3FF43AAC95057FF537AC628D05
:1035800092B2002A7FF4E0AD30E4480627D5510519
:1035900025D53DBB94F83D20618DD2B289B200297A
:1035A0003FF424AC1969636A1970636A013363627A
:1035B000638D013B9BB26385638D9BB2002B7FF4CF
:1035C00015AC2A2A7FF412AC2268536823F4806376
:1035D000536022232363282384F83D3095E7002D90
:1035E0003FF404AC92057FF501AC628D92B2002AE3
:1035F0003FF4FCAB1A69636A1A704DE6FB2B0008B6
:103600000000FFFFF8B5036804465F695E68C7F312
:10361000002555B1C6F300253DB16FF48072012538
:103620005A611A6842F400421A60B90506D5F205DB
:1036300042BF6FF4007245F002055A61780537D534
:10364000F10535D594F83EC0618D94F83D20BCF16C
:10365000200F89B2D2B2206B5AD1002958D102F082
:10366000F701212903D0282A52D1212850D194F8DA
:103670003D20E16AD2B2082901D020292AD1282A86
:1036800028D12C4A2046E2625A6822F4E0625A604D
:103690006FF480625A611A6822F480621A60002313
:1036A0002022236384F83D2084F83E30FFF7A0FAFF
:1036B0003A053BD5F30539D56FF40062236845F030
:1036C00008055A61236C20461D432564BDE8F84077
:1036D000FFF7CEBA212A17D116492046E1622263AC
:1036E000202284F83D20002284F83E205A6822F4EB
:1036F000E0625A606FF480625A611A6822F4806254
:103700001A60FFF773FAD3E76FF480625A61CFE76C
:103710006FF480625A6194F83E2045F00405102A47
:1037200002BF1A6842F400721A60C1E7002DC9D1C5
:10373000F8BD00BF0000FFFF0122014B1A60704777
:1037400020000E422DE9F341044608B9012059E05A
:10375000036833B11A0704D140F26711A048FDF79E
:1037600045FE2368DB0718D423689F0771D42368BC
:10377000190700F1B98023685A0700F1EB80E3696B
:10378000022B04D940F2AF219548FDF72FFEE069E6
:10379000002840F05D81002034E0636833F480321B
:1037A00007D0B3F5A02F04D040F26D118C48FDF77F
:1037B0001DFE8C4D6B6803F00C03042B07D06B6867
:1037C00003F00C03082B09D16B68DE0306D52B68C8
:1037D0009D03C9D56368002BC6D1B7E76368B3F50D
:1037E000803F12D12B6843F480332B60FEF796F8AC
:1037F00006462B689803B7D4FEF790F8801B642820
:10380000F7D9032002B0BDE8F0819BB92B6823F4FF
:1038100080332B602B6823F480232B60FEF77EF827
:1038200006462B6899039FD5FEF778F8801B64281D
:10383000F7D9E6E7B3F5A02F2B6803D143F4802333
:103840002B60CFE723F480332B602B6823F4802395
:10385000CBE72369012B04D940F2A1116048FDF7A1
:10386000C5FD63691F2B04D94FF4D1715C48FDF786
:10387000BDFD5C4D6B6813F00C0F07D06B6803F057
:103880000C03082B11D16B68DA030ED42B689B074D
:1038900003D52369012B7FF459AF2B68626923F0AC
:1038A000F80343EAC2032B6061E722694E4B6AB119
:1038B00001221A60FEF732F806462B689F07ECD407
:1038C000FEF72CF8801B0228F7D99AE71A60FEF75A
:1038D00025F806462B6898077FF549AFFEF71EF8D6
:1038E000801B0228F6D98CE7A369012B04D94FF479
:1038F000F1713B48FDF77AFDA2693A4D3B4BDAB1D5
:1039000001221A60FEF70AF806466B6A9B070DD57E
:103910004FF4FA52364B1B68B3FBF2F3019300BF2E
:10392000019B5A1E0192002BF9D124E7FDF7F6FF07
:10393000801B0228E9D964E71A60FDF7EFFF06460D
:103940006B6A9F077FF517AFFDF7E8FF801B022822
:10395000F6D956E7E368012B06D9052B04D040F2CF
:1039600011211F48FDF742FD1E4DEB69D80024D4FC
:103970000127EB6943F08053EB61EB6903F080535F
:103980000093009B1B4E3368D90518D5E368012BC3
:1039900032D12B6A43F001032B62FDF7BFFF41F2E6
:1039A000883680462B6A9B074BD5002F3FF4E7AE45
:1039B000EB6923F08053EB61E1E60027E2E733682F
:1039C00043F480733360FDF7A9FF80463368DA055E
:1039D000DCD4FDF7A3FFA0EB08006428F6D910E7BC
:1039E000AC560008001002400000424280044242EF
:1039F0006C00002000700040ABB92B6A41F288389F
:103A000023F001032B622B6A23F004032B62FDF7E2
:103A100085FF06462B6A9807C7D5FDF77FFF801BF9
:103A20004045F7D9EDE6052B2B6A03D143F004039B
:103A30002B62AEE723F001032B622B6A23F0040311
:103A4000AAE7FDF76BFFA0EB0800B042AAD9D8E6C1
:103A5000404B5A681D4602F00C02082A69D0022821
:103A60003D4E57D1236A33F4803304D04FF42E7186
:103A70003A48FDF7BBFC636A33F4402223F480210B
:103A800010D0B2F5801F0DD0B2F5001F0AD0B1F5ED
:103A9000401F07D0B3F5601F04D040F2B9212F4872
:103AA000FDF7A4FC00233360FDF738FF07462B68C1
:103AB000990129D4236AB3F5803F0ED1A36833F46A
:103AC000003304D040F2CF212448FDF78FFC6B680F
:103AD000A26823F4003313436B606A68D4E90831A9
:103AE00022F474120B4313436B6001233360FDF720
:103AF00015FF04462B689A013FF54DAEFDF70EFF0A
:103B0000001B0228F6D97CE6FDF708FFC01B02283F
:103B1000CDD976E600233360FDF700FF04462B681D
:103B20009B017FF538AEFDF7F9FE001B0228F6D9A0
:103B300067E601283FF466AE5868236A00F48032D5
:103B40009A427FF403AE636A00F47010C01A18BF83
:103B5000012057E60010024060004242AC560008C7
:103B600030B5184B87B002AC03F110052246186837
:103B70005968083303C2AB421446F7D140F201231F
:103B80001149ADF804304B6803F00C02082A17D134
:103B9000C3F3834206A80244DB0312F8102C0CD5B1
:103BA0004B680A48C3F34043504306AA134413F832
:103BB000143CB0FBF3F007B030BD05485043FAE7C2
:103BC0000248F8E7345500080010024000127A005D
:103BD00000093D002DE9F0410D46044610B90120D1
:103BE000BDE8F08103681E0704D14FF44E716D48A3
:103BF000FDF7FCFB022D04D940F239316948FDF78D
:103C0000F5FB694A136803F00703AB423DD3236811
:103C1000980745D42368DA076ED4634A136803F023
:103C20000703AB4200F29A802368604D13F0040F43
:103C300040F0A08023681B0717D5236933F4806206
:103C40000CD023F40072B2F5A06F07D0B3F5C06FAB
:103C500004D040F2AB315348FDF7C8FB6B682269D2
:103C600023F4605343EAC2036B60FFF779FF6B688C
:103C70004F4AC3F30313D35CD8404E4B18604E4BEE
:103C80001868FDF709FE0020AAE7136823F0070370
:103C90002B431360136803F00703AB429FD1B6E7D1
:103CA000424E13F0040F1EBF726842F4E06272606D
:103CB000190742BF736843F460537360A36833F01D
:103CC000800212D023F02002902A0ED023F040026E
:103CD000A02A0AD023F01002C02A06D0F02B04D06C
:103CE00040F25F312F48FDF781FB7368A26823F033
:103CF000F003134373608DE76368022B04D940F22D
:103D000066312848FDF772FB6268284E012A336845
:103D10001CD113F4003F3FF462AF736841F288385E
:103D200023F0030313437360FDF7F8FD0746736840
:103D3000626803F00C03B3EB820F3FF46EAFFDF744
:103D4000EDFDC01B4045F2D9032049E7022A02D10C
:103D500013F0007FDFE713F0020FDCE7136823F0B6
:103D600007032B431360136803F00703AB427FF490
:103D700036AF59E7E36833F480620CD023F4007265
:103D8000B2F5A06F07D0B3F5C06F04D04FF46971DE
:103D90000448FDF72BFB6B68E26823F4E0631343F0
:103DA0006B6047E7AC56000800200240001002405C
:103DB000785500086C00002074000020044B054A70
:103DC0005B68C3F30223D35C034A1068D840704792
:103DD00000100240885500086C000020044B054A82
:103DE0005B68C3F3C223D35C034A1068D8407047B2
:103DF00000100240885500086C00002003682DE97F
:103E0000F34113F0130F054603D16C214548FDF72C
:103E1000EDFA2B68D90728D56B6833F4407303D0CB
:103E200072214048FDF7E2FA3F4CE369DA0044D4DE
:103E30000127E36943F08053E361E36903F08053B2
:103E40000193019B394E3368DB0538D5236A13F49F
:103E5000407348D1236A6A6823F440731343236292
:103E60001FB1E36923F08053E3612B689B070ED5F4
:103E7000AB6833F4404303D0B9212A48FDF7B6FAC2
:103E8000294AA968536823F440430B4353602868C8
:103E900010F0100024D0EB6833F4800304D040F21B
:103EA00015112048FDF7A2FA1F4AE968536800205F
:103EB00023F480030B43536012E00027C2E733680A
:103EC00043F480733360FDF729FD80463368D805DD
:103ED000BCD4FDF723FDA0EB08006428F6D903202D
:103EE00002B0BDE8F0816A6802F440729A42B1D033
:103EF00001200F4A236A1060002023F440711060F3
:103F00002162D907A6D5FDF709FD41F2883806469A
:103F1000236A9A079ED4FDF701FD801B4045F7D91F
:103F2000DDE700BFE45600080010024000700040CA
:103F30004004424270B50446384B86B002AD03F1EE
:103F400010062A4618685968083303C2B34215465A
:103F5000F7D140F2012314F0130FADF8043004D16F
:103F60004FF4CB712E48FDF741FA022C47D0102CAC
:103F700017D0012C4FD140F202312A4A136A19405E
:103F8000B1F5817F44D003F44073B3F5007F2DD1A8
:103F900049F64040536A13F0020F08BF002006B0F4
:103FA00070BD204B5968186810F08070F7D0C1F3CD
:103FB000834206A8024412F8100CCA0341BF5A6893
:103FC00006A9C2F34042521844BF12F8141C164A04
:103FD0005B684CBFB2FBF1F2144A5B0202FB00F0DB
:103FE000DDD403234000B0FBF3F0D8E7B3F5407F06
:103FF00011D113684FF2244013F4003FCDE7FFF7CF
:10400000EDFE084B5B68C3F3813301335B00EAE7E5
:104010004FF40040C3E70020C1E700BF445500084B
:10402000E45600080010024000127A0000093D002A
:10403000036830B59A69D869996995B28CB2A5427E
:1040400017BFD86980B280B240EA014008BF40EA99
:10405000024030BD0368186A5B6A9BB243EA0040C5
:1040600070470023092803D840EA0310C0B2704704
:104070000A380133C0B2F5E70A22030900F00F0045
:1040800002FB0300C0B2704730B5172509234D432A
:10409000022900F5FA64B5FBF3F517D8043200F2F3
:1040A000CF7310194FF4C872B3FBF2F2284400EB3F
:1040B000930010446422B3FBF2F3C01A0723B0FB51
:1040C000F3F3C3EBC303C01AC0B230BD4FF4C873DF
:1040D000901C64222044B4FBF3F3284400EB9400CA
:1040E000B4FBF2F41844001BE8E738B50446FDF7CA
:1040F00015FC054623685A68920605D500205A68C3
:1041000042F010025A6038BDFDF708FC401BB0F5C4
:104110007A7FEFD90320F6E7026838B55368044682
:1041200023F010035360FDF7F9FB054623685B6835
:104130009B0601D5002038BDFDF7F0FB401BB0F514
:104140007A7FF3D90320F6E738B505460C46FFF72A
:10415000CCFF58B92B68220CA4B29A612846DC61C6
:10416000FFF7DAFF003018BF012038BD0120FCE75F
:1041700038B505460C46FFF7B8FF58B92B68220C36
:10418000A4B21A6228465C62FFF7C6FF003018BF6F
:10419000012038BD0120FCE770B50D4616460446E7
:1041A00000283DD000293BD0012A04D940F2CA2181
:1041B0004348FDF71BF9237C012B4FF002037DD010
:1041C000012263742274287866BB172804D940F250
:1041D000D3213B48FDF70AF96B783B2B04D94FF408
:1041E00035713748FDF702F9AB783B2B04D940F223
:1041F000D5213348FDF7FAF83C206B782E785843E8
:104200004FF4616303FB0606A87806443146204656
:10421000FFF79AFF054698B30423637400232374C1
:10422000012549E0FFF728FF172804D940F2DD21D6
:104230002348FDF7DBF86878FFF71EFF3B2804D919
:1042400040F2DE211E48FDF7D1F8A878FFF714FFF1
:104250003B2804D940F2DF211948FDF7C7F8287838
:10426000FFF70AFF06466878FFF706FF3C2358432E
:104270004FF4616303FB0606A878FFF7FDFEC4E771
:1042800022682046536823F005035360FFF7E2FEDF
:10429000431C0DD086420BD900F5A83101F5C07141
:1042A0002046FFF765FF18B1042325746374B7E750
:1042B0000123637400232374284670BD1D46FBE769
:1042C0001F5700082DE9F8430D469046044610B9E3
:1042D0000120BDE8F8830029FAD0012A04D940F270
:1042E0002D315648FDF782F823685B685807EFD4F4
:1042F0002046FFF79DFE4FF46162B0FBF2F30746E4
:1043000002FB13023C20B2FBF0F100FB1122172B41
:104310006970AA7040F28D801821B3FBF1F201FBA5
:10432000123320462B70FFF795FE411C064604D041
:1043300087422CBF4FF0FF36C61B414B2046B7FBD0
:10434000F3F903FB19794946FFF7FEFE0028BFD1B8
:10435000721C2ED009EB06012046FFF709FF00284A
:10436000B6D1374B0026B7FBF3F74FF0640C4FF490
:10437000C87E40F2D529E07B617BA27BB7421AD888
:10438000C9B2D2B2E0736173A273FFF77DFE2073EE
:10439000B8F1000F0BD02878FFF763FE287068781B
:1043A000FFF75FFE6870A878FFF75BFEA87000203B
:1043B0008FE73146D0E74B1E092B0ED829FA03F3BD
:1043C000DB0738D421F00203042B01D0092B0DD1D7
:1043D0001D2A0FD90131012206E00C29F2D11E2A33
:1043E00008D90122114601300136C7E70229FBD165
:1043F0001B2A01D80132F7E71C2A13D182B2930796
:1044000012D1B2FBFCF30CFB13239BB27BB9B2FBC2
:10441000FEF30EFB13239BB2002B0EBF1D220122C5
:104420000321E1E71D2ADFD101220321DCE71D2260
:10443000DAE72B70ACE71E2ACBE700BF1F57000856
:104440008051010070B50D461646044600284FD035
:1044500000294DD0012A04D94FF467714848FCF770
:10446000C5FF237C0220012B00F0898001236074AA
:104470002374E878002E3DD1632804D940F2A53199
:104480003F48FCF7B3FF6B78013B0B2B04D940F29C
:10449000A6313B48FCF7AAFFAB78013B1E2B04D9A1
:1044A00040F2A7313648FCF7A1FFEB78E3736B7855
:1044B0006373AB78A373A27B617BE07BFFF7E4FDC2
:1044C000207328702046FFF7B3FD2E4B984252D937
:1044D000A3F60F63B0FBF3F503FB15052046294651
:1044E000FFF732FE064698B3042363740023237457
:1044F000012044E0FFF7C0FD632804D94FF46C713C
:104500001F48FCF773FF6878FFF7B6FD0138C0B2AB
:104510000B2804D940F2B1311948FCF767FFA8789D
:10452000FFF7AAFD0138C0B21E2804D940F2B2310B
:104530001348FCF75BFFE878FFF79EFDE0736878AF
:10454000FFF79AFD6073A878FFF796FDA073B2E7B6
:104550002046FFF77FFD431C0DD085420BD900F5A7
:10456000A83101F5C0712046FFF702FE18B10423FF
:1045700026746374BCE7012300206374207470BD4B
:104580001F5700088F5F01000023F7B50C46174640
:10459000ADF804308DF80630054618B901221046F2
:1045A00003B0F0BD0029F9D0012A04D940F20E4130
:1045B0001048FCF71BFF002201A92846FFF782FEE6
:1045C00002460028EAD12B7B2370E87BE0706E7BEB
:1045D0006670A97BA170002FE1D0FFF742FDE0706B
:1045E0003046FFF73EFD60700846FFF73AFDA070C9
:1045F000D5E700BF1F5700080023F7B50C46174644
:10460000ADF804308DF80630054610B9012003B02E
:10461000F0BD0029FAD0012A04D940F2AC414D483E
:10462000FCF7E4FE636823B140F2AD414948FCF772
:10463000DDFE2B7C0220012BE9D0012368742B7452
:10464000002201A92846FFF73DFE0028DED13C23C9
:104650009DF805209DF8046053434FF4616202FB0E
:1046600006369DF8063020781E447FBB172804D9F3
:1046700040F2C1413748FCF7B9FE63783B2B04D9BF
:1046800040F2C2413348FCF7B1FEA3783B2B04D97A
:1046900040F2C3412F48FCF7A9FE3C206378217803
:1046A00058434FF4616303FB0101A0780144B14218
:1046B0003CBF01F5A83101F5C0712846FFF758FD50
:1046C00090B304236B7400232B749FE7FFF7D4FC93
:1046D000172804D940F2CB411E48FCF787FE6078CA
:1046E000FFF7CAFC3B2804D940F2CC411948FCF73B
:1046F0007DFEA078FFF7C0FC3B2804D940F2CD41F5
:104700001448FCF773FE2078FFF7B6FC014660788A
:10471000FFF7B2FC3C2358434FF4616303FB0101F4
:10472000A078FFF7A9FCC1E76FF002022B685A607E
:104730001A6842F002021A60074B1A6842F400320B
:104740001A609A6842F400329A60012328746B74EC
:104750005DE700BF1F5700080004014070470000DC
:10476000036810B51A680446920708D55B689B0772
:1047700005D5FFF7F3FF6FF0020223685A604FF48C
:104780000032024B5A610123637410BD00040140E2
:1047900038B50446A8B10268536823F00803536093
:1047A000FDF7BCF8054623685B681B0701D50020B0
:1047B00038BDFDF7B3F8401BB0F57A7FF3D903207D
:1047C000F6E70120F4E7000010B5044688B302685C
:1047D000354B9A4204D040F21D113448FCF706FED6
:1047E000A36833F0800209D023F40073B3F5807F0F
:1047F00004D04FF48F712D48FCF7F8FD63682C4A04
:10480000A3F58013934204D840F21F112748FCF708
:10481000EDFD637C03F0FF021BB922742046FCF718
:10482000D7FE022320466374FFF7B2FF18B10423BA
:104830006374012037E02046FFF757FC0028F6D1CB
:104840002268A068536823F007035360194A18B11F
:10485000116B21F001011163D36A23F460730343E8
:10486000D3626068431C05D10120FFF763FB002879
:10487000DDD001382268936823F00F0343EA104328
:104880009360D36880B21B0C1B041843D060204691
:10489000FFF742FC012310B104226274C9E7E07300
:1048A0006373A373637410BD002800401F57000892
:1048B000FEFFEFFF006C00407047036810B51A68F8
:1048C0000446D10711D55A68D2070ED55B685B073D
:1048D0000CD5FFF7F1FF6FF0040223685A60042340
:1048E0006FF00102637423685A6010BDFCF7C8FCC6
:1048F0000123F5E7014B1868704700BF78000020DE
:1049000070B500250C4E0D4CA41BA410A54209D176
:1049100000F004FE00250A4E0A4CA41BA410A54278
:1049200005D170BD56F8253098470135EEE756F8A9
:10493000253098470135F2E7E4580008E4580008AC
:10494000E4580008E858000803460244934200D1A6
:10495000704703F8011BF9E70EB44FF4017230B54C
:104960009CB01FAC54F8045BADF814200290069084
:10497000FBF7EEFB0B4B03900B9300230F93149369
:104980004FF6FF7307900848ADF816302A462346C5
:1049900002A90068019400F065F81CB0BDE8304041
:1049A00003B07047AD490008780000200020704730
:1049B00038B54B1C144603D14FF0FF35284638BD9F
:1049C0009389CDB223F020039381636B52688BB13E
:1049D000A36B934208DD23685A1E226003F8015C32
:1049E000636801336360E9E7214600F02DFC00288D
:1049F000F1D0E1E72169236851B1994208D213F857
:104A0000011CA94204D1013B013223606260D5E759
:104A1000C4E90F3204F1440363630323A363234611
:104A200003F8465F23600123DCE710B50C46496BB1
:104A300069B104F14403994201D000F07BFC0020ED
:104A4000236C6063636013B1E36B236010BD236963
:104A50004FF0FF30236000236360A38943F02003FD
:104A6000A381F3E72DE9F04F0C460021064692465C
:104A70000A27ADF5237D449145919E490DF1040827
:104A8000A0919D49DFF87492CDF81881A19100930F
:104A90009AF80030002B00F02A81554600F010FCF7
:104AA00015F801BB5844437813F008031CD0636821
:104AB000002B12DD00F004FC23681A7810444278C1
:104AC000120701D4AA46E3E7459A01330132459221
:104AD00062682360013A6260E9E7A19B21463046A3
:104AE00098470028E6D0EDE7BBF1250F40F0828023
:104AF000439341939AF801302A2B03D110230AF1F2
:104B000002054193AA4615F8011BA1F13002092ABA
:104B100022D90322794800F0F3FB38B1A0EB090356
:104B20000120AA469840419B184341909AF80030D2
:104B30000AF10105672B2BD8652B80F09F80472B4E
:104B400010D8452B80F09A80002B6CD0252B51D0AB
:104B500003234297479327E0439B07FB0313303B14
:104B60004393CFE75B2B6AD00CD8582BF0D1419AF6
:104B700042F400724192102242926E2B8CBF0423A9
:104B8000032310E0632B65D0642BE1D14297F4E757
:104B9000702B4BD026D86E2B62D04CD8692BD7D136
:104BA00000234293032347936368002B68DD419BF6
:104BB000590607D400F084FB23681A781044427821
:104BC000120764D4479B022B73DC6B46224641A933
:104BD000304600F097F8012800F0898002287FF421
:104BE00071AF1DE0752BD1D0782BC0D0732BAFD116
:104BF0000223D8E76368002B0CDD23681A785A4536
:104C000075D1013362682360459B013A01336260CC
:104C1000459357E7A19B2146304698470028ECD0A2
:104C20004498002859D14FF0FF305CE0419A42F09F
:104C3000200241929BE7082342930423B3E72946CD
:104C4000404600F0B7F9419B054643F040034193CD
:104C50000123A8E7419B43F0400341930023A2E7CF
:104C60004198C3063FF52EAF009B459A191D009150
:104C70001B68C0074CBF1A801A6023E7052392E720
:104C8000A19B214630469847002890D0C8E7459A16
:104C9000013245926268013A002A626002DD013306
:104CA000236087E7A19B214630469847002881D0A2
:104CB000B6E7042B06DC6B46224641A9304600F0DD
:104CC00083F888E70E4B002B3FF4FCAE6B46224680
:104CD00041A93046AFF300807DE7A38913F0400F70
:104CE00018BF4FF0FF300DF5237DBDE8F08F4498DD
:104CF000F9E700BFB14900082B4A000857570008E0
:104D0000000000002DE9F04115468A6880460C46F7
:104D100032B98A69002A14BF4FF0FF3201228A603B
:104D200000262268D1065FBF1A68111D1960176836
:104D3000A369DBB1012B07D12B6862691B78D35CB7
:104D4000A3B9002E31D106E0022B07D0002E2CD1C2
:104D5000A369012B29D10120BDE8F08100F0B0FA50
:104D60002B681B78184443781B07EFD4236801365F
:104D7000DA065EBF2B681B783B702A686B6802F10D
:104D800001022A60A26803F1FF3302F1FF326B6077
:104D900058BF0137A26042B1002BC9DCD4F8803182
:104DA0002946404698470028C2D0236813F01003D4
:104DB00005D1E2680132E260A26902B13B70236969
:104DC00000201E442661C7E72DE9F04F0C469A46A5
:104DD000744B87B08346164693E8070003ABA76879
:104DE00083E80700704BA169704A04F11C0903298C
:104DF00008BF1A467B1EB3F5AE7F84BF40F25D1339
:104E0000A360236888BF6FF4AE7543F450632360DA
:104E100098BF00274B464FF00008009288BF7F19CB
:104E20003168019303AB53F828000222097800F09F
:104E300067FA019B30B3B8F1010F5AD162682AB901
:104E400008212268616042F400722260226822F424
:104E5000A0622260A268511EA1609AB132685D1CF6
:104E6000511C316012781A707368013B002B73601B
:104E700007DCD4F88031314658469847002840F086
:104E800087802B4608F10108B8F1030FC8D162688A
:104E90000AB90A226260626845496069891A019309
:104EA00000F088F8019B4FF000081D46A3682268B7
:104EB000002B3BD03168606991F800C010F80C00FD
:104EC000002833D0BCF1300F21D110051FD508F1D7
:104ED000010817B10133013FA3607368013B002B48
:104EE00073601CDD336801333360A368013BA3604A
:104EF000DCE7B8F1020FADD1226802F4C061B1F570
:104F0000007FBFD1102142F480726160A1E722F4DA
:104F1000106222600B78013505F8013CDDE7D4F81A
:104F200080313146584698470028DED02368D9059D
:104F30000CD54D4508D915F8011C6F1ED4F87C31ED
:104F40003246584698473D464D4529D0226812F0D2
:104F5000100213D12A70636849465846009EB04734
:104F6000DAF8003021681A1DCAF8002011F0200F6D
:104F70001B6810D01860E3680133E3600020A5EBE4
:104F80000905A84425694544256107B0BDE8F08FAF
:104F90004FF00008CAE7CA074CBF18801860EAE75C
:104FA0000120F2E7545500080D5100082552000871
:104FB0006B57000870B50B78441E5E2B13BF4A1C5C
:104FC0008A1C4B78002108BF012100F1FF0504F87D
:104FD000011FAC42FBD113B9013A104670BD81F0FC
:104FE0000104C454511C11F8015C4E1E2D2D0A46BB
:104FF00006D05D2DF1D00DB93246EEE72B46F0E735
:105000000E785D2EFAD0B342F8DC01339E42C454D0
:10501000FBDC0231E7E72DE9F047804689469246FE
:105020001E460F463D46089815F8014B00F044F91E
:105030002044437813F0080332D12D2C32D10122C1
:105040007C78BD1C002E5DD0102E09D1302C07D1EC
:105050002B7803F0DF03582B4FD110266C780235E4
:10506000002A14BF4FF000416FF000410027B1FB50
:10507000F6FC384606FB1C1EA4F13003092B17D89A
:105080001C46A64223DD7B1C07D084451CD301D1DE
:10509000A64519DB012700FB064015F8014BEBE79D
:1050A0002F46BFE72B2C04BFBD1C7C781A46C9E7EE
:1050B000A4F14103192B01D8373CE2E7A4F16103C5
:1050C000192B04D8573CDCE74FF0FF37E5E77B1C92
:1050D00008D122230846C8F80030BAF1000F07D1E2
:1050E000BDE8F08702B14042BAF1000FF8D00FB12D
:1050F00005F1FF39CAF80090F2E73024002EAFD155
:105100000826ADE7302CA3D00A26A9E737B5064C10
:10511000064D2468246A002C08BF2C460094FFF733
:105120007AFF03B030BD00BF78000020DC00002013
:105130002DE9F0478046894692461E460F463D4679
:10514000089815F8014B00F0B7F82044437813F0A5
:10515000080330D12D2C30D101217C78BD1C002ECC
:105160005CD0102E09D1302C07D12B7803F0DF034F
:10517000582B4ED110266C7802354FF0FF32B2FB1F
:10518000F6F2002306FB02FC18466FEA0C0CA4F1B1
:105190003007092F17D83C46A64223DD002B1EDB23
:1051A00082421CD301D1A44519DB012300FB064038
:1051B00015F8014BEBE72F46C1E72B2C04BFBD1CB4
:1051C0007C781946CBE7A4F14107192F01D8373C69
:1051D000E2E7A4F16107192F04D8573CDCE74FF050
:1051E000FF33E5E7002B09DA22234FF0FF30C8F840
:1051F0000030BAF1000F07D1BDE8F08701B140429D
:10520000BAF1000FF8D00BB105F1FF39CAF80090E0
:10521000F2E73024002EB0D10826AEE7302CA4D01F
:105220000A26AAE737B5064C064D2468246A002CE6
:1052300008BF2C460094FFF77BFF03B030BD00BFD2
:1052400078000020DC0000202DE9F0410C46496B7D
:1052500004F1440399421BD14FF4806100F0B6F889
:1052600018B94FF0FF30BDE8F0814FF48063A363BD
:1052700094F84630606380F8FF3394F8453000F2CC
:10528000FD30437094F84430037020600020EAE75A
:10529000A66B77003A4600F0F3F805460028E0D008
:1052A00000EB060801463246404600F037F8C4F8E5
:1052B0000080C4E90D57E9E7D0F8EC007047000022
:1052C000044B054A1B681B6A002B08BF1346D3F822
:1052D000EC00704778000020DC00002082B001B9AB
:1052E00001A942B14BB113780B601278101C18BFA2
:1052F000012002B070471046FBE76FF00100F8E7AD
:1053000010B5C9B202449042034601D1002303E024
:105310001C7801308C42F6D1184610BD10B5431EE2
:105320000A44914200D110BD11F8014B03F8014F1E
:10533000F7E7000038B50546002943D051F8043C92
:105340000C1F002BB8BFE41800F0DDF81E4A1368EC
:10535000104633B9636014602846BDE8384000F059
:10536000D3B8A3420BD921686218934201BF1A68CF
:105370005B685218226063600460EDE713465A6868
:105380000AB1A242FAD919685818A0420BD1206874
:105390000144581882421960DED1106852680144F5
:1053A00019605A60D8E702D90C232B60D4E7206833
:1053B00021188A4201BF1168526809182160626091
:1053C0005C60C9E738BD00BF6802002070B5CD1C25
:1053D00025F0030508350C2D38BF0C25002D064699
:1053E00001DBA94203D90C233360002070BD00F01B
:1053F0008AF8214A1468214691B9204C23681BB9C8
:10540000304600F063F820602946304600F05EF830
:10541000431C24D10C233046336000F075F8E4E7D8
:105420000B685B1B18D40B2B0FD90B60CC18CD501D
:10543000304600F069F804F10B00231D20F007004E
:10544000C31AD3D05A42E250D0E74B688C4216BF01
:10545000636013600C46EBE70C464968CCE7C41C5C
:1054600024F00304A04205D0211A304600F02EF8A3
:105470000130CFD02560DBE7680200206C020020FD
:10548000F8B5074614460E4621B9BDE8F840114666
:10549000FFF79CBF22B9FFF74DFF25462846F8BD10
:1054A00000F033F8A0420FD221463846FFF78EFFB6
:1054B00005460028F2D031462246FFF72FFF31463D
:1054C0003846FFF737FFE9E73546E7E738B5002309
:1054D000054C054608462360FCF778F9431C02D1C9
:1054E000236803B12B6038BD4C04002049B1FF2A6A
:1054F0008BBF8A230A700360012088BF4FF0FF3002
:105500007047084670477047704751F8043C181FB1
:10551000002BBCBF0B58C01870470000F8B500BF87
:10552000F8BC08BC9E467047F8B500BFF8BC08BC84
:045530009E467047DC
:1055340002030405060708090A0B0C0D0E0F1010D0
:1055440002030405060708090A0B0C0D0E0F1010C0
:105554006D570008705700087357000825732025FD
:105564006420256420256420256420256420256486
:105574002025640000000000000000000102030474
:105584000607080900000000010203042E2E2F4420
:105594007269766572732F53544D3332463178787D
:1055A4005F48414C5F4472697665722F5372632F72
:1055B40073746D3332663178785F68616C5F6164EF
:1055C400632E63002E2E2F447269766572732F53F7
:1055D400544D3332463178785F48414C5F447269A8
:1055E4007665722F5372632F73746D33326631781C
:1055F400785F68616C5F636F727465782E63002EE8
:105604002E2F447269766572732F53544D3332468C
:105614003178785F48414C5F4472697665722F53E4
:1056240072632F73746D3332663178785F68616C9E
:105634005F646D612E63002E2E2F4472697665724D
:10564400732F53544D3332463178785F48414C5F61
:105654004472697665722F5372632F73746D33329B
:10566400663178785F68616C5F6770696F2E63007C
:105674002E2E2F447269766572732F53544D333234
:10568400463178785F48414C5F4472697665722F81
:105694005372632F73746D3332663178785F686147
:1056A4006C5F6932632E63002E2E2F447269766517
:1056B40072732F53544D3332463178785F48414CDE
:1056C4005F4472697665722F5372632F73746D33FE
:1056D40032663178785F68616C5F7263632E630051
:1056E4002E2E2F447269766572732F53544D3332C4
:1056F400463178785F48414C5F4472697665722F11
:105704005372632F73746D3332663178785F6861D6
:105714006C5F7263635F65782E63002E2E2F447274
:1057240069766572732F53544D3332463178785FFE
:1057340048414C5F4472697665722F5372632F73CC
:10574400746D3332663178785F68616C5F7274634C
:105754002E6300686C4C00412D46612D663839304B
:10576400313233343536375D002B2D00303000783C
:1057740058000000000000000000000000000000CD
:105784000000000000000000000000000000000015
:105794000000000000000000000000000000000005
:1057A40000000000000000000000000000000000F5
:1057B40000000000000000000000000000000000E5
:1057C40000000000000000000000000000000000D5
:1057D400000000004300504F534958002E000020A1
:1057E400202020202020202028282828282020208D
:1057F400202020202020202020202020202020883D
:1058040010101010101010101010101010101004A0
:1058140004040404040404040410101010101010F0
:1058240041414141414101010101010101010101E4
:1058340001010101010101010101101010101010FA
:1058440042424242424202020202020202020202B4
:1058540002020202020202020202101010102000D0
:105864000000000000000000000000000000000034
:105874000000000000000000000000000000000024
:105884000000000000000000000000000000000014
:105894000000000000000000000000000000000004
:1058A40000000000000000000000000000000000F4
:1058B40000000000000000000000000000000000E4
:1058C40000000000000000000000000000000000D4
:1058D40000000000000000000000000000000000C4
:0458E4003501000882
:0458E80011010008A2
:1058EC0000000000000001010101010100000000A6
:1058FC00000000000000000000000000000000009C
:10590C00000000000000000000000000000000008B
:10591C00000000000000000000000000000000007B
:10592C000000000000000000000000006153484F20
:10593C006952544364525443664D4155664D54521A
:10594C006641465866414654000000000024F400AD
:10595C0001000000100000007C000020000000008E
:10596C0098570008B8570008785700080000000046
:10597C00000000000000000000000000000000001B
:10598C00000000000000000000000000000000000B
:10599C0000000000000000000000000000000000FB
:1059AC0000000000000000000000000000000000EB
:1059BC000000000000000000000000004300000098
:1059CC0000000000000000000000000000000000CB
:1059DC000000000000000000000000004300000078
:1059EC0000000000000000000000000000000000AB
:1059FC000000000000000000000000004300000058
:105A0C00000000000000000000000000000000008A
:105A1C000000000000000000000000004300000037
:105A2C00000000000000000000000000000000006A
:105A3C000000000000000000000000004300000017
:105A4C00000000000000000000000000000000004A
:105A5C0000000000000000000000000043000000F7
:105A6C00000000000000000000000000000000002A
:105A7C0000000000000000000000000043000000D7
:105A8C00000000000000000000000000000000000A
:105A9C00000000000000000000000000ED540008B1
:105AAC00DD52000800000000E2570008E057000833
:105ABC006F5700086F5700086F5700086F570008A2
:105ACC006F5700086F5700086F5700086F57000892
