:020000040800F2
:100000000028002089080008290700083507000893
:10001000950700089B070008A107000800000000E2
:10002000000000000000000000000000A70700081A
:10003000B307000800000000BF070008CB07000856
:10004000D1080008D1080008D1080008D907000825
:10005000D1080008ED070008D1080008D108000801
:10006000D1080008D1080008D1080008D10800080C
:10007000D1080008D1080008D1080008D1080008FC
:10008000D1080008D1080008D1080008D1080008EC
:10009000D1080008D1080008D1080008D1080008DC
:1000A000D1080008D1080008D1080008D1080008CC
:1000B000D1080008D108000800000000F907000876
:1000C0000D0800080000000000000000D108000832
:1000D00000000000D1080008D1080008000000005E
:1000E000D1080008D1080008D1080008000000006D
:1000F0000000000000000000000000000000000000
:0C01000000000000000000005FF808F1A3
:10010C0010B5054C237833B9044B13B10448AFF345
:10011C0000800123237010BD0C00002000000000A3
:10012C00684D000808B5034B1BB103490348AFF3F6
:10013C00008008BD0000000010000020684D000881
:10014C0080B584B000AF3B1D00221A605A609A60E3
:10015C00184B194A1A60174B00229A60154B002253
:10016C001A73144B00221A75124B4FF46022DA6189
:10017C00104B00225A600F4B01221A610D4800F0FF
:10018C0005FC0346002B01D000F007FA00237B602E
:10019C000123BB600023FB603B1D1946054800F0A2
:1001AC005FFD0346002B01D000F0F7F900BF1037BC
:1001BC00BD4680BD280000200024014080B588B0D9
:1001CC0000AF786007F1100300221A605A609A6041
:1001DC00DA607B681B68144A934221D1134B9B69EC
:1001EC00124A43F400739361104B9B6903F4007340
:1001FC00FB60FB680D4B9B690C4A43F00403936155
:10020C000A4B9B6903F00403BB60BB683F233B6153
:10021C0003237B6107F110031946054801F0DCF854
:10022C0000BF2037BD4680BD0024014000100240B5
:10023C000008014080B58AB000AF07F1140300221A
:10024C001A605A609A60DA604B4B9B694A4A43F0D9
:10025C0010039361484B9B6903F010033B613B69AE
:10026C00454B9B69444A43F020039361424B9B6985
:10027C0003F02003FB60FB683F4B9B693E4A43F055
:10028C00040393613C4B9B6903F00403BB60BB68A4
:10029C00394B9B69384A43F008039361364B9B6991
:1002AC0003F008037B607B6800224FF4FC51334859
:1002BC0001F0BAFA00224FF23F71314801F0B4FA62
:1002CC004FF400537B610323BB6107F11403194600
:1002DC002C4801F081F803237B610323BB6107F1F8
:1002EC0014031946284801F077F84EF240037B615D
:1002FC000323BB6107F114031946204801F06CF885
:10030C004FF4FC537B610123BB610023FB6102238F
:10031C003B6207F114031946184801F05DF84FF2DF
:10032C003F737B610123BB610023FB6102233B62B2
:10033C0007F114031946124801F04EF84FF400630C
:10034C007B610323BB6107F1140319460C4801F0D0
:10035C0043F80E4B5B687B627B6A43F0E0637B6225
:10036C007B6A43F400437B62084A7B6A536000BF9C
:10037C002837BD4680BD00BF001002400008014078
:10038C00000C01400010014000140140000001402D
:10039C0080B500AF124B134A1A60114B124A5A60C7
:1003AC000F4B00229A600E4B2222DA600C4B4FF45A
:1003BC0080421A610A4B00225A61094B00229A6151
:1003CC00074B0022DA61064B00221A62044801F046
:1003DC005DFA0346002B01D000F0DFF800BF80BDB2
:1003EC005800002000540040A086010080B588B061
:1003FC0000AF786007F1100300221A605A609A600F
:10040C00DA607B681B681E4A934235D11D4B9B6991
:10041C001C4A43F0080393611A4B9B6903F00803D1
:10042C00FB60FB68C0233B6112237B610123BB6132
:10043C000323FB6107F110031946134800F0CCFFAE
:10044C00104BDB690F4A43F40013D3610D4BDB698E
:10045C0003F40013BB60BB68012200211F2000F0D5
:10046C00E9FE1F2000F012FF02220021202000F0E4
:10047C00E1FE202000F00AFF00BF2037BD4680BD02
:10048C000054004000100240000C014080B500AF49
:10049C0000F01AFA00F02CF8FFF7CCFEFFF750FE34
:1004AC00FFF776FF00F08AF80E48FFF79FFF012256
:1004BC0080210D4801F0B8F901220C49094801F0DE
:1004CC0087FB0346002B05D001224FF480710648B0
:1004DC0001F0AAF900224FF48071034801F0A4F94D
:1004EC00FEE700BF5800002000080140AC000020CF
:1004FC0080B594B000AF07F12803282200211846DC
:10050C0004F024FC07F1140300221A605A609A606C
:10051C00DA601A613B1D00221A605A609A60DA6038
:10052C000623BB6201237B630123BB631023FB63A4
:10053C0000237B6407F12803184602F097FF03465B
:10054C00002B01D000F029F80F237B610023BB6145
:10055C000023FB6100233B6200237B6207F1140341
:10056C000021184603F0F2FA0346002B01D000F0EC
:10057C0014F803237B604FF48073BB600023FB6093
:10058C003B1D184603F024FD0346002B01D000F060
:10059C0004F800BF5037BD4680BD80B400AF00BF2B
:1005AC00BD4680BC704780B483B000AF78603960C2
:1005BC0000BF0C37BD4680BC7047000080B582B0D0
:1005CC0000AF3B1D00210A461A800A469A70002390
:1005DC003B601D4B1D4A1A601B4B4FF0FF325A609B
:1005EC00194B4FF480729A60174803F0CDFE034606
:1005FC00002B01D0FFF7D1FF00233B7100237B714F
:10060C000023BB713B1D012219460F4803F086FFE6
:10061C000346002B01D0FFF7C0FF01233B700123E1
:10062C007B700123BB700023FB703B4601221946F3
:10063C00054804F059F80346002B01D0FFF7ADFF35
:10064C0000BF0837BD4680BDB00000200028004028
:10065C0080B584B000AF78607B681B680F4A93420A
:10066C0018D102F0F7FE0E4BDB690D4A43F0006324
:10067C00D3610B4BDB6903F00063FB60FB68094B38
:10068C0001221A6000220021032000F0D3FD032078
:10069C0000F0FCFD00BF1037BD4680BD00280040B7
:1006AC00001002403C04424280B584B000AF194BAC
:1006BC009B69184A43F001039361164B9B6903F045
:1006CC000103BB60BB68134BDB69124A43F08053D8
:1006DC00D361104BDB6903F080537B607B68002295
:1006EC000021052000F0A6FD052000F0CFFD0A4BEF
:1006FC005B68FB60FB6823F0E063FB60FB6843F026
:10070C008063FB60044AFB68536000BF1037BD4632
:10071C0080BD00BF001002400000014080B400AF5B
:10072C0000BFBD4680BC704780B487B000AF104B93
:10073C001B687B610F4B1B683B610F4B1B68FB609D
:10074C000E4B1B68BB600E4B1B687B600D4B1B6814
:10075C003B6000BE04205FEA0E01084202D0EFF3BA
:10076C00098001E0EFF30880816900BEFEE700BF5D
:10077C0028ED00E02CED00E030ED00E03CED00E079
:10078C0034ED00E038ED00E080B400AFFEE780B45B
:10079C0000AFFEE780B400AFFEE780B400AF00BF4F
:1007AC00BD4680BC704780B400AF00BFBD4680BC66
:1007BC00704780B400AF00BFBD4680BC704780B5A9
:1007CC0000AF00F0C7F800BF80BD000080B500AFDF
:1007DC00024804F051FA00BF80BD00BFB0000020F9
:1007EC0080B400AF00BFBD4680BC704780B500AF81
:1007FC00024801F05BFA00BF80BD00BF580000202A
:10080C0080B500AF024801F0B7FB00BF80BD00BF50
:10081C005800002080B400AF154B1B68144A43F0FD
:10082C0001031360124B5A681149124B13404B6071
:10083C000F4B1B680E4A23F0847323F48033136030
:10084C000B4B1B680A4A23F480231360084B5B682C
:10085C00074A23F4FE035360054B4FF41F029A60C2
:10086C00054B4FF000629A6000BFBD4680BC7047DC
:10087C00001002400000FFF800ED00E0002103E052
:10088C000B4B5B58435004310A480B4B42189A42AD
:10089C00F6D30A4A02E0002342F8043B084B9A4282
:1008AC00F9D3FFF7B7FF04F02DFAFFF7EFFD704710
:1008BC005C4F0008000000200C0000200C00002001
:1008CC00C8000020FEE7000080B500AF084B1B6895
:1008DC00074A43F010031360032000F08BFC002048
:1008EC0000F008F8FFF7E0FE0023184680BD00BFBB
:1008FC000020024080B582B000AF7860124B1A68BD
:10090C00124B1B7819464FF47A73B3FBF1F3B2FB1D
:10091C00F3F3184600F0D2FC0346002B01D0012360
:10092C000EE07B680F2B0AD8002279684FF0FF305D
:10093C0000F080FC064A7B681360002300E0012372
:10094C0018460837BD4680BD000000200800002076
:10095C000400002080B400AF054B1B781A46054BF1
:10096C001B681344034A136000BFBD4680BC70472C
:10097C0008000020C400002080B400AF024B1B68AC
:10098C001846BD4680BC7047C400002080B586B0B8
:10099C0000AF78600023FB7500233B610023BB6034
:1009AC000023FB607B68002B01D1012353E17B68A2
:1009BC001B689F4A934209D07B681B689D4A9342EF
:1009CC0004D040F2B3119C48FFF7EDFD7B685B68E7
:1009DC00002B09D07B685B68B3F5006F04D04FF433
:1009EC00DA719548FFF7DFFD7B689B68002B09D017
:1009FC007B689B68B3F5807F04D040F2B5118E48BC
:100A0C00FFF7D1FD7B681B7B002B08D07B681B7B21
:100A1C00012B04D04FF4DB718748FFF7C4FD7B68D2
:100A2C00DB69002B22D07B68DB69B3F5003F1DD05E
:100A3C007B68DB69B3F5C02F18D07B68DB69B3F535
:100A4C00002F13D07B68DB69B3F5202F0ED07B68A9
:100A5C00DB69B3F5402F09D07B68DB69B3F5602FF8
:100A6C0004D040F2B7117448FFF79DFD7B689B687A
:100A7C00002B2AD07B681B69002B03D07B681B6979
:100A8C00102B04D940F2BB116B48FFF78CFD7B682F
:100A9C001B7D002B08D07B681B7D012B04D04FF4F1
:100AAC00DE716548FFF77FFD7B681B7D002B0CD04A
:100ABC007B689B69002B03D07B689B69082B04D94E
:100ACC0040F2BF115C48FFF76EFD7B689B6A002B00
:100ADC0009D17B680022DA627B68002283F824202B
:100AEC007868FFF76BFB786800F07EFA0346FB75BD
:100AFC007B689B6A03F01003002B40F0A380FB7D06
:100B0C00002B40F09F807B689B6A23F4885323F072
:100B1C00020343F002027B689A627B685A687B6826
:100B2C00DB691A437B681B7B5B001343BA68134376
:100B3C00BB607B689B68B3F5807F03D07B689B6848
:100B4C00012B02D14FF4807300E000233A69134368
:100B5C003B617B681B7D012B19D17B681B7B002BB8
:100B6C0009D17B689B69013B5A033B69134343F4EE
:100B7C0000633B610BE07B689B6A43F020027B685F
:100B8C009A627B68DB6A43F001027B68DA627B68FD
:100B9C001B685B6823F469417B681B683A690A43EC
:100BAC005A607B681B689A68244B13407A681268F9
:100BBC00B9680B4393607B689B68B3F5807F03D067
:100BCC007B689B68012B04D17B681B69013B1B056F
:100BDC00FB607B681B68DB6A23F470017B681B6815
:100BEC00FA680A43DA627B681B689A68144B1340F4
:100BFC00BA689A420BD17B680022DA627B689B6AE6
:100C0C0023F0030343F001027B689A6222E07B68C5
:100C1C009B6A23F0120343F010027B689A627B6894
:100C2C00DB6A43F001027B68DA620123FB7511E099
:100C3C000024014000280140804D0008FDF7E1FF31
:100C4C00FE0E1FFF7B689B6A43F010027B689A6262
:100C5C000123FB75FB7D18461837BD4680BD00BFD0
:100C6C0080B584B000AF786039600023FB7300233B
:100C7C00BB607B681B68884A934209D07B681B6801
:100C8C00864A934204D040F2CE718548FFF78BFC24
:100C9C003B681B68002B48D03B681B68012B44D079
:100CAC003B681B68022B40D03B681B68032B3CD075
:100CBC003B681B68042B38D03B681B68052B34D071
:100CCC003B681B68062B30D03B681B68072B2CD06D
:100CDC003B681B68082B28D03B681B68092B24D069
:100CEC003B681B680A2B20D03B681B680B2B1CD065
:100CFC003B681B680C2B18D03B681B680D2B14D061
:100D0C003B681B680E2B10D03B681B680F2B0CD05C
:100D1C003B681B68102B08D03B681B68112B04D058
:100D2C0040F2CF715E48FFF73EFC3B685B68012BDD
:100D3C0040D03B685B68022B3CD03B685B68032B64
:100D4C0038D03B685B68042B34D03B685B68052B60
:100D5C0030D03B685B68062B2CD03B685B68072B5C
:100D6C0028D03B685B68082B24D03B685B68092B58
:100D7C0020D03B685B680A2B1CD03B685B680B2B54
:100D8C0018D03B685B680C2B14D03B685B680D2B50
:100D9C0010D03B685B680E2B0CD03B685B680F2B4C
:100DAC0008D03B685B68102B04D04FF4FA613C48C8
:100DBC00FFF7F9FB3B689B68002B20D03B689B68D6
:100DCC00012B1CD03B689B68022B18D03B689B689E
:100DDC00032B14D03B689B68042B10D03B689B689A
:100DEC00052B0CD03B689B68062B08D03B689B6896
:100DFC00072B04D040F2D1712948FFF7D4FB7B6854
:100E0C0093F82430012B01D10223E2E07B6801220C
:100E1C0083F824203B685B68062B1CD87B681B6816
:100E2C00596B3B685A6813469B001344053B1F22C1
:100E3C0002FA03F3DB4319403B6818683B685A68B5
:100E4C0013469B001344053B00FA03F27B681B68B6
:100E5C000A435A6342E03B685B680C2B22D87B68E0
:100E6C001B68196B3B685A6813469B001344233B61
:100E7C001F2202FA03F3DB4319403B6818683B68F6
:100E8C005A6813469B001344233B00FA03F27B6819
:100E9C001B680A431A6321E000240140002801402A
:100EAC00804D00087B681B68D96A3B685A681346FA
:100EBC009B001344413B1F2202FA03F3DB4319400E
:100ECC003B6818683B685A6813469B001344413BC7
:100EDC0000FA03F27B681B680A43DA623B681B6802
:100EEC00092B1CD97B681B68D9683B681A681346A8
:100EFC005B0013441E3B072202FA03F3DB43194049
:100F0C003B6898683B681A6813465B0013441E3BA9
:100F1C0000FA03F27B681B680A43DA6019E07B680D
:100F2C001B6819693B681A6813465B001344072257
:100F3C0002FA03F3DB4319403B6898683B681A6874
:100F4C0013465B00134400FA03F27B681B680A43E8
:100F5C001A613B681B68102B03D03B681B68112B74
:100F6C0032D17B681B681D4A934225D17B681B6874
:100F7C009B6803F40003002B26D17B681B689A68DE
:100F8C007B681B6842F400029A603B681B68102B5C
:100F9C001AD1134B1B68134AA2FB03239A0C13465A
:100FAC009B0013445B00BB6002E0BB68013BBB6071
:100FBC00BB68002BF9D107E07B689B6A43F02002E9
:100FCC007B689A620123FB737B68002283F82420E0
:100FDC00FB7B18461037BD4680BD00BF0024014086
:100FEC000000002083DE1B4380B584B000AF786026
:100FFC000023FB607B681B689B6803F00103012BDB
:10100C0027D17B681B689A687B681B6822F00102F9
:10101C009A60FFF7B1FCF86014E0FFF7ADFC0246F4
:10102C00FB68D31A022B0DD97B689B6A43F0100224
:10103C007B689A627B68DB6A43F001027B68DA6248
:10104C00012307E07B681B689B6803F00103012BFD
:10105C00E3D0002318461037BD4680BD80B485B060
:10106C0000AF78607B6803F00703FB600C4BDB6818
:10107C00BB60BA684FF6FF031340BB60FB681A02F3
:10108C00BB68134343F0BF6343F40033BB60044AB3
:10109C00BB68D36000BF1437BD4680BC704700BF2F
:1010AC0000ED00E080B400AF044BDB681B0A03F0DA
:1010BC0007031846BD4680BC704700BF00ED00E03A
:1010CC0080B483B000AF0346FB7197F90730002B57
:1010DC000BDBFB7903F01F02064997F907305B091C
:1010EC00012000FA02F241F8232000BF0C37BD4664
:1010FC0080BC704700E100E080B483B000AF0346D1
:10110C003960FB7197F90730002B0ADB3B68DAB2C8
:10111C000C4997F907301201D2B20B4483F8002323
:10112C000AE03B68DAB20849FB7903F00F03043B91
:10113C001201D2B20B441A7600BF0C37BD4680BCEC
:10114C00704700BF00E100E000ED00E080B489B022
:10115C0000AFF860B9607A60FB6803F00703FB61CD
:10116C00FB69C3F10703042B28BF0423BB61FB6994
:10117C000433062B02D9FB69033B00E000237B619F
:10118C004FF0FF32BB6902FA03F3DA43BB681A4033
:10119C007B699A404FF0FF317B6901FA03F3D94325
:1011AC007B680B40134318462437BD4680BC704700
:1011BC0080B582B000AF78607B68013BB3F1807F73
:1011CC0001D301230FE00A4A7B68013B53600F21D6
:1011DC004FF0FF30FFF790FF054B00229A60044B55
:1011EC0007221A60002318460837BD4680BD00BF91
:1011FC0010E000E080B582B000AF78607B68072B10
:10120C000FD07B68062B0CD07B68052B09D07B6834
:10121C00042B06D07B68032B03D092210448FFF7E4
:10122C00C2F97868FFF71AFF00BF0837BD4680BDCA
:10123C00B84D000880B586B000AF0346B9607A603F
:10124C00FB7300237B617B680F2B03D9AA210E480B
:10125C00FFF7A9F9BB680F2B03D9AB210A48FFF79D
:10126C00A2F9FFF71FFF78617A68B9687869FFF710
:10127C006DFF024697F90F3011461846FFF73CFFF9
:10128C0000BF1837BD4680BDB84D000880B582B090
:10129C0000AF0346FB7197F90730002B03DABE2130
:1012AC000548FFF780F997F907301846FFF708FF54
:1012BC0000BF0837BD4680BDB84D000880B582B070
:1012CC0000AF78607868FFF773FF0346184608375D
:1012DC00BD4680BD80B584B000AF78600023FB7341
:1012EC007B6893F82130022B05D07B6804229A632B
:1012FC000123FB7351E07B681B681A687B681B68D1
:10130C0022F00E021A607B681B681A687B681B68E7
:10131C0022F001021A607B681B68224A934229D092
:10132C007B681B68204A934222D07B681B681F4A4B
:10133C0093421AD07B681B681D4A934212D07B687B
:10134C001B681C4A93420AD07B681B681A4A93425A
:10135C0002D14FF480130EE04FF080730BE04FF48A
:10136C00803308E04FF4805305E04FF4807302E0C3
:10137C00102300E00123114A53607B68012283F89B
:10138C0021207B68002283F820207B685B6B002B7C
:10139C0003D07B685B6B78689847FB7B18461037EB
:1013AC00BD4680BD080002401C00024030000240D7
:1013BC0044000240580002406C0002400000024011
:1013CC0080B483B000AF78607B6893F82130184606
:1013DC000C37BD4680BC704780B58AB000AF7860D2
:1013EC00396000237B6200233B627B689C4A9342FA
:1013FC000FD07B689B4A93420BD07B689A4A9342EE
:10140C0007D07B68994A934203D0BD219848FFF7D7
:10141C00CAF83B681B689BB2002B05D03B681B6865
:10142C001B0C1B04002B03D0BE219148FFF7BBF80B
:10143C003B685B68002B00F0DF813B685B68012B2D
:10144C0000F0DA813B685B68112B00F0D5813B68BA
:10145C005B68022B00F0D0813B685B68122B00F0BC
:10146C00CB813B685B68834A934200F0C5813B6843
:10147C005B68814A934200F0BF813B685B687F4A9E
:10148C00934200F0B9813B685B687D4A934200F05F
:10149C00B3813B685B687B4A934200F0AD813B684B
:1014AC005B68794A934200F0A7813B685B68032B29
:1014BC0000F0A281BF216E48FFF775F89CE1012274
:1014CC007B6A02FA03F3FB613B681B68FA69134001
:1014DC00BB61BA69FB699A4240F08B817B68604AB8
:1014EC0093420FD07B685F4A93420BD07B685E4A75
:1014FC00934207D07B685D4A934203D0CD215C4870
:10150C00FFF751F83B685B68122B65D0122B0ED895
:10151C00022B4CD0022B04D8002B72D0012B1DD0E7
:10152C0099E0032B00F09480112B2BD093E0524ABE
:10153C00934266D0504A934206D84E4A934260D0AA
:10154C004F4A93425DD086E04C4A934259D04E4A62
:10155C00934256D04B4A934253D07CE03B68DB68B5
:10156C00022B0BD03B68DB68012B07D03B68DB6898
:10157C00032B03D0D5213E48FFF715F83B68DB68F9
:10158C003B6268E03B68DB68022B0BD03B68DB6896
:10159C00012B07D03B68DB68032B03D0DC213448DC
:1015AC00FFF701F83B68DB6804333B6253E03B68B0
:1015BC00DB68022B0BD03B68DB68012B07D03B6848
:1015CC00DB68032B03D0E3212948FEF7ECFF3B68D3
:1015DC00DB6808333B623EE03B68DB68022B0BD0D8
:1015EC003B68DB68012B07D03B68DB68032B03D01F
:1015FC00EA211F48FEF7D7FF3B68DB680C333B62E0
:10160C0029E03B689B68002B0BD03B689B68012B47
:10161C0007D03B689B68022B03D0F7211448FEF7D8
:10162C00C2FF3B689B68002B02D104233B6212E093
:10163C003B689B68012B05D108233B627B68FA69E8
:10164C001A6108E008233B627B68FA695A6102E080
:10165C0000233B6200BFBB69FF2B17D87B6817E0E8
:10166C0000080140000C0140001001400014014032
:10167C00F44D000800001110000021100000311082
:10168C000000121000002210000032107B6804339E
:10169C007B61BB69FF2B02D87B6A9B0002E07B6AF3
:1016AC00083B9B003B617B691A680F213B6901FA7F
:1016BC0003F3DB431A40396A3B6901FA03F31A431B
:1016CC007B691A603B685B6803F08053002B00F069
:1016DC0090804F4B9B694E4A43F0010393614C4BF6
:1016EC009B6903F00103BB60BB684A4A7B6A9B0899
:1016FC00023352F82330FB607B6A03F003039B0038
:10170C000F2202FA03F3DB43FA681340FB607B6899
:10171C00414A93420DD07B68404A934207D07B6884
:10172C003F4A934201D1022304E0032302E0012348
:10173C0000E000237A6A02F0030292009340FA68F8
:10174C001343FB6033497B6A9B080233FA6841F808
:10175C0023203B685B6803F48033002B06D0314BAD
:10176C001A683049BB6913430B6006E02D4B1A68AD
:10177C00BB69DB432B4913400B603B685B6803F48C
:10178C000033002B06D0274B5A682649BB691343FC
:10179C004B6006E0234B5A68BB69DB43214913407D
:1017AC004B603B685B6803F48013002B06D01D4B29
:1017BC009A681C49BB6913438B6006E0194B9A6805
:1017CC00BB69DB43174913408B603B685B6803F4D0
:1017DC000013002B06D0134BDA681249BB69134374
:1017EC00CB6006E00F4BDA68BB69DB430D49134055
:1017FC00CB607B6A01337B623B681A687B6A22FA96
:10180C0003F3002B7FF45BAE00BF2837BD4680BDD1
:10181C00001002400000014000080140000C014093
:10182C00001001400004014080B582B000AF786028
:10183C000B467B8013467B707B88002B04D07B8807
:10184C001B0C1B04002B04D04FF4EA710E48FEF75E
:10185C00AAFE7B78002B07D07B78012B04D040F2BA
:10186C00D5110948FEF79FFE7B78002B03D07A88B0
:10187C007B681A6103E07B881A047B681A6100BFDD
:10188C000837BD4680BD00BFF44D000880B584B05C
:10189C0000AF78607B68002B01D1012393E17B685A
:1018AC001B68954A934204D040F2CD119348FEF741
:1018BC007AFE7B685B68002B04D07B685B68904A7F
:1018CC00934204D94FF4E7718C48FEF76CFE7B68A9
:1018DC009B68002B09D07B689B68B3F5804F04D0C4
:1018EC0040F2CF118548FEF75EFE7B68DB6823F47F
:1018FC007F7323F00303002B04D04FF4E8717F486F
:10190C00FEF751FE7B681B69B3F5804F09D07B68ED
:10191C001B69B3F5404F04D040F2D1117748FEF764
:10192C0042FE7B685B69002B08D07B685B69012BEE
:10193C0004D04FF4E9717148FEF735FE7B689B6962
:10194C0023F0FE03002B04D040F2D3116B48FEF7BA
:10195C002AFE7B68DB69002B08D07B68DB69402B97
:10196C0004D04FF4EA716548FEF71DFE7B681B6AD4
:10197C00002B08D07B681B6A802B04D040F2D51159
:10198C005E48FEF710FE7B6893F83D30DBB2002B0F
:10199C0006D17B68002283F83C207868FEF726FD90
:1019AC007B68242283F83D207B681B681A687B685F
:1019BC001B6822F001021A6002F0C4FAF8607B681E
:1019CC005B68504A934207D8FB684F4A934294BFD6
:1019DC0001230023DBB206E0FB684C4A934294BF20
:1019EC0001230023DBB2002B01D00123EBE0FB68C9
:1019FC00474AA2FB03239B0CBB607B681B685B689C
:101A0C0023F03F017B681B68BA680A435A607B6805
:101A1C001B681B6A23F03F017B685B68394A934261
:101A2C0002D8BB68013309E0BB684FF4967202FB25
:101A3C0003F3384AA2FB03239B0901337A6812682B
:101A4C000B4313627B681B68DB6923F44F4222F063
:101A5C00FF027B685B682B498B420DD8FB68591ED3
:101A6C007B685B685B00B1FBF3F30133C3F30B03DF
:101A7C00042B38BF04235FE07B689B68002B11D1DB
:101A8C00FB68581E7B6859680B465B000B44B0FB27
:101A9C00F3F30133C3F30B03002B0CBF012300231F
:101AAC00DBB212E0FB68581E7B6859680B469B0042
:101ABC000B4499000B44B0FBF3F30133C3F30B035A
:101ACC00002B0CBF01230023DBB2002B01D0012320
:101ADC0032E07B689B68002B1ED1FB68581E7B682C
:101AEC0059680B465B000B44B0FBF3F30133C3F3B3
:101AFC000B0343F400431FE000540040304E000839
:101B0C00801A0600A08601007F841E00FF083D009D
:101B1C0083DE1B43D34D6210FB68581E7B685968EB
:101B2C000B469B000B4499000B44B0FBF3F30133C1
:101B3C00C3F30B0343F44043796809681343CB6147
:101B4C007B681B681B6823F0C0017B68DA697B68C3
:101B5C001B6A1A437B681B680A431A607B681B6804
:101B6C009B6823F4034323F0FF037A6811697A68B6
:101B7C00D26811437A6812680B4393607B681B68C8
:101B8C00DB6823F0FF017B685A697B689B691A4309
:101B9C007B681B680A43DA607B681B681A687B6881
:101BAC001B6842F001021A607B6800221A647B6891
:101BBC00202283F83D207B6800221A637B68002278
:101BCC0083F83E20002318461037BD4680BD00BF69
:101BDC0080B485B000AFF860B9601346FB80FB6839
:101BEC0093F83D30DBB2202B58D1BB68002B02D0D0
:101BFC00FB88002B01D1012351E0FB6893F83C30AA
:101C0C00012B01D102234AE0FB68012283F83C201E
:101C1C00FB681B681B6803F00103012B07D0FB68F2
:101C2C001B681A68FB681B6842F001021A60FB68AB
:101C3C001B681A68FB681B6822F400621A60FB6858
:101C4C00222283F83D20FB68202283F83E20FB688B
:101C5C0000221A64FB68BA685A62FB68FA885A85D3
:101C6C00FB685B8D9AB2FB681A85FB680E4ADA62D8
:101C7C00FB681B681A68FB681B6842F480621A6078
:101C8C00FB68002283F83C20FB681B685A68FB68E1
:101C9C001B6842F4E0625A60002300E002231846FD
:101CAC001437BD4680BC70470000FFFF80B588B07C
:101CBC0000AF78600023BB617B681B685B687B614D
:101CCC007B68DB6A3B617B6893F83E30FB737B6817
:101CDC0093F83D30BB73FB7B102B03D0FB7B402B6D
:101CEC0040F0B6807B681B689B69BB617B681B6896
:101CFC005B69FB61FB6903F00103002B0DD13B69B0
:101D0C00B3F52A0F03D03B69B3F12A4F01D101235C
:101D1C0000E00023012B00F02781FB6903F0010395
:101D2C00002B0CD07B695B0A03F00103002B06D05F
:101D3C00786801F074FB786800F003FD87E0FB69BC
:101D4C00DB0803F00103002B09D07B695B0A03F06D
:101D5C000103002B03D0786800F078FD77E0FB6975
:101D6C005B0803F00103002B09D07B695B0A03F0CD
:101D7C000103002B03D0786800F091FD67E0BB698C
:101D8C009B0803F00103002B30D07B681B685B6859
:101D9C0003F40063B3F5006F00F0E880FB69DB0926
:101DAC0003F00103002B0FD07B699B0A03F00103A6
:101DBC00002B09D0FB699B0803F00103002B03D116
:101DCC00786800F0E4F942E0FB699B0803F001033A
:101DDC00002B00F0CB807B695B0A03F00103002B26
:101DEC0000F0C480786800F0CAFABFE07B681B681A
:101DFC005B6803F40063B3F5006F00F0B780FB6918
:101E0C009B0903F00103002B0FD07B699B0A03F0A5
:101E1C000103002B09D0FB699B0803F00103002B85
:101E2C0003D1786800F021FB11E0FB699B0803F0FB
:101E3C000103002B00F09A807B695B0A03F001031D
:101E4C00002B00F09380786800F091FB8EE08DE021
:101E5C007B681B6C002B04D07B681B685B69FB6187
:101E6C0007E07B681B689B69BB617B681B685B69CF
:101E7C00FB61FB695B0803F00103002B12D07B694B
:101E8C005B0A03F00103002B0CD07B681B6C002B4E
:101E9C0003D07B681B689B69BB61B969786800F0EB
:101EAC0055FF66E0FB691B0903F00103002B09D009
:101EBC007B695B0A03F00103002B03D0786800F008
:101ECC0089FF56E0BB7B212B02D0BB7B292B25D174
:101EDC00FB69DB0903F00103002B0FD07B699B0A24
:101EEC0003F00103002B09D0FB699B0803F00103ED
:101EFC00002B03D1786800F06DFE39E0FB699B087C
:101F0C0003F00103002B33D07B695B0A03F0010360
:101F1C00002B2DD0786800F09AFE29E0FB699B0914
:101F2C0003F00103002B0FD07B699B0A03F0010324
:101F3C00002B09D0FB699B0803F00103002B03D194
:101F4C00786800F0A4FE14E0FB699B0803F0010321
:101F5C00002B0ED07B695B0A03F00103002B08D029
:101F6C00786800F0D2FE04E000BF02E000BF00E0A1
:101F7C0000BF2037BD4680BD80B58AB000AF786009
:101F8C007B681B685B693B627B681B685B68FB61F9
:101F9C0000237B623B6A1B0A03F00103002B16D063
:101FAC00FB691B0A03F00103002B10D07B6A43F082
:101FBC0001037B627B681B686FF480725A617B68DB
:101FCC001B681A687B681B6842F400421A603B6A03
:101FDC005B0A03F00103002B0ED0FB691B0A03F014
:101FEC000103002B08D07B6A43F002037B627B6801
:101FFC001B686FF400725A613B6A9B0A03F0010381
:10200C00002B41D0FB691B0A03F00103002B3BD0D2
:10201C007B6893F83E30FB767B685B8D9BB27B6173
:10202C007B6893F83D30FB747B681B6BFB60FB7E1D
:10203C00202B12D17B69002B0FD1FB7C212B08D0DC
:10204C00FB7C292B05D0FB7C282B06D1FB68212B94
:10205C0003D1786800F0EEFF16E07B681B686FF424
:10206C0080625A617B6A43F004037B627B6893F85D
:10207C003E30DBB2102B07D17B681B681A687B687B
:10208C001B6842F400721A603B6ADB0A03F001031E
:10209C00002B0ED0FB691B0A03F00103002B08D0A8
:1020AC007B6A43F008037B627B681B686FF40062F9
:1020BC005A617B6A002B08D07B681A6C7B6A1A43C6
:1020CC007B681A64786801F025F800BF2837BD4694
:1020DC0080BD80B483B000AF786000BF0C37BD46C4
:1020EC0080BC704780B483B000AF786000BF0C3701
:1020FC00BD4680BC704780B483B000AF786000BF31
:10210C000C37BD4680BC704780B483B000AF78609C
:10211C0000BF0C37BD4680BC704780B483B000AFA5
:10212C0078600B46FB7013463B8000BF0C37BD46F6
:10213C0080BC704780B483B000AF786000BF0C37B0
:10214C00BD4680BC704780B483B000AF786000BFE0
:10215C000C37BD4680BC704780B483B000AF78604C
:10216C0000BF0C37BD4680BC704780B483B000AF55
:10217C00786000BF0C37BD4680BC704780B483B01C
:10218C0000AF786000BF0C37BD4680BC704780B58F
:10219C0084B000AF78607B6893F83D30FB737B684C
:1021AC0093F83E30BB737B68DB6ABB607B681B8D2E
:1021BC00002B50D1FB7B212B4DD1BB68082B1DD0A4
:1021CC00BB68202B1AD0BB6813F5803F16D07B68F8
:1021DC001B685A687B681B6822F4E0625A607B6853
:1021EC0011221A637B68002283F83E207B68202230
:1021FC0083F83D207868FFF76CFFBCE07B681B68B8
:10220C005A687B681B6822F4E0625A607B681B6822
:10221C001A687B681B6842F400721A607B680022A3
:10222C001A637B68202283F83D207B6893F83E304C
:10223C00DBB2402B07D17B68002283F83E20786804
:10224C00FFF781FF97E07B68002283F83E207868D7
:10225C00FFF73FFF8FE0FB7B212B07D0BB7B402B95
:10226C0040F08980FB7B222B40F085807B685B8D66
:10227C009BB2002B08D17B681B685A687B681B6873
:10228C0022F480625A6076E07B6893F83E30DBB2D1
:10229C00402B5DD17B681B6D002B1DD17B68DB6CEB
:1022AC00012B0BD17B689B6CDAB27B681B681A61C3
:1022BC007B681B6D9A1C7B681A655CE07B689B6C69
:1022CC009BB21B12DAB27B681B681A617B681B6DB0
:1022DC005A1C7B681A654EE07B681B6D012B0BD179
:1022EC007B689B6CDAB27B681B681A617B681B6D20
:1022FC005A1C7B681A653EE07B681B6D022B3AD139
:10230C007B6893F83D30DBB2222B08D17B681B68CD
:10231C001A687B681B6842F480721A602BE07B6839
:10232C0093F83D30DBB2212B25D17B685B6A1A78A0
:10233C007B681B681A617B685B6A5A1C7B685A62F3
:10234C007B685B8D9BB2013B9AB27B685A8512E02D
:10235C007B685B6A1A787B681B681A617B685B6AAE
:10236C005A1C7B685A627B685B8D9BB2013B9AB2AC
:10237C007B685A85FFE700BF1037BD4680BD80B52E
:10238C0084B000AF78607B68DB6AFB607B6893F895
:10239C003D30DBB2212B64D17B685B8D9BB2002B73
:1023AC0012D07B685B6A1A787B681B681A617B6841
:1023BC005B6A5A1C7B685A627B685B8D9BB2013BE3
:1023CC009AB27B685A854CE0FB68082B1DD0FB68E1
:1023DC00202B1AD0FB6813F5803F16D07B681B6846
:1023EC005A687B681B6822F4E0625A607B68112291
:1023FC001A637B68002283F83E207B68202283F8D6
:10240C003D207868FFF765FE2BE07B681B685A68F7
:10241C007B681B6822F4E0625A607B681B681A6850
:10242C007B681B6842F400721A607B6800221A6396
:10243C007B68202283F83D207B6893F83E30DBB22A
:10244C00402B07D17B68002283F83E207868FFF789
:10245C007AFE06E07B68002283F83E207868FFF75E
:10246C0038FE00BF1037BD4680BD80B584B000AFCC
:10247C0078607B6893F83D30DBB2222B73D17B689C
:10248C005B8D9BB2FB60FB68032B20D97B681B68C0
:10249C001A697B685B6AD2B21A707B685B6A5A1CD9
:1024AC007B685A627B685B8D9BB2013B9AB27B68FE
:1024BC005A857B685B8D9BB2032B54D17B681B6860
:1024CC005A687B681B6822F480625A604BE07B6818
:1024DC00DB6A022B47D0FB68012B02D0FB68002B78
:1024EC0041D17B681B681A687B681B6822F4806288
:1024FC001A607B681B685A687B681B6822F4E06270
:10250C005A607B681B681A697B685B6AD2B21A7066
:10251C007B685B6A5A1C7B685A627B685B8D9BB2DA
:10252C00013B9AB27B685A857B68202283F83D2058
:10253C007B6893F83E30DBB2402B0AD17B680022DB
:10254C0083F83E207B6800221A637868FFF704FE4C
:10255C0009E07B68002283F83E207B6812221A6314
:10256C007868FFF7BFFD00BF1037BD4680BD80B552
:10257C0084B000AF78607B68DB6AFB607B685B8D46
:10258C009BB2042B1BD17B681B685A687B681B6849
:10259C0022F480625A607B681B681A697B685B6AEC
:1025AC00D2B21A707B685B6A5A1C7B685A627B6871
:1025BC005B8D9BB2013B9AB27B685A85BDE07B6810
:1025CC005B8D9BB2032B29D17B681B685A687B6897
:1025DC001B6822F480625A60FB68042B0AD0FB68EB
:1025EC00022B07D07B681B681A687B681B6822F477
:1025FC0080621A607B681B681A697B685B6AD2B25E
:10260C001A707B685B6A5A1C7B685A627B685B8DAC
:10261C009BB2013B9AB27B685A858EE07B685B8DDE
:10262C009BB2022B76D1FB68012B02D0FB68102BDE
:10263C0008D17B681B681A687B681B6822F480626F
:10264C001A6019E0FB68042B02D0FB68022B08D13E
:10265C007B681B681A687B681B6842F480621A608E
:10266C000AE0FB68102B07D07B681B681A687B6834
:10267C001B6842F400721A607B681B681A697B68DD
:10268C005B6AD2B21A707B685B6A5A1C7B685A62AE
:10269C007B685B8D9BB2013B9AB27B685A857B68E9
:1026AC001B681A697B685B6AD2B21A707B685B6ABA
:1026BC005A1C7B685A627B685B8D9BB2013B9AB259
:1026CC007B685A857B681B685A687B681B6822F498
:1026DC0040725A607B68202283F83D207B6893F817
:1026EC003E30DBB2402B0AD17B68002283F83E20BF
:1026FC007B6800221A637868FFF72EFD1DE07B686B
:10270C00002283F83E207B6812221A637868FFF758
:10271C00E9FC12E07B681B681A697B685B6AD2B2C1
:10272C001A707B685B6A5A1C7B685A627B685B8D8B
:10273C009BB2013B9AB27B685A8500BF1037BD46ED
:10274C0080BD80B483B000AF78607B6893F83E3076
:10275C00DBB2402B17D17B681B6D002B09D17B683A
:10276C005B6CDBB21A467B681B6802F0FE021A61D6
:10277C0067E07B685B6CDBB243F00103DAB27B6829
:10278C001B681A615DE07B681B69B3F5804F33D120
:10279C007B6893F83D30DBB2212B09D17B685B6CF5
:1027AC00DBB21A467B681B6802F0FE021A6108E075
:1027BC007B685B6CDBB243F00103DAB27B681B68AD
:1027CC001A617B685B6B002B03D17B689B6B002BC6
:1027DC0037D07B685B6B9B6A002B04D17B689B6B4F
:1027EC009B6A002B2DD07B681B685A687B681B6822
:1027FC0042F400625A6024E07B681B6D002B0ED102
:10280C007B685B6C9BB2DB11DBB203F00603DBB2C3
:10281C0063F00F03DAB27B681B681A6111E07B6806
:10282C001B6D012B0DD17B685B6C9BB2DB11DBB29A
:10283C0003F00603DBB263F00E03DAB27B681B68AD
:10284C001A6100BF0C37BD4680BC704780B483B0A2
:10285C0000AF78607B685B6CDAB27B681B681A61CE
:10286C007B685B6B002B03D17B689B6B002B11D0BF
:10287C007B685B6B9B6A002B04D17B689B6B9B6AB0
:10288C00002B07D07B681B685A687B681B6842F476
:10289C0000625A6000BF0C37BD4680BC704780B4E4
:1028AC0091B000AF78607B6893F83E3087F83F308A
:1028BC007B68DB6ABB637B681B6B7B637B6893F811
:1028CC003D30DBB2222B40F074817B681B6D002BFA
:1028DC000FD197F83F30402B0BD100233B637B6823
:1028EC001B685B693B637B681B689B693B633B6B49
:1028FC006BE17B681B6D002B1DD17B681B69B3F5ED
:10290C00404F18D10023FB627B681B685B69FB623C
:10291C007B681B689B69FB62FB6A7B681B681A6897
:10292C007B681B6842F480721A607B681B6D5A1CB2
:10293C007B681A6549E17B685B8D9BB2002B13D1D8
:10294C000023BB627B681B685B69BB627B681B688E
:10295C009B69BB62BB6A7B681B681A687B681B68D7
:10296C0042F400721A6020E17B685B8D9BB2012BF4
:10297C0040F08A80BB6B13F5803F37D17B681B68B6
:10298C001A687B681B6822F480621A607B681B687B
:10299C005B6803F40063B3F5006F13D17B681B68AD
:1029AC001A687B681B6822F480621A6000237B62C1
:1029BC007B681B685B697B627B681B689B697B62BD
:1029CC007B6AF2E000233B627B681B685B693B62BD
:1029DC007B681B689B693B623B6A7B681B681A6857
:1029EC007B681B6842F400721A60DEE0BB6B082B3C
:1029FC002ED0BB6B202B2BD07B6B122B02D1BB6B45
:102A0C00012B25D1BB6B042B0ED0BB6B022B0BD037
:102A1C00BB6B102B08D07B681B681A687B681B6823
:102A2C0022F480621A6007E07B681B681A687B6876
:102A3C001B6842F480621A600023FB617B681B6890
:102A4C005B69FB617B681B689B69FB61FB69ACE0A4
:102A5C007B681B681A687B681B6822F480621A60AA
:102A6C000023BB617B681B685B69BB617B681B686F
:102A7C009B69BB61BB697B681B681A687B681B68B8
:102A8C0042F400721A6090E07B685B8D9BB2022B63
:102A9C0058D1BB6B042B21D0BB6B022B1ED0BB6B54
:102AAC00102B1BD07B681B681A687B681B6842F470
:102ABC0000621A6000237B617B681B685B697B6129
:102ACC007B681B689B697B617B697B681B681A68E8
:102ADC007B681B6822F480621A6012E07B681B68BA
:102AEC001A687B681B6842F480621A6000233B61A1
:102AFC007B681B685B693B617B681B689B693B61FE
:102B0C003B697B681B685B6803F40063B3F5006F7B
:102B1C004BD1BB6B13F5803F0BD0BB6B012B08D09B
:102B2C00BB6B082B05D0BB6B102B02D0BB6B202BC7
:102B3C003BD17B681B685A687B681B6842F48052E7
:102B4C005A6032E07B681B681A687B681B6842F429
:102B5C0080621A607B681B685B6803F40063B3F5E2
:102B6C00006F17D1BB6B13F5803F0BD0BB6B012BE8
:102B7C0008D0BB6B082B05D0BB6B102B02D0BB6BEA
:102B8C00202B07D17B681B685A687B681B6842F452
:102B9C0080525A600023FB607B681B685B69FB609A
:102BAC007B681B689B69FB60FB687B6800221A656D
:102BBC000BE00023BB607B681B685B69BB607B68B8
:102BCC001B689B69BB60BB68FFE700BF4437BD4611
:102BDC0080BC704780B584B000AF78607B6893F898
:102BEC003D30FB737B685B8D9BB2002B2BD07B68DD
:102BFC005B6A1A787B681B681A617B685B6A5A1C73
:102C0C007B685A627B685B8D9BB2013B9AB27B6896
:102C1C005A857B685B8D9BB2002B14D1FB7B292BD7
:102C2C0011D17B681B685A687B681B6822F4806230
:102C3C005A607B6821221A637B68282283F83D2026
:102C4C007868FFF758FA00BF1037BD4680BD80B4D6
:102C5C0083B000AF78607B685B8D9BB2002B11D08A
:102C6C007B685B6A1A787B681B681A617B685B6A95
:102C7C005A1C7B685A627B685B8D9BB2013B9AB293
:102C8C007B685A8500BF0C37BD4680BC704780B549
:102C9C0084B000AF78607B6893F83D30FB737B6841
:102CAC005B8D9BB2002B2CD07B681B681A697B68F0
:102CBC005B6AD2B21A707B685B6A5A1C7B685A6278
:102CCC007B685B8D9BB2013B9AB27B685A857B68B3
:102CDC005B8D9BB2002B14D1FB7B2A2B11D17B6813
:102CEC001B685A687B681B6822F480625A607B6898
:102CFC0022221A637B68282283F83D207868FFF72C
:102D0C0003FA00BF1037BD4680BD80B483B000AF5E
:102D1C0078607B685B8D9BB2002B12D07B681B6844
:102D2C001A697B685B6AD2B21A707B685B6A5A1C40
:102D3C007B685A627B685B8D9BB2013B9AB27B6865
:102D4C005A8500BF0C37BD4680BC704780B584B037
:102D5C0000AF786039600023FB737B6893F83D30DB
:102D6C00DBB203F02803282B27D17B681B685A6839
:102D7C007B681B6822F480625A603B689B0803F0F6
:102D8C000103002B01D10123FB733B68DB0903F02A
:102D9C000103002B03D17B68DB68BB8102E07B68FD
:102DAC009B69BB817B68002283F83C20BA89FB7B42
:102DBC0019467868FFF7B1F908E07B681B686FF07B
:102DCC0002025A617B68002283F83C2000BF103756
:102DDC00BD4680BD80B584B000AF78607B6893F849
:102DEC003D30FB737B681B685A687B681B6822F458
:102DFC00E0625A600023BB607B681B685B69BB6048
:102E0C007B681B681A687B681B6842F001021A60B9
:102E1C00BB687B681B681A687B681B6822F480623D
:102E2C001A607B681B685B6803F40063B3F5006F82
:102E3C0072D1FB7B222B02D0FB7B2A2B35D17B68FA
:102E4C009B6B1B685B689AB27B685A857B685B8D51
:102E5C009BB2002B05D07B681B6C43F004027B6893
:102E6C001A647B681B685A687B681B6822F40062D2
:102E7C005A607B689B6B1846FEF7A2FA0346012B3F
:102E8C0049D07B689B6B694A5A637B689B6B18467D
:102E9C00FEF720FA0346002B3DD07B689B6B5B6BE7
:102EAC007A68926B1046984735E07B685B6B1B68C1
:102EBC005B689AB27B685A857B685B8D9BB2002BF2
:102ECC0005D07B681B6C43F004027B681A647B683A
:102EDC001B685A687B681B6822F400625A607B6826
:102EEC005B6B1846FEF76CFA0346012B14D07B681B
:102EFC005B6B4E4A5A637B685B6B1846FEF7EAF9CC
:102F0C000346002B08D07B685B6B5B6B7A68526B5B
:102F1C001046984700E000BF7B685B8D9BB2002B8E
:102F2C003ED07B681B685B6903F00403042B12D151
:102F3C007B681B681A697B685B6AD2B21A707B6803
:102F4C005B6A5A1C7B685A627B685B8D9BB2013B47
:102F5C009AB27B685A857B681B685B6903F04003F7
:102F6C00402B12D17B681B681A697B685B6AD2B2F2
:102F7C001A707B685B6A5A1C7B685A627B685B8D33
:102F8C009BB2013B9AB27B685A857B685B8D9BB286
:102F9C00002B05D07B681B6C43F004027B681A6421
:102FAC007B681B6C002B03D0786800F0B3F839E019
:102FBC00FB7B2A2B09D17B6800221A637B682822B1
:102FCC0083F83D207868FFF79FF87B6893F83D30D5
:102FDC00DBB2282B11D17B68154ADA627B680022A0
:102FEC001A637B68202283F83D207B68002283F8DB
:102FFC003E207868FFF79EF814E07B681B6B222B51
:10300C0002D0FB7B222B0DD17B6800221A637B68DC
:10301C00202283F83D207B68002283F83E207868CC
:10302C00FFF772F800BF1037BD4680BD4D33000866
:10303C000000FFFF80B584B000AF78607B6893F828
:10304C003D30FB737B68DB6ABB60BB68082B02D02E
:10305C00BB68202B29D1FB7B282B26D17B682C4AE3
:10306C00DA627B681B685A687B681B6822F4E06232
:10307C005A607B681B686FF480625A617B681B68BE
:10308C001A687B681B6822F480621A607B680022D5
:10309C001A637B68202283F83D207B68002283F82A
:1030AC003E207868FFF746F82EE0FB7B212B26D1DB
:1030BC007B68174ADA627B6821221A637B682022BC
:1030CC0083F83D207B68002283F83E207B681B68D8
:1030DC005A687B681B6822F4E0625A607B681B6844
:1030EC006FF480625A617B681B681A687B681B6886
:1030FC0022F480621A607868FEF7FDFF04E07B68BA
:10310C001B686FF480625A6100BF1037BD4680BDEA
:10311C000000FFFF80B584B000AF78607B6893F847
:10312C003D30FB737B6893F83E30DBB2102B0AD139
:10313C00FB7B222B07D17B681B681A687B681B689A
:10314C0022F400621A60FB7B03F02803282B07D1C2
:10315C007B6800221A637B68282283F83D2015E0E7
:10316C007B681B685B6803F40063B3F5006F06D0E3
:10317C00FB7B602B03D07B68202283F83D207B688F
:10318C0000221A637B68002283F83E207B681B6850
:10319C005B6803F40063B3F5006F61D17B681B6857
:1031AC005A687B681B6822F400625A607B685B6B10
:1031BC0093F82130012B20D07B685B6B5E4A5A63FD
:1031CC007B685B6B1846FEF785F80346002B00F016
:1031DC0089807B681B681A687B681B6822F0010277
:1031EC001A607B68202283F83D207B685B6B5B6BED
:1031FC007A68526B1046984774E07B689B6B4E4A1A
:10320C005A637B689B6B1846FEF764F80346002BE9
:10321C0068D07B681B685B6903F04003402B0BD1C3
:10322C007B681B681A697B685B6AD2B21A707B6810
:10323C005B6A5A1C7B685A627B681B681A687B68DD
:10324C001B6822F001021A607B68202283F83D2063
:10325C007B689B6B5B6B7A68926B1046984741E07E
:10326C007B6893F83D30DBB2602B25D17B68202244
:10327C0083F83D207B6800221A647B681B685B69BD
:10328C0003F04003402B0BD17B681B681A697B68E9
:10329C005B6AD2B21A707B685B6A5A1C7B685A6292
:1032AC007B681B681A687B681B6822F001021A6035
:1032BC007868FEF763FF15E07B681B685B6903F0B9
:1032CC004003402B0BD17B681B681A697B685B6AD7
:1032DC00D2B21A707B685B6A5A1C7B685A62786837
:1032EC00FEF743FF7B6893F83D30FB737B681B6CE8
:1032FC0003F00403042B1BD1FB7B282B18D17B6818
:10330C001B685A687B681B6822F4E0625A607B6811
:10331C000A4ADA627B6800221A637B68202283F8EF
:10332C003D207B68002283F83E207868FEF702FF80
:10333C0000BF1037BD4680BD4D3300080000FFFFB5
:10334C0080B584B000AF78607B685B6AFB60FB681B
:10335C0093F83D30FB72FB685B6B00229A62FB6852
:10336C009B6B00229A62FB681B681A68FB681B68DF
:10337C0022F480621A60FB6800225A85FB685B6B42
:10338C0000225A63FB689B6B00225A63FB681B6824
:10339C001A68FB681B6822F001021A60FB6893F83C
:1033AC003D30DBB2602B0ED1FB68202283F83D2030
:1033BC00FB68002283F83E20FB6800221A64F86840
:1033CC00FEF7DCFE27E0FB7A03F02803282B17D14D
:1033DC00FB681B681A68FB681B6842F001021A60E4
:1033EC00FB681B681A68FB681B6842F480621A60F1
:1033FC00FB6800221A63FB68282283F83D2007E053
:10340C00FB68202283F83D20FB68002283F83E20D5
:10341C00F868FEF7AAFE00BF1037BD4680BD80B429
:10342C0083B000AF78607B68DB6AB3F52A0F03D1F9
:10343C007B680122DA6207E07B68DB6AB3F12A4F12
:10344C0002D17B680822DA6200BF0C37BD4680BC13
:10345C007047000080B400AF034B01221A6000BF1C
:10346C00BD4680BC704700BF20000E4280B586B0C0
:10347C0000AF78607B68002B01D101235CE37B6893
:10348C001B68002B1CD07B681B6803F00103002B0E
:10349C0016D17B681B6803F00203002B10D17B68EC
:1034AC001B6803F00803002B0AD17B681B6803F030
:1034BC000403002B04D140F26711A548FDF773F803
:1034CC007B681B6803F00103002B00F09A807B687B
:1034DC005B68002B0ED07B685B68B3F5803F09D02E
:1034EC007B685B68B3F5A02F04D040F26D1198484F
:1034FC00FDF759F8974B5B6803F00C03042B0CD0C9
:10350C00944B5B6803F00C03082B12D1914B5B6856
:10351C0003F48033B3F5803F0BD18E4B1B6803F45F
:10352C000033002B6CD07B685B68002B68D10123C7
:10353C0002E37B685B68B3F5803F06D1854B1B6863
:10354C00844A43F4803313602EE07B685B68002B65
:10355C000CD1804B1B687F4A23F4803313607D4B66
:10356C001B687C4A23F4802313601DE07B685B6836
:10357C00B3F5A02F0CD1774B1B68764A43F480230C
:10358C001360744B1B68734A43F4803313600BE075
:10359C00704B1B686F4A23F4803313606D4B1B68B0
:1035AC006C4A23F4802313607B685B68002B13D078
:1035BC00FDF7E2F9386108E0FDF7DEF902463B69F8
:1035CC00D31A642B01D90323B6E2624B1B6803F4B4
:1035DC000033002BF0D014E0FDF7CEF9386108E091
:1035EC00FDF7CAF902463B69D31A642B01D90323B0
:1035FC00A2E2584B1B6803F40033002BF0D100E01F
:10360C0000BF7B681B6803F00203002B79D07B683A
:10361C001B69002B08D07B681B69012B04D040F27E
:10362C00A1114B48FCF7BFFF7B685B691F2B04D9CA
:10363C004FF4D1714648FCF7B6FF464B5B6803F07C
:10364C000C03002B0BD0434B5B6803F00C03082BD3
:10365C001CD1404B5B6803F48033002B16D13D4BDF
:10366C001B6803F00203002B05D07B681B69012B40
:10367C0001D0012360E2374B1B6823F0F8027B6812
:10368C005B69DB00334913430B603AE07B681B69D1
:10369C00002B20D0304B01221A60FDF76DF93861F8
:1036AC0008E0FDF769F902463B69D31A022B01D9F0
:1036BC00032341E2274B1B6803F00203002BF0D0DD
:1036CC00244B1B6823F0F8027B685B69DB00214903
:1036DC0013430B6015E0204B00221A60FDF74CF9E8
:1036EC00386108E0FDF748F902463B69D31A022B12
:1036FC0001D9032320E2174B1B6803F00203002BB4
:10370C00F0D17B681B6803F00803002B48D07B6862
:10371C009B69002B08D07B689B69012B04D04FF46C
:10372C00F1710B48FCF73FFF7B689B69002B21D0A4
:10373C000A4B01221A60FDF71FF9386110E0FDF702
:10374C001BF902463B69D31A022B09D90323F3E177
:10375C00684E0008001002400000424280044242C1
:10376C00674B5B6A03F00203002BE8D0012000F0EA
:10377C0011FC15E0634B00221A60FDF7FDF838616F
:10378C0008E0FDF7F9F802463B69D31A022B01D980
:10379C000323D1E15A4B5B6A03F00203002BF0D1F7
:1037AC007B681B6803F00403002B00F0C08000232F
:1037BC00FB757B68DB68002B0CD07B68DB68012B0E
:1037CC0008D07B68DB68052B04D040F211214E48F1
:1037DC00FCF7E9FE4A4BDB6903F08053002B0DD15B
:1037EC00474BDB69464A43F08053D361444BDB695A
:1037FC0003F08053BB60BB680123FB75434B1B6814
:10380C0003F48073002B18D1404B1B683F4A43F4E0
:10381C0080731360FDF7B0F8386108E0FDF7ACF881
:10382C0002463B69D31A642B01D9032384E1374B3D
:10383C001B6803F48073002BF0D07B68DB68012BD2
:10384C0006D12F4B1B6A2E4A43F0010313622DE065
:10385C007B68DB68002B0CD1294B1B6A284A23F0B0
:10386C0001031362264B1B6A254A23F004031362DF
:10387C001CE07B68DB68052B0CD1214B1B6A204AB2
:10388C0043F0040313621E4B1B6A1D4A43F00103F1
:10389C0013620BE01A4B1B6A194A23F001031362E3
:1038AC00174B1B6A164A23F0040313627B68DB6810
:1038BC00002B15D0FDF760F838610AE0FDF75CF8D5
:1038CC0002463B69D31A41F28832934201D9032351
:1038DC0032E10B4B1B6A03F00203002BEED01DE010
:1038EC00FDF74AF8386113E0FDF746F802463B69EC
:1038FC00D31A41F2883293420AD903231CE100BF48
:10390C000010024080044242684E000800700040E3
:10391C008B4B1B6A03F00203002BE5D1FB7D012BC3
:10392C0005D1874BDB69864A23F08053D3617B68D2
:10393C00DB69002B0CD07B68DB69012B08D07B6822
:10394C00DB69022B04D040F2AF217E48FCF72BFE42
:10395C007B68DB69002B00F0EE80794B5B6803F031
:10396C000C03082B00F0CE807B68DB69022B40F047
:10397C00B2807B681B6A002B09D07B681B6AB3F58D
:10398C00803F04D04FF42E716E48FCF70CFE7B6820
:10399C005B6A002B4AD07B685B6AB3F5802F45D0FD
:1039AC007B685B6AB3F5002F40D07B685B6AB3F52C
:1039BC00402F3BD07B685B6AB3F5801F36D07B68A9
:1039CC005B6AB3F5A01F31D07B685B6AB3F5C01F8F
:1039DC002CD07B685B6AB3F5E01F27D07B685B6AF1
:1039EC00B3F5001F22D07B685B6AB3F5101F1DD0A6
:1039FC007B685B6AB3F5201F18D07B685B6AB3F5F4
:103A0C00301F13D07B685B6AB3F5401F0ED07B6808
:103A1C005B6AB3F5501F09D07B685B6AB3F5601F16
:103A2C0004D040F2B9214748FCF7BDFD464B0022BB
:103A3C001A60FCF7A1FF386108E0FCF79DFF024615
:103A4C003B69D31A022B01D9032375E03C4B1B684D
:103A5C0003F00073002BF0D17B681B6AB3F5803F39
:103A6C0016D17B689B68002B09D07B689B68B3F5EB
:103A7C00003F04D040F2CF213248FCF794FD304B8C
:103A8C005B6823F400327B689B682D4913434B60C1
:103A9C002B4B5B6823F474127B68196A7B685B6A36
:103AAC000B43274913434B60274B01221A60FCF749
:103ABC0063FF386108E0FCF75FFF02463B69D31AED
:103ACC00022B01D9032337E01D4B1B6803F0007355
:103ADC00002BF0D02FE01C4B00221A60FCF74CFF9F
:103AEC00386108E0FCF748FF02463B69D31A022B09
:103AFC0001D9032320E0124B1B6803F00073002B49
:103B0C00F0D118E07B68DB69012B01D1012313E0B4
:103B1C000B4B5B68FB60FB6803F480327B681B6AB1
:103B2C009A4206D1FB6803F470127B685B6A9A4276
:103B3C0001D0012300E0002318461837BD4680BD94
:103B4C0000100240684E00086000424280B584B00C
:103B5C0000AF786039607B68002B01D1012376E1DE
:103B6C007B681B6803F00103002B16D17B681B6874
:103B7C0003F00203002B10D17B681B6803F00403D5
:103B8C00002B0AD17B681B6803F00803002B04D1BF
:103B9C004FF44E717448FCF706FD3B68002B0AD0BD
:103BAC003B68012B07D03B68022B04D040F2393123
:103BBC006D48FCF7F8FC6D4B1B6803F007033A6883
:103BCC009A4210D9694B1B6823F0070267493B687E
:103BDC0013430B60654B1B6803F007033A689A426A
:103BEC0001D0012333E17B681B6803F00203002B37
:103BFC0049D07B681B6803F00403002B05D05C4B99
:103C0C005B685B4A43F4E06353607B681B6803F0BA
:103C1C000803002B05D0564B5B68554A43F46053A0
:103C2C0053607B689B68002B24D07B689B68802B3F
:103C3C0020D07B689B68902B1CD07B689B68A02B4A
:103C4C0018D07B689B68B02B14D07B689B68C02B0A
:103C5C0010D07B689B68D02B0CD07B689B68E02BCA
:103C6C0008D07B689B68F02B04D040F25F313E4853
:103C7C00FCF799FC3E4B5B6823F0F0027B689B6879
:103C8C003B4913434B607B681B6803F00103002B1B
:103C9C0051D07B685B68002B0CD07B685B68012B78
:103CAC0008D07B685B68022B04D040F266312E484A
:103CBC00FCF779FC7B685B68012B07D12C4B1B68EC
:103CCC0003F40033002B15D10123C0E07B685B6843
:103CDC00022B07D1264B1B6803F00073002B09D174
:103CEC000123B4E0224B1B6803F00203002B01D12B
:103CFC000123ACE01E4B5B6823F003027B685B681E
:103D0C001B4913434B60FCF737FEF8600AE0FCF7E5
:103D1C0033FE0246FB68D31A41F28832934201D932
:103D2C00032394E0124B5B6803F00C027B685B6826
:103D3C009B009A42EBD10D4B1B6803F007033A68CA
:103D4C009A4217D2094B1B6823F0070207493B68BC
:103D5C0013430B60054B1B6803F007033A689A4248
:103D6C0008D0012373E000BF684E00080020024019
:103D7C00001002407B681B6803F00403002B25D065
:103D8C007B68DB68002B18D07B68DB68B3F5806F31
:103D9C0013D07B68DB68B3F5A06F0ED07B68DB6853
:103DAC00B3F5C06F09D07B68DB68B3F5E06F04D066
:103DBC004FF469712848FCF7F6FB284B5B6823F439
:103DCC00E0627B68DB68254913434B607B681B68AA
:103DDC0003F00803002B26D07B681B69002B18D03E
:103DEC007B681B69B3F5806F13D07B681B69B3F5D7
:103DFC00A06F0ED07B681B69B3F5C06F09D07B68D0
:103E0C001B69B3F5E06F04D040F2AB311248FCF7FC
:103E1C00CAFB124B5B6823F460527B681B69DB00A6
:103E2C000E4913434B6000F021F801460B4B5B68C5
:103E3C001B0903F00F030A4AD35C21FA03F3094A66
:103E4C001360094B1B681846FCF754FD00231846F9
:103E5C001037BD4680BD00BF684E00080010024000
:103E6C003C4F0008000000200400002090B48AB0F1
:103E7C0000AF2A4B3C1D0FCB84E80F00284B1B884E
:103E8C003B800023FB610023BB6100237B6200238A
:103E9C007B6100233B62234B5B68FB61FB6903F096
:103EAC000C03042B02D0082B03D02DE01E4B3B62DD
:103EBC002DE0FB699B0C03F00F0307F12802134460
:103ECC0013F8243C7B61FB6903F48033002B13D083
:103EDC00144B5B685B0C03F0010307F128021344DD
:103EEC0013F8283CBB617B690F4A02FB03F2BB69E8
:103EFC00B2FBF3F37B6204E07B690C4A02FB03F335
:103F0C007B627B6A3B6202E0074B3B6200BF3B6A11
:103F1C0018462837BD4690BC704700BFA04E00081D
:103F2C00B04E00080010024000127A0000093D005B
:103F3C0080B400AF024B1B681846BD4680BC70476E
:103F4C000000002080B500AFFFF7F2FF0146054BE3
:103F5C005B681B0A03F00703034AD35C21FA03F3E3
:103F6C00184680BD001002404C4F000880B500AFD1
:103F7C00FFF7DEFF0146054B5B68DB0A03F0070326
:103F8C00034AD35C21FA03F3184680BD00100240AB
:103F9C004C4F000880B485B000AF78600A4B1B68AA
:103FAC000A4AA2FB03235B0A7A6802FB03F3FB6059
:103FBC0000BFFB685A1EFA60002BF9D100BF143702
:103FCC00BD4680BC704700BF00000020D34D62107E
:103FDC0080B586B000AF786000233B610023FB60A6
:103FEC007B681B6803F00103002B0FD17B681B68F7
:103FFC0003F00203002B09D17B681B6803F010034C
:10400C00002B03D16C217348FCF7CDFA7B681B683D
:10401C0003F00103002B00F095807B685B68002B9C
:10402C0012D07B685B68B3F5807F0DD07B685B68D2
:10403C00B3F5007F08D07B685B68B3F5407F03D095
:10404C0072216448FCF7AFFA0023FB75624BDB6905
:10405C0003F08053002B0DD15F4BDB695E4A43F0BC
:10406C008053D3615C4BDB6903F08053BB60BB684E
:10407C000123FB75594B1B6803F48073002B18D17B
:10408C00564B1B68554A43F480731360FCF774FC61
:10409C00386108E0FCF770FC02463B69D31A642BCC
:1040AC0001D9032392E04D4B1B6803F48073002B62
:1040BC00F0D0494B1B6A03F44073FB60FB68002B88
:1040CC002ED07B685B6803F44073FA689A4227D061
:1040DC00414B1B6A23F44073FB60414B01221A6075
:1040EC003F4B00221A603C4AFB681362FB6803F0EA
:1040FC000103002B14D0FCF73FFC38610AE0FCF7FD
:10410C003BFC02463B69D31A41F28832934201D9F7
:10411C0003235BE0304B1B6A03F00203002BEED051
:10412C002D4B1B6A23F440727B685B682A4913434E
:10413C000B62FB7D012B05D1274BDB69264A23F053
:10414C008053D3617B681B6803F00203002B1FD0E4
:10415C007B689B68002B12D07B689B68B3F5804F03
:10416C000DD07B689B68B3F5004F08D07B689B68CB
:10417C00B3F5404F03D0B9211648FCF714FA164B8F
:10418C005B6823F440427B689B68134913434B6084
:10419C007B681B6803F01003002B16D07B68DB6870
:1041AC00B3F5800F08D07B68DB68002B04D040F29D
:1041BC0015110848FCF7F7F9074B5B6823F48002EC
:1041CC007B68DB68044913434B600023184618379F
:1041DC00BD4680BDB44E0008001002400070004087
:1041EC004004424290B58DB000AF78605F4B07F150
:1041FC000C040FCB84E80F005D4B1B883B81002324
:10420C007B620023FB6200233B620023FB610023E3
:10421C00BB627B6803F00103002B0ED17B6803F0BB
:10422C000203002B09D17B6803F01003002B04D18F
:10423C004FF4CB714F48FCF7B6F97B68022B7FD05B
:10424C00102B02D0012B48D08BE04B4B5B68FB61F1
:10425C00494B1B6803F08073002B7FD0FB699B0CD0
:10426C0003F00F0307F13002134413F8243C3B62B4
:10427C00FB6903F48033002B18D03F4B5B685B0C5D
:10428C0003F0010307F13002134413F8283C7B625E
:10429C00FB6903F48033002B0DD0384A7B6AB2FBE8
:1042AC00F3F23B6A02FB03F3FB6204E03B6A344A21
:1042BC0002FB03F3FB62304B5B6803F48003B3F542
:1042CC00800F02D1FB6ABB6248E0FB6A5B002D4A9F
:1042DC00A2FB03235B08BB6240E0274B1B6AFB611C
:1042EC00FB6903F44073B3F5807F08D1FB6903F0DD
:1042FC000203002B03D04FF40043BB621FE0FB69A9
:10430C0003F44073B3F5007F09D11B4B5B6A03F0D8
:10431C000203002B03D049F64043BB620FE0FB695C
:10432C0003F44073B3F5407F1AD1134B1B6803F4AD
:10433C000033002B14D04FF22443BB6210E00FE08B
:10434C00FFF714FE02460C4B5B689B0B03F0030358
:10435C0001335B00B2FBF3F3BB6202E000BF00E091
:10436C0000BFBB6A18463437BD4690BDF04E0008FE
:10437C00004F0008B44E00080010024000127A00F2
:10438C0000093D00ABAAAAAA80B584B000AF786042
:10439C000023FB607B68002B01D10123B4E07B6818
:1043AC001B685B4A934204D040F21D115948FCF73C
:1043BC00FAF87B689B68002B12D07B689B68802B7B
:1043CC000ED07B689B68B3F5807F09D07B689B68B7
:1043DC00B3F5407F04D04FF48F714E48FCF7E3F8EF
:1043EC007B685B68B3F5801F09D37B685B68B3F1AE
:1043FC00FF3F04D040F21F114648FCF7D4F87B680D
:10440C005B7CDBB2002B05D17B6800221A747868C8
:10441C00FCF71EF97B6802225A74786800F082FA65
:10442C000346002B04D07B6804225A7401236BE0F2
:10443C00786800F03BFB0346002B04D07B68042219
:10444C005A74012360E07B681B685A687B681B68A0
:10445C0022F007025A607B689B68002B05D02E4B1C
:10446C001B6B2D4A23F0010313632B4BDB6A23F4E4
:10447C0060727B689B6828491343CB627B685B68DE
:10448C00B3F1FF3F03D07B685B68FB600EE001205B
:10449C00FFF7A8FEF860FB68002B04D17B680422B0
:1044AC005A74012330E0FB68013BFB607B681B689E
:1044BC009B6823F00F01FB681A0C7B681B680A438E
:1044CC009A607B681B68DB681B0C1B04FA6891B252
:1044DC007A6812680B43D360786800F00FFB0346D0
:1044EC00002B04D07B6804225A7401230CE07B68F7
:1044FC000022DA737B6801225A737B6801229A735B
:10450C007B6801225A74002318461037BD4680BDC3
:10451C0000280040044F0008006C004090B587B0A4
:10452C0000AFF860B9607A6000237B6100233B61C7
:10453C00FB68002B02D0BB68002B01D10123CDE01E
:10454C007B68002B07D07B68012B04D040F2CA217A
:10455C006448FCF728F8FB681B7C012B01D1022373
:10456C00BCE0FB6801221A74FB6802225A747B6857
:10457C00002B2ED1BB681B78172B04D940F2D3210A
:10458C005848FCF710F8BB685B783B2B04D94FF408
:10459C0035715448FCF707F8BB689B783B2B04D962
:1045AC0040F2D5214F48FBF7FEFFBB681B781A463B
:1045BC004FF4616303FB02F2BB685B7819460B4650
:1045CC001B015B1A9B001344BA68927813447B61FD
:1045DC0045E0BB681B78184600F0B8FA0346172B69
:1045EC0004D940F2DD213F48FBF7DDFFBB685B7867
:1045FC00184600F0ABFA03463B2B04D940F2DE21FF
:10460C003848FBF7D0FFBB689B78184600F09EFA41
:10461C0003463B2B04D940F2DF213248FBF7C3FFA2
:10462C00BB681B78184600F091FA03461A464FF403
:10463C00616303FB02F4BB685B78184600F086FAF2
:10464C0003461A4613461B019B1A9B001C44BB686D
:10465C009B78184600F07AFA034623447B6179690B
:10466C00F86800F0BCF90346002B07D0FB68042265
:10467C005A74FB6800221A7401232FE0FB681B6834
:10468C005A68FB681B6822F005025A60F86800F053
:10469C00CDF938613B69B3F1FF3F18D03A697B69BA
:1046AC009A4214D23B6903F5A83303F5C0733B61FE
:1046BC003969F86800F0D3F90346002B07D0FB6882
:1046CC0004225A74FB6800221A74012306E0FB686A
:1046DC0001225A74FB6800221A74002318461C37F6
:1046EC00BD4690BD044F000880B588B000AFF8609F
:1046FC00B9607A600023FB610023BB6100237B61FE
:10470C00FB68002B02D0BB68002B01D10123FCE01D
:10471C007B68002B07D07B68012B04D04FF46771AA
:10472C007C48FBF740FFFB681B7C012B01D102236B
:10473C00EBE0FB6801221A74FB6802225A747B6856
:10474C00002B2FD1BB68DB78632B04D940F2A53149
:10475C007048FBF728FFBB685B78002B03D0BB6865
:10476C005B780C2B04D940F2A6316A48FBF71BFF8F
:10477C00BB689B78002B03D0BB689B781F2B04D99C
:10478C0040F2A7316348FBF70EFFBB68DA78FB6891
:10479C00DA73BB685A78FB685A73BB689A78FB6803
:1047AC009A7351E0BB68DB78184600F0CFF90346EA
:1047BC00632B04D94FF46C715648FBF7F4FEBB68BD
:1047CC005B78184600F0C2F90346002B07D0BB6893
:1047DC005B78184600F0BAF903460C2B04D940F26A
:1047EC00B1314C48FBF7DFFEBB689B78184600F0F4
:1047FC00ADF90346002B07D0BB689B78184600F038
:10480C00A5F903461F2B04D940F2B2314148FBF7FE
:10481C00CAFEBB68DB78184600F098F903461A46C6
:10482C00FB68DA73BB685B78184600F08FF90346B7
:10483C001A46FB685A73BB689B78184600F086F9D9
:10484C0003461A46FB689A73FB68DB7B1846FB68C9
:10485C00597BFB689B7B1A4600F096F903461A4677
:10486C00FB681A73FB681A7BBB681A70F86800F057
:10487C0086F8F861FB69284AA2FB0323DB0A7B61FB
:10488C007B69182B3AD97B69244AA2FB03231B09A9
:10489C00234A02FB03F3FA69D31AFB61F969F8683E
:1048AC0000F09DF80346002B07D0FB6804225A74D5
:1048BC00FB6800221A74012327E0F86800F0B6F8B0
:1048CC00B861BB69B3F1FF3F18D0BA69FB699A4272
:1048DC0014D2BB6903F5A83303F5C073BB61B96986
:1048EC00F86800F0BCF80346002B07D0FB680422E4
:1048FC005A74FB6800221A74012306E0FB6801223B
:10490C005A74FB6800221A74002318462037BD46DF
:10491C0080BD00BF044F0008C5B3A291ABAAAAAAE0
:10492C008051010080B584B000AF78600023FB603B
:10493C007B68002B01D101231DE07B681B685A6842
:10494C007B681B6822F008025A60FCF715F8F860C7
:10495C0009E0FCF711F80246FB68D31AB3F57A7F2D
:10496C0001D9032307E07B681B685B6803F008032D
:10497C00002BEED0002318461037BD4680BD80B406
:10498C0087B000AF786000237B8200233B8200233A
:10499C00FB8100237B617B681B689B697B827B6846
:1049AC001B68DB69FB817B681B689B693B827A8A8D
:1049BC003B8A9A4208D03B8A1A047B681B68DB69E5
:1049CC009BB213437B6104E07B8A1A04FB8913437B
:1049DC007B617B6918461C37BD4680BC704780B52F
:1049EC0084B000AF786039600023FB73786800F006
:1049FC005DF80346002B02D00123FB7311E07B68AA
:104A0C001B683A68120C9A617B681B683A6892B210
:104A1C00DA61786800F072F80346002B01D00123AC
:104A2C00FB73FB7B18461037BD4680BD80B485B048
:104A3C0000AF78600023FB810023BB817B681B687F
:104A4C001B6AFB817B681B685B6ABB81FB891A0450
:104A5C00BB89134318461437BD4680BC704780B5DC
:104A6C0084B000AF786039600023FB73786800F085
:104A7C001DF80346002B02D00123FB7311E07B6869
:104A8C001B683A68120C1A627B681B683A6892B20F
:104A9C005A62786800F032F80346002B01D00123EB
:104AAC00FB73FB7B18461037BD4680BD80B584B0C8
:104ABC0000AF78600023FB60FBF75EFFF86009E055
:104ACC00FBF75AFF0246FB68D31AB3F57A7F01D97C
:104ADC0003230FE07B681B685B6803F02003002B4B
:104AEC00EED07B681B685A687B681B6842F010022A
:104AFC005A60002318461037BD4680BD80B584B07F
:104B0C0000AF78600023FB607B681B685A687B6889
:104B1C001B6822F010025A60FBF72EFFF86009E0C8
:104B2C00FBF72AFF0246FB68D31AB3F57A7F01D94B
:104B3C00032307E07B681B685B6803F02003002BF2
:104B4C00EED0002318461037BD4680BD80B485B02A
:104B5C0000AF0346FB710023FB60FB791B09DBB242
:104B6C001A4613469B0013445B00FB60FB7903F071
:104B7C000F03DAB2FB68DBB21344DBB2184614370E
:104B8C00BD4680BC7047000080B485B000AF786033
:104B9C000B46FB701346BB700023BB600023FB600D
:104BAC007B6803F5FA63BB60FB78022B2DD8FA788F
:104BBC0013465B001344DB009B1A2C4AA2FB032315
:104BCC005A08BB781A44BB681A44BB68013B9B0863
:104BDC001A44BB68013B2649A1FB03135B09D21A9B
:104BEC00BB68013B2249A1FB0313DB0913441A1DCB
:104BFC00204BA3FB0213D11A49080B4499080B460E
:104C0C00DB005B1AD31AFB6029E0FA7813465B00D1
:104C1C001344DB009B1A154AA2FB03235A08BB78EA
:104C2C001A44BB681A44BB689B081A44BB681049F9
:104C3C00A1FB03135B09D21ABB680D49A1FB03133B
:104C4C00DB0913449A1C0B4BA3FB0213D11A490822
:104C5C000B4499080B46DB005B1AD31AFB60FB680C
:104C6C00DBB218461437BD4680BC7047398EE3382A
:104C7C001F85EB512549922480B582B000AF786036
:104C8C007B681B681B6803F00103002B24D07B6836
:104C9C001B685B6803F00103002B1DD07B681B684D
:104CAC005B6803F00403002B0BD0786800F021F84C
:104CBC007B681B686FF004025A607B6804225A748C
:104CCC0005E0786800F00CF87B6801225A747B6868
:104CDC001B686FF001025A6000BF0837BD4680BDEB
:104CEC0080B483B000AF786000BF0C37BD4680BC89
:104CFC00704780B483B000AF786000BF0C37BD46FE
:104D0C0080BC704770B500250C4E0D4CA41BA41034
:104D1C00A54209D100F022F800250A4E0A4CA41B2A
:104D2C00A410A54205D170BD56F825309847013521
:104D3C00EEE756F8253098470135F2E7544F000856
:104D4C00544F0008544F0008584F000803460244C3
:104D5C00934200D1704703F8011BF9E7F8B500BF87
:104D6C00F8BC08BC9E467047F8B500BFF8BC08BC40
:044D7C009E46704798
:104D80002E2E2F447269766572732F53544D333231
:104D9000463178785F48414C5F4472697665722F7E
:104DA0005372632F73746D3332663178785F686144
:104DB0006C5F6164632E63002E2E2F4472697665EA
:104DC00072732F53544D3332463178785F48414CDB
:104DD0005F4472697665722F5372632F73746D33FB
:104DE00032663178785F68616C5F636F7274657882
:104DF0002E6300002E2E2F447269766572732F5336
:104E0000544D3332463178785F48414C5F44726983
:104E10007665722F5372632F73746D3332663178F7
:104E2000785F68616C5F6770696F2E6300000000D7
:104E30002E2E2F447269766572732F53544D333280
:104E4000463178785F48414C5F4472697665722FCD
:104E50005372632F73746D3332663178785F686193
:104E60006C5F6932632E63002E2E2F447269766563
:104E700072732F53544D3332463178785F48414C2A
:104E80005F4472697665722F5372632F73746D334A
:104E900032663178785F68616C5F7263632E63009D
:104EA00002030405060708090A0B0C0D0E0F10106B
:104EB000010200002E2E2F447269766572732F5303
:104EC000544D3332463178785F48414C5F447269C3
:104ED0007665722F5372632F73746D333266317837
:104EE000785F68616C5F7263635F65782E63000052
:104EF00002030405060708090A0B0C0D0E0F10101B
:104F0000010200002E2E2F447269766572732F53B2
:104F1000544D3332463178785F48414C5F44726972
:104F20007665722F5372632F73746D3332663178E6
:104F3000785F68616C5F7274632E6300000000002C
:104F40000000000001020304060708090000000039
:044F50000102030453
:044F5400310100081F
:044F58000D0100083F
:0C4F5C000024F400100000000100000020
:04000005080008895E
:00000001FF
